{
	"UniswapV2Pair.sol": {
		"UniswapV2Pair": {
			"abi": [
				{
					"inputs": [],
					"stateMutability": "nonpayable",
					"type": "constructor"
				},
				{
					"anonymous": false,
					"inputs": [
						{
							"indexed": true,
							"internalType": "address",
							"name": "owner",
							"type": "address"
						},
						{
							"indexed": true,
							"internalType": "address",
							"name": "spender",
							"type": "address"
						},
						{
							"indexed": false,
							"internalType": "uint256",
							"name": "value",
							"type": "uint256"
						}
					],
					"name": "Approval",
					"type": "event"
				},
				{
					"anonymous": false,
					"inputs": [
						{
							"indexed": true,
							"internalType": "address",
							"name": "sender",
							"type": "address"
						},
						{
							"indexed": false,
							"internalType": "uint256",
							"name": "amount0",
							"type": "uint256"
						},
						{
							"indexed": false,
							"internalType": "uint256",
							"name": "amount1",
							"type": "uint256"
						},
						{
							"indexed": true,
							"internalType": "address",
							"name": "to",
							"type": "address"
						}
					],
					"name": "Burn",
					"type": "event"
				},
				{
					"anonymous": false,
					"inputs": [
						{
							"indexed": true,
							"internalType": "address",
							"name": "sender",
							"type": "address"
						},
						{
							"indexed": false,
							"internalType": "uint256",
							"name": "amount0",
							"type": "uint256"
						},
						{
							"indexed": false,
							"internalType": "uint256",
							"name": "amount1",
							"type": "uint256"
						}
					],
					"name": "Mint",
					"type": "event"
				},
				{
					"anonymous": false,
					"inputs": [
						{
							"indexed": true,
							"internalType": "address",
							"name": "sender",
							"type": "address"
						},
						{
							"indexed": false,
							"internalType": "uint256",
							"name": "amount0In",
							"type": "uint256"
						},
						{
							"indexed": false,
							"internalType": "uint256",
							"name": "amount1In",
							"type": "uint256"
						},
						{
							"indexed": false,
							"internalType": "uint256",
							"name": "amount0Out",
							"type": "uint256"
						},
						{
							"indexed": false,
							"internalType": "uint256",
							"name": "amount1Out",
							"type": "uint256"
						},
						{
							"indexed": true,
							"internalType": "address",
							"name": "to",
							"type": "address"
						}
					],
					"name": "Swap",
					"type": "event"
				},
				{
					"anonymous": false,
					"inputs": [
						{
							"indexed": false,
							"internalType": "uint112",
							"name": "reserve0",
							"type": "uint112"
						},
						{
							"indexed": false,
							"internalType": "uint112",
							"name": "reserve1",
							"type": "uint112"
						}
					],
					"name": "Sync",
					"type": "event"
				},
				{
					"anonymous": false,
					"inputs": [
						{
							"indexed": true,
							"internalType": "address",
							"name": "from",
							"type": "address"
						},
						{
							"indexed": true,
							"internalType": "address",
							"name": "to",
							"type": "address"
						},
						{
							"indexed": false,
							"internalType": "uint256",
							"name": "value",
							"type": "uint256"
						}
					],
					"name": "Transfer",
					"type": "event"
				},
				{
					"inputs": [],
					"name": "DOMAIN_SEPARATOR",
					"outputs": [
						{
							"internalType": "bytes32",
							"name": "",
							"type": "bytes32"
						}
					],
					"stateMutability": "view",
					"type": "function"
				},
				{
					"inputs": [],
					"name": "MINIMUM_LIQUIDITY",
					"outputs": [
						{
							"internalType": "uint256",
							"name": "",
							"type": "uint256"
						}
					],
					"stateMutability": "view",
					"type": "function"
				},
				{
					"inputs": [],
					"name": "PERMIT_TYPEHASH",
					"outputs": [
						{
							"internalType": "bytes32",
							"name": "",
							"type": "bytes32"
						}
					],
					"stateMutability": "view",
					"type": "function"
				},
				{
					"inputs": [
						{
							"internalType": "address",
							"name": "",
							"type": "address"
						},
						{
							"internalType": "address",
							"name": "",
							"type": "address"
						}
					],
					"name": "allowance",
					"outputs": [
						{
							"internalType": "uint256",
							"name": "",
							"type": "uint256"
						}
					],
					"stateMutability": "view",
					"type": "function"
				},
				{
					"inputs": [
						{
							"internalType": "address",
							"name": "spender",
							"type": "address"
						},
						{
							"internalType": "uint256",
							"name": "value",
							"type": "uint256"
						}
					],
					"name": "approve",
					"outputs": [
						{
							"internalType": "bool",
							"name": "",
							"type": "bool"
						}
					],
					"stateMutability": "nonpayable",
					"type": "function"
				},
				{
					"inputs": [
						{
							"internalType": "address",
							"name": "",
							"type": "address"
						}
					],
					"name": "balanceOf",
					"outputs": [
						{
							"internalType": "uint256",
							"name": "",
							"type": "uint256"
						}
					],
					"stateMutability": "view",
					"type": "function"
				},
				{
					"inputs": [
						{
							"internalType": "address",
							"name": "to",
							"type": "address"
						}
					],
					"name": "burn",
					"outputs": [
						{
							"internalType": "uint256",
							"name": "amount0",
							"type": "uint256"
						},
						{
							"internalType": "uint256",
							"name": "amount1",
							"type": "uint256"
						}
					],
					"stateMutability": "nonpayable",
					"type": "function"
				},
				{
					"inputs": [],
					"name": "decimals",
					"outputs": [
						{
							"internalType": "uint8",
							"name": "",
							"type": "uint8"
						}
					],
					"stateMutability": "view",
					"type": "function"
				},
				{
					"inputs": [],
					"name": "factory",
					"outputs": [
						{
							"internalType": "address",
							"name": "",
							"type": "address"
						}
					],
					"stateMutability": "view",
					"type": "function"
				},
				{
					"inputs": [],
					"name": "getReserves",
					"outputs": [
						{
							"internalType": "uint112",
							"name": "_reserve0",
							"type": "uint112"
						},
						{
							"internalType": "uint112",
							"name": "_reserve1",
							"type": "uint112"
						},
						{
							"internalType": "uint32",
							"name": "_blockTimestampLast",
							"type": "uint32"
						}
					],
					"stateMutability": "view",
					"type": "function"
				},
				{
					"inputs": [
						{
							"internalType": "address",
							"name": "_token0",
							"type": "address"
						},
						{
							"internalType": "address",
							"name": "_token1",
							"type": "address"
						}
					],
					"name": "initialize",
					"outputs": [],
					"stateMutability": "nonpayable",
					"type": "function"
				},
				{
					"inputs": [],
					"name": "kLast",
					"outputs": [
						{
							"internalType": "uint256",
							"name": "",
							"type": "uint256"
						}
					],
					"stateMutability": "view",
					"type": "function"
				},
				{
					"inputs": [
						{
							"internalType": "address",
							"name": "to",
							"type": "address"
						}
					],
					"name": "mint",
					"outputs": [
						{
							"internalType": "uint256",
							"name": "liquidity",
							"type": "uint256"
						}
					],
					"stateMutability": "nonpayable",
					"type": "function"
				},
				{
					"inputs": [],
					"name": "name",
					"outputs": [
						{
							"internalType": "string",
							"name": "",
							"type": "string"
						}
					],
					"stateMutability": "view",
					"type": "function"
				},
				{
					"inputs": [
						{
							"internalType": "address",
							"name": "",
							"type": "address"
						}
					],
					"name": "nonces",
					"outputs": [
						{
							"internalType": "uint256",
							"name": "",
							"type": "uint256"
						}
					],
					"stateMutability": "view",
					"type": "function"
				},
				{
					"inputs": [
						{
							"internalType": "address",
							"name": "owner",
							"type": "address"
						},
						{
							"internalType": "address",
							"name": "spender",
							"type": "address"
						},
						{
							"internalType": "uint256",
							"name": "value",
							"type": "uint256"
						},
						{
							"internalType": "uint256",
							"name": "deadline",
							"type": "uint256"
						},
						{
							"internalType": "uint8",
							"name": "v",
							"type": "uint8"
						},
						{
							"internalType": "bytes32",
							"name": "r",
							"type": "bytes32"
						},
						{
							"internalType": "bytes32",
							"name": "s",
							"type": "bytes32"
						}
					],
					"name": "permit",
					"outputs": [],
					"stateMutability": "nonpayable",
					"type": "function"
				},
				{
					"inputs": [],
					"name": "price0CumulativeLast",
					"outputs": [
						{
							"internalType": "uint256",
							"name": "",
							"type": "uint256"
						}
					],
					"stateMutability": "view",
					"type": "function"
				},
				{
					"inputs": [],
					"name": "price1CumulativeLast",
					"outputs": [
						{
							"internalType": "uint256",
							"name": "",
							"type": "uint256"
						}
					],
					"stateMutability": "view",
					"type": "function"
				},
				{
					"inputs": [
						{
							"internalType": "address",
							"name": "to",
							"type": "address"
						}
					],
					"name": "skim",
					"outputs": [],
					"stateMutability": "nonpayable",
					"type": "function"
				},
				{
					"inputs": [
						{
							"internalType": "uint256",
							"name": "amount0Out",
							"type": "uint256"
						},
						{
							"internalType": "uint256",
							"name": "amount1Out",
							"type": "uint256"
						},
						{
							"internalType": "address",
							"name": "to",
							"type": "address"
						},
						{
							"internalType": "bytes",
							"name": "data",
							"type": "bytes"
						}
					],
					"name": "swap",
					"outputs": [],
					"stateMutability": "nonpayable",
					"type": "function"
				},
				{
					"inputs": [],
					"name": "symbol",
					"outputs": [
						{
							"internalType": "string",
							"name": "",
							"type": "string"
						}
					],
					"stateMutability": "view",
					"type": "function"
				},
				{
					"inputs": [],
					"name": "sync",
					"outputs": [],
					"stateMutability": "nonpayable",
					"type": "function"
				},
				{
					"inputs": [],
					"name": "token0",
					"outputs": [
						{
							"internalType": "address",
							"name": "",
							"type": "address"
						}
					],
					"stateMutability": "view",
					"type": "function"
				},
				{
					"inputs": [],
					"name": "token1",
					"outputs": [
						{
							"internalType": "address",
							"name": "",
							"type": "address"
						}
					],
					"stateMutability": "view",
					"type": "function"
				},
				{
					"inputs": [],
					"name": "totalSupply",
					"outputs": [
						{
							"internalType": "uint256",
							"name": "",
							"type": "uint256"
						}
					],
					"stateMutability": "view",
					"type": "function"
				},
				{
					"inputs": [
						{
							"internalType": "address",
							"name": "to",
							"type": "address"
						},
						{
							"internalType": "uint256",
							"name": "value",
							"type": "uint256"
						}
					],
					"name": "transfer",
					"outputs": [
						{
							"internalType": "bool",
							"name": "",
							"type": "bool"
						}
					],
					"stateMutability": "nonpayable",
					"type": "function"
				},
				{
					"inputs": [
						{
							"internalType": "address",
							"name": "from",
							"type": "address"
						},
						{
							"internalType": "address",
							"name": "to",
							"type": "address"
						},
						{
							"internalType": "uint256",
							"name": "value",
							"type": "uint256"
						}
					],
					"name": "transferFrom",
					"outputs": [
						{
							"internalType": "bool",
							"name": "",
							"type": "bool"
						}
					],
					"stateMutability": "nonpayable",
					"type": "function"
				}
			],
			"devdoc": {
				"kind": "dev",
				"methods": {},
				"version": 1
			},
			"evm": {
				"assembly": "    /* \"UniswapV2Pair.sol\":296:10166  contract UniswapV2Pair is UniswapV2ERC20 {\r... */\n  mstore(0x40, 0x80)\n    /* \"UniswapV2Pair.sol\":1136:1137  1 */\n  0x01\n    /* \"UniswapV2Pair.sol\":1112:1137  uint private unlocked = 1 */\n  0x0c\n  sstore\n    /* \"UniswapV2Pair.sol\":2223:2283  constructor() public {\r... */\n  callvalue\n  dup1\n  iszero\n  tag_1\n  jumpi\n  0x00\n  dup1\n  revert\ntag_1:\n  pop\n    /* \"UniswapV2ERC20.sol\":1250:1254  name */\n  0x40\n  dup1\n  mload\n  dup1\n  dup3\n  add\n  dup3\n  mstore\n  0x0d\n  dup2\n  mstore\n  shl(0x99, 0x2227a725902628102a37b5b2b7)\n  0x20\n  swap2\n  dup3\n  add\n  mstore\n    /* \"UniswapV2ERC20.sol\":1285:1295  bytes('1') */\n  dup2\n  mload\n  dup1\n  dup4\n  add\n  dup4\n  mstore\n  0x01\n  dup2\n  mstore\n  shl(0xf8, 0x31)\n  swap1\n  dup3\n  add\n  mstore\n    /* \"UniswapV2ERC20.sol\":1091:1369  abi.encode(\r... */\n  dup2\n  mload\n    /* \"UniswapV2ERC20.sol\":1120:1215  keccak256('EIP712Domain(string name,string version,uint256 chainId,address verifyingContract)') */\n  0x8b73c3c69bb8fe3d512ecc4cf759cc79239f7b179b0ffacaa9a75d522b39400f\n    /* \"UniswapV2ERC20.sol\":1091:1369  abi.encode(\r... */\n  dup2\n  dup4\n  add\n  mstore\n    /* \"UniswapV2ERC20.sol\":1234:1256  keccak256(bytes(name)) */\n  0xe01890de54fb23aff50faf69a1fa17b47db6bd52c9c481f2e51abea09eb031e2\n    /* \"UniswapV2ERC20.sol\":1091:1369  abi.encode(\r... */\n  dup2\n  dup5\n  add\n  mstore\n    /* \"UniswapV2ERC20.sol\":1275:1296  keccak256(bytes('1')) */\n  0xc89efdaa54c0f20c7adf612882df0950f5a951637e0307cdcb4c672f298b8bc6\n    /* \"UniswapV2ERC20.sol\":1091:1369  abi.encode(\r... */\n  0x60\n  dup3\n  add\n  mstore\n    /* \"UniswapV2ERC20.sol\":1018:1027  chainid() */\n  chainid\n    /* \"UniswapV2ERC20.sol\":1091:1369  abi.encode(\r... */\n  0x80\n  dup3\n  add\n  mstore\n    /* \"UniswapV2ERC20.sol\":1349:1353  this */\n  address\n    /* \"UniswapV2ERC20.sol\":1091:1369  abi.encode(\r... */\n  0xa0\n  dup1\n  dup4\n  add\n  swap2\n  swap1\n  swap2\n  mstore\n  dup4\n  mload\n  dup1\n  dup4\n  sub\n  swap1\n  swap2\n  add\n  dup2\n  mstore\n  0xc0\n  swap1\n  swap2\n  add\n  swap1\n  swap3\n  mstore\n    /* \"UniswapV2ERC20.sol\":1067:1380  keccak256(\r... */\n  dup2\n  mload\n  swap2\n  add\n  keccak256\n    /* \"UniswapV2ERC20.sol\":1048:1064  DOMAIN_SEPARATOR */\n  0x03\n    /* \"UniswapV2ERC20.sol\":1048:1380  DOMAIN_SEPARATOR = keccak256(\r... */\n  sstore\n    /* \"UniswapV2Pair.sol\":2255:2262  factory */\n  0x05\n    /* \"UniswapV2Pair.sol\":2255:2275  factory = msg.sender */\n  dup1\n  sload\n  not(sub(shl(0xa0, 0x01), 0x01))\n  and\n    /* \"UniswapV2Pair.sol\":2265:2275  msg.sender */\n  caller\n    /* \"UniswapV2Pair.sol\":2255:2275  factory = msg.sender */\n  or\n  swap1\n  sstore\n  0x21d6\n  dup1\n    /* \"UniswapV2Pair.sol\":296:10166  contract UniswapV2Pair is UniswapV2ERC20 {\r... */\n  dataOffset(sub_0)\n  0x00\n  codecopy\n  0x00\n  return\nstop\n\nsub_0: assembly {\n        /* \"UniswapV2Pair.sol\":296:10166  contract UniswapV2Pair is UniswapV2ERC20 {\r... */\n      mstore(0x40, 0x80)\n      callvalue\n      dup1\n      iszero\n      tag_1\n      jumpi\n      0x00\n      dup1\n      revert\n    tag_1:\n      pop\n      jumpi(tag_2, lt(calldatasize, 0x04))\n      shr(0xe0, calldataload(0x00))\n      dup1\n      0x6a627842\n      gt\n      tag_30\n      jumpi\n      dup1\n      0xba9a7a56\n      gt\n      tag_31\n      jumpi\n      dup1\n      0xd21220a7\n      gt\n      tag_32\n      jumpi\n      dup1\n      0xd21220a7\n      eq\n      tag_26\n      jumpi\n      dup1\n      0xd505accf\n      eq\n      tag_27\n      jumpi\n      dup1\n      0xdd62ed3e\n      eq\n      tag_28\n      jumpi\n      dup1\n      0xfff6cae9\n      eq\n      tag_29\n      jumpi\n      jump(tag_2)\n    tag_32:\n      dup1\n      0xba9a7a56\n      eq\n      tag_23\n      jumpi\n      dup1\n      0xbc25cf77\n      eq\n      tag_24\n      jumpi\n      dup1\n      0xc45a0155\n      eq\n      tag_25\n      jumpi\n      jump(tag_2)\n    tag_31:\n      dup1\n      0x7ecebe00\n      gt\n      tag_33\n      jumpi\n      dup1\n      0x7ecebe00\n      eq\n      tag_19\n      jumpi\n      dup1\n      0x89afcb44\n      eq\n      tag_20\n      jumpi\n      dup1\n      0x95d89b41\n      eq\n      tag_21\n      jumpi\n      dup1\n      0xa9059cbb\n      eq\n      tag_22\n      jumpi\n      jump(tag_2)\n    tag_33:\n      dup1\n      0x6a627842\n      eq\n      tag_16\n      jumpi\n      dup1\n      0x70a08231\n      eq\n      tag_17\n      jumpi\n      dup1\n      0x7464fc3d\n      eq\n      tag_18\n      jumpi\n      jump(tag_2)\n    tag_30:\n      dup1\n      0x23b872dd\n      gt\n      tag_34\n      jumpi\n      dup1\n      0x3644e515\n      gt\n      tag_35\n      jumpi\n      dup1\n      0x3644e515\n      eq\n      tag_12\n      jumpi\n      dup1\n      0x485cc955\n      eq\n      tag_13\n      jumpi\n      dup1\n      0x5909c0d5\n      eq\n      tag_14\n      jumpi\n      dup1\n      0x5a3d5493\n      eq\n      tag_15\n      jumpi\n      jump(tag_2)\n    tag_35:\n      dup1\n      0x23b872dd\n      eq\n      tag_9\n      jumpi\n      dup1\n      0x30adf81f\n      eq\n      tag_10\n      jumpi\n      dup1\n      0x313ce567\n      eq\n      tag_11\n      jumpi\n      jump(tag_2)\n    tag_34:\n      dup1\n      0x022c0d9f\n      eq\n      tag_3\n      jumpi\n      dup1\n      0x06fdde03\n      eq\n      tag_4\n      jumpi\n      dup1\n      0x0902f1ac\n      eq\n      tag_5\n      jumpi\n      dup1\n      0x095ea7b3\n      eq\n      tag_6\n      jumpi\n      dup1\n      0x0dfe1681\n      eq\n      tag_7\n      jumpi\n      dup1\n      0x18160ddd\n      eq\n      tag_8\n      jumpi\n    tag_2:\n      0x00\n      dup1\n      revert\n        /* \"UniswapV2Pair.sol\":7457:9482  function swap(uint amount0Out, uint amount1Out, address to, bytes calldata data) external lock {\r... */\n    tag_3:\n      tag_36\n      0x04\n      dup1\n      calldatasize\n      sub\n      0x80\n      dup2\n      lt\n      iszero\n      tag_37\n      jumpi\n      0x00\n      dup1\n      revert\n    tag_37:\n      dup2\n      calldataload\n      swap2\n      0x20\n      dup2\n      add\n      calldataload\n      swap2\n      0x40\n      dup3\n      add\n      calldataload\n      sub(shl(0xa0, 0x01), 0x01)\n      and\n      swap2\n      swap1\n      dup2\n      add\n      swap1\n      0x80\n      dup2\n      add\n      0x60\n      dup3\n      add\n      calldataload\n      0x0100000000\n      dup2\n      gt\n      iszero\n      tag_38\n      jumpi\n      0x00\n      dup1\n      revert\n    tag_38:\n      dup3\n      add\n      dup4\n      0x20\n      dup3\n      add\n      gt\n      iszero\n      tag_39\n      jumpi\n      0x00\n      dup1\n      revert\n    tag_39:\n      dup1\n      calldataload\n      swap1\n      0x20\n      add\n      swap2\n      dup5\n      0x01\n      dup4\n      mul\n      dup5\n      add\n      gt\n      0x0100000000\n      dup4\n      gt\n      or\n      iszero\n      tag_40\n      jumpi\n      0x00\n      dup1\n      revert\n    tag_40:\n      pop\n      swap1\n      swap3\n      pop\n      swap1\n      pop\n      tag_41\n      jump\t// in\n    tag_36:\n      stop\n        /* \"UniswapV2ERC20.sol\":175:220  string public constant name = 'DONK LP Token' */\n    tag_4:\n      tag_42\n      tag_43\n      jump\t// in\n    tag_42:\n      0x40\n      dup1\n      mload\n      0x20\n      dup1\n      dup3\n      mstore\n      dup4\n      mload\n      dup2\n      dup4\n      add\n      mstore\n      dup4\n      mload\n      swap2\n      swap3\n      dup4\n      swap3\n      swap1\n      dup4\n      add\n      swap2\n      dup6\n      add\n      swap1\n      dup1\n      dup4\n      dup4\n      0x00\n    tag_44:\n      dup4\n      dup2\n      lt\n      iszero\n      tag_46\n      jumpi\n      dup2\n      dup2\n      add\n      mload\n      dup4\n      dup3\n      add\n      mstore\n      0x20\n      add\n      jump(tag_44)\n    tag_46:\n      pop\n      pop\n      pop\n      pop\n      swap1\n      pop\n      swap1\n      dup2\n      add\n      swap1\n      0x1f\n      and\n      dup1\n      iszero\n      tag_47\n      jumpi\n      dup1\n      dup3\n      sub\n      dup1\n      mload\n      0x01\n      dup4\n      0x20\n      sub\n      0x0100\n      exp\n      sub\n      not\n      and\n      dup2\n      mstore\n      0x20\n      add\n      swap2\n      pop\n    tag_47:\n      pop\n      swap3\n      pop\n      pop\n      pop\n      mload(0x40)\n      dup1\n      swap2\n      sub\n      swap1\n      return\n        /* \"UniswapV2Pair.sol\":1288:1519  function getReserves() public view returns (uint112 _reserve0, uint112 _reserve1, uint32 _blockTimestampLast) {\r... */\n    tag_5:\n      tag_48\n      tag_49\n      jump\t// in\n    tag_48:\n      0x40\n      dup1\n      mload\n      sub(shl(0x70, 0x01), 0x01)\n      swap5\n      dup6\n      and\n      dup2\n      mstore\n      swap3\n      swap1\n      swap4\n      and\n      0x20\n      dup4\n      add\n      mstore\n      0xffffffff\n      and\n      dup2\n      dup4\n      add\n      mstore\n      swap1\n      mload\n      swap1\n      dup2\n      swap1\n      sub\n      0x60\n      add\n      swap1\n      return\n        /* \"UniswapV2ERC20.sol\":2227:2374  function approve(address spender, uint value) external returns (bool) {\r... */\n    tag_6:\n      tag_50\n      0x04\n      dup1\n      calldatasize\n      sub\n      0x40\n      dup2\n      lt\n      iszero\n      tag_51\n      jumpi\n      0x00\n      dup1\n      revert\n    tag_51:\n      pop\n      dup1\n      calldataload\n      sub(shl(0xa0, 0x01), 0x01)\n      and\n      swap1\n      0x20\n      add\n      calldataload\n      tag_52\n      jump\t// in\n    tag_50:\n      0x40\n      dup1\n      mload\n      swap2\n      iszero\n      iszero\n      dup3\n      mstore\n      mload\n      swap1\n      dup2\n      swap1\n      sub\n      0x20\n      add\n      swap1\n      return\n        /* \"UniswapV2Pair.sol\":598:619  address public token0 */\n    tag_7:\n      tag_53\n      tag_54\n      jump\t// in\n    tag_53:\n      0x40\n      dup1\n      mload\n      0x01\n      dup1\n      0xa0\n      shl\n      sub\n      swap1\n      swap3\n      and\n      dup3\n      mstore\n      mload\n      swap1\n      dup2\n      swap1\n      sub\n      0x20\n      add\n      swap1\n      return\n        /* \"UniswapV2ERC20.sol\":317:340  uint public totalSupply */\n    tag_8:\n      tag_55\n      tag_56\n      jump\t// in\n    tag_55:\n      0x40\n      dup1\n      mload\n      swap2\n      dup3\n      mstore\n      mload\n      swap1\n      dup2\n      swap1\n      sub\n      0x20\n      add\n      swap1\n      return\n        /* \"UniswapV2ERC20.sol\":2529:2830  function transferFrom(address from, address to, uint value) external returns (bool) {\r... */\n    tag_9:\n      tag_50\n      0x04\n      dup1\n      calldatasize\n      sub\n      0x60\n      dup2\n      lt\n      iszero\n      tag_58\n      jumpi\n      0x00\n      dup1\n      revert\n    tag_58:\n      pop\n      sub(shl(0xa0, 0x01), 0x01)\n      dup2\n      calldataload\n      dup2\n      and\n      swap2\n      0x20\n      dup2\n      add\n      calldataload\n      swap1\n      swap2\n      and\n      swap1\n      0x40\n      add\n      calldataload\n      tag_59\n      jump\t// in\n        /* \"UniswapV2ERC20.sol\":608:716  bytes32 public constant PERMIT_TYPEHASH = 0x6e71edae12b1b97f4d1f60370fef10105fa2faae0126114a169c64845d6126c9 */\n    tag_10:\n      tag_55\n      tag_61\n      jump\t// in\n        /* \"UniswapV2ERC20.sol\":275:310  uint8 public constant decimals = 18 */\n    tag_11:\n      tag_62\n      tag_63\n      jump\t// in\n    tag_62:\n      0x40\n      dup1\n      mload\n      0xff\n      swap1\n      swap3\n      and\n      dup3\n      mstore\n      mload\n      swap1\n      dup2\n      swap1\n      sub\n      0x20\n      add\n      swap1\n      return\n        /* \"UniswapV2ERC20.sol\":465:496  bytes32 public DOMAIN_SEPARATOR */\n    tag_12:\n      tag_55\n      tag_65\n      jump\t// in\n        /* \"UniswapV2Pair.sol\":2348:2558  function initialize(address _token0, address _token1) external {\r... */\n    tag_13:\n      tag_36\n      0x04\n      dup1\n      calldatasize\n      sub\n      0x40\n      dup2\n      lt\n      iszero\n      tag_67\n      jumpi\n      0x00\n      dup1\n      revert\n    tag_67:\n      pop\n      sub(shl(0xa0, 0x01), 0x01)\n      dup2\n      calldataload\n      dup2\n      and\n      swap2\n      0x20\n      add\n      calldataload\n      and\n      tag_68\n      jump\t// in\n        /* \"UniswapV2Pair.sol\":928:960  uint public price0CumulativeLast */\n    tag_14:\n      tag_55\n      tag_70\n      jump\t// in\n        /* \"UniswapV2Pair.sol\":967:999  uint public price1CumulativeLast */\n    tag_15:\n      tag_55\n      tag_72\n      jump\t// in\n        /* \"UniswapV2Pair.sol\":4544:5800  function mint(address to) external lock returns (uint liquidity) {\r... */\n    tag_16:\n      tag_55\n      0x04\n      dup1\n      calldatasize\n      sub\n      0x20\n      dup2\n      lt\n      iszero\n      tag_74\n      jumpi\n      0x00\n      dup1\n      revert\n    tag_74:\n      pop\n      calldataload\n      sub(shl(0xa0, 0x01), 0x01)\n      and\n      tag_75\n      jump\t// in\n        /* \"UniswapV2ERC20.sol\":347:388  mapping(address => uint) public balanceOf */\n    tag_17:\n      tag_55\n      0x04\n      dup1\n      calldatasize\n      sub\n      0x20\n      dup2\n      lt\n      iszero\n      tag_77\n      jumpi\n      0x00\n      dup1\n      revert\n    tag_77:\n      pop\n      calldataload\n      sub(shl(0xa0, 0x01), 0x01)\n      and\n      tag_78\n      jump\t// in\n        /* \"UniswapV2Pair.sol\":1006:1023  uint public kLast */\n    tag_18:\n      tag_55\n      tag_80\n      jump\t// in\n        /* \"UniswapV2ERC20.sol\":723:761  mapping(address => uint) public nonces */\n    tag_19:\n      tag_55\n      0x04\n      dup1\n      calldatasize\n      sub\n      0x20\n      dup2\n      lt\n      iszero\n      tag_82\n      jumpi\n      0x00\n      dup1\n      revert\n    tag_82:\n      pop\n      calldataload\n      sub(shl(0xa0, 0x01), 0x01)\n      and\n      tag_83\n      jump\t// in\n        /* \"UniswapV2Pair.sol\":5912:7345  function burn(address to) external lock returns (uint amount0, uint amount1) {\r... */\n    tag_20:\n      tag_84\n      0x04\n      dup1\n      calldatasize\n      sub\n      0x20\n      dup2\n      lt\n      iszero\n      tag_85\n      jumpi\n      0x00\n      dup1\n      revert\n    tag_85:\n      pop\n      calldataload\n      sub(shl(0xa0, 0x01), 0x01)\n      and\n      tag_86\n      jump\t// in\n    tag_84:\n      0x40\n      dup1\n      mload\n      swap3\n      dup4\n      mstore\n      0x20\n      dup4\n      add\n      swap2\n      swap1\n      swap2\n      mstore\n      dup1\n      mload\n      swap2\n      dup3\n      swap1\n      sub\n      add\n      swap1\n      return\n        /* \"UniswapV2ERC20.sol\":227:268  string public constant symbol = 'DONK-LP' */\n    tag_21:\n      tag_42\n      tag_88\n      jump\t// in\n        /* \"UniswapV2ERC20.sol\":2382:2521  function transfer(address to, uint value) external returns (bool) {\r... */\n    tag_22:\n      tag_50\n      0x04\n      dup1\n      calldatasize\n      sub\n      0x40\n      dup2\n      lt\n      iszero\n      tag_94\n      jumpi\n      0x00\n      dup1\n      revert\n    tag_94:\n      pop\n      dup1\n      calldataload\n      sub(shl(0xa0, 0x01), 0x01)\n      and\n      swap1\n      0x20\n      add\n      calldataload\n      tag_95\n      jump\t// in\n        /* \"UniswapV2Pair.sol\":417:465  uint public constant MINIMUM_LIQUIDITY = 10 ** 3 */\n    tag_23:\n      tag_55\n      tag_97\n      jump\t// in\n        /* \"UniswapV2Pair.sol\":9531:9879  function skim(address to) external lock {\r... */\n    tag_24:\n      tag_36\n      0x04\n      dup1\n      calldatasize\n      sub\n      0x20\n      dup2\n      lt\n      iszero\n      tag_99\n      jumpi\n      0x00\n      dup1\n      revert\n    tag_99:\n      pop\n      calldataload\n      sub(shl(0xa0, 0x01), 0x01)\n      and\n      tag_100\n      jump\t// in\n        /* \"UniswapV2Pair.sol\":569:591  address public factory */\n    tag_25:\n      tag_53\n      tag_102\n      jump\t// in\n        /* \"UniswapV2Pair.sol\":626:647  address public token1 */\n    tag_26:\n      tag_53\n      tag_104\n      jump\t// in\n        /* \"UniswapV2ERC20.sol\":2838:3512  function permit(address owner, address spender, uint value, uint deadline, uint8 v, bytes32 r, bytes32 s) external {\r... */\n    tag_27:\n      tag_36\n      0x04\n      dup1\n      calldatasize\n      sub\n      0xe0\n      dup2\n      lt\n      iszero\n      tag_106\n      jumpi\n      0x00\n      dup1\n      revert\n    tag_106:\n      pop\n      sub(shl(0xa0, 0x01), 0x01)\n      dup2\n      calldataload\n      dup2\n      and\n      swap2\n      0x20\n      dup2\n      add\n      calldataload\n      swap1\n      swap2\n      and\n      swap1\n      0x40\n      dup2\n      add\n      calldataload\n      swap1\n      0x60\n      dup2\n      add\n      calldataload\n      swap1\n      0xff\n      0x80\n      dup3\n      add\n      calldataload\n      and\n      swap1\n      0xa0\n      dup2\n      add\n      calldataload\n      swap1\n      0xc0\n      add\n      calldataload\n      tag_107\n      jump\t// in\n        /* \"UniswapV2ERC20.sol\":395:456  mapping(address => mapping(address => uint)) public allowance */\n    tag_28:\n      tag_55\n      0x04\n      dup1\n      calldatasize\n      sub\n      0x40\n      dup2\n      lt\n      iszero\n      tag_109\n      jumpi\n      0x00\n      dup1\n      revert\n    tag_109:\n      pop\n      sub(shl(0xa0, 0x01), 0x01)\n      dup2\n      calldataload\n      dup2\n      and\n      swap2\n      0x20\n      add\n      calldataload\n      and\n      tag_110\n      jump\t// in\n        /* \"UniswapV2Pair.sol\":9928:10163  function sync() external lock {\r... */\n    tag_29:\n      tag_36\n      tag_112\n      jump\t// in\n        /* \"UniswapV2Pair.sol\":7457:9482  function swap(uint amount0Out, uint amount1Out, address to, bytes calldata data) external lock {\r... */\n    tag_41:\n        /* \"UniswapV2Pair.sol\":1179:1187  unlocked */\n      sload(0x0c)\n        /* \"UniswapV2Pair.sol\":1191:1192  1 */\n      0x01\n        /* \"UniswapV2Pair.sol\":1179:1192  unlocked == 1 */\n      eq\n        /* \"UniswapV2Pair.sol\":1171:1214  require(unlocked == 1, 'UniswapV2: LOCKED') */\n      tag_114\n      jumpi\n      0x40\n      dup1\n      mload\n      shl(0xe5, 0x461bcd)\n      dup2\n      mstore\n      0x20\n      0x04\n      dup3\n      add\n      mstore\n      0x11\n      0x24\n      dup3\n      add\n      mstore\n      shl(0x7a, 0x155b9a5cddd85c158c8e881313d0d2d151)\n      0x44\n      dup3\n      add\n      mstore\n      swap1\n      mload\n      swap1\n      dup2\n      swap1\n      sub\n      0x64\n      add\n      swap1\n      revert\n    tag_114:\n        /* \"UniswapV2Pair.sol\":1236:1237  0 */\n      0x00\n        /* \"UniswapV2Pair.sol\":1225:1233  unlocked */\n      0x0c\n        /* \"UniswapV2Pair.sol\":1225:1237  unlocked = 0 */\n      sstore\n        /* \"UniswapV2Pair.sol\":7571:7585  amount0Out > 0 */\n      dup5\n      iszero\n      iszero\n      dup1\n        /* \"UniswapV2Pair.sol\":7571:7603  amount0Out > 0 || amount1Out > 0 */\n      tag_116\n      jumpi\n      pop\n        /* \"UniswapV2Pair.sol\":7602:7603  0 */\n      0x00\n        /* \"UniswapV2Pair.sol\":7589:7599  amount1Out */\n      dup5\n        /* \"UniswapV2Pair.sol\":7589:7603  amount1Out > 0 */\n      gt\n        /* \"UniswapV2Pair.sol\":7571:7603  amount0Out > 0 || amount1Out > 0 */\n    tag_116:\n        /* \"UniswapV2Pair.sol\":7563:7645  require(amount0Out > 0 || amount1Out > 0, 'UniswapV2: INSUFFICIENT_OUTPUT_AMOUNT') */\n      tag_117\n      jumpi\n      mload(0x40)\n      shl(0xe5, 0x461bcd)\n      dup2\n      mstore\n      0x04\n      add\n      dup1\n      dup1\n      0x20\n      add\n      dup3\n      dup2\n      sub\n      dup3\n      mstore\n      0x25\n      dup2\n      mstore\n      0x20\n      add\n      dup1\n      data_05339493da7e2cbe77e17beadf6b91132eb307939495f5f1797bf88d95539e83\n      0x25\n      swap2\n      codecopy\n      0x40\n      add\n      swap2\n      pop\n      pop\n      mload(0x40)\n      dup1\n      swap2\n      sub\n      swap1\n      revert\n    tag_117:\n        /* \"UniswapV2Pair.sol\":7657:7674  uint112 _reserve0 */\n      0x00\n        /* \"UniswapV2Pair.sol\":7676:7693  uint112 _reserve1 */\n      dup1\n        /* \"UniswapV2Pair.sol\":7699:7712  getReserves() */\n      tag_118\n        /* \"UniswapV2Pair.sol\":7699:7710  getReserves */\n      tag_49\n        /* \"UniswapV2Pair.sol\":7699:7712  getReserves() */\n      jump\t// in\n    tag_118:\n      pop\n        /* \"UniswapV2Pair.sol\":7656:7712  (uint112 _reserve0, uint112 _reserve1, ) = getReserves() */\n      swap1\n      swap3\n      pop\n      swap1\n      pop\n      sub(shl(0x70, 0x01), 0x01)\n        /* \"UniswapV2Pair.sol\":7746:7768  amount0Out < _reserve0 */\n      dup3\n      and\n      dup8\n      lt\n        /* \"UniswapV2Pair.sol\":7746:7794  amount0Out < _reserve0 && amount1Out < _reserve1 */\n      dup1\n      iszero\n      tag_119\n      jumpi\n      pop\n      sub(shl(0x70, 0x01), 0x01)\n        /* \"UniswapV2Pair.sol\":7772:7794  amount1Out < _reserve1 */\n      dup2\n      and\n      dup7\n      lt\n        /* \"UniswapV2Pair.sol\":7746:7794  amount0Out < _reserve0 && amount1Out < _reserve1 */\n    tag_119:\n        /* \"UniswapV2Pair.sol\":7738:7832  require(amount0Out < _reserve0 && amount1Out < _reserve1, 'UniswapV2: INSUFFICIENT_LIQUIDITY') */\n      tag_120\n      jumpi\n      mload(0x40)\n      shl(0xe5, 0x461bcd)\n      dup2\n      mstore\n      0x04\n      add\n      dup1\n      dup1\n      0x20\n      add\n      dup3\n      dup2\n      sub\n      dup3\n      mstore\n      0x21\n      dup2\n      mstore\n      0x20\n      add\n      dup1\n      data_3f354ef449b2a9b081220ce21f57691008110b653edc191d8288e60cef58bb5f\n      0x21\n      swap2\n      codecopy\n      0x40\n      add\n      swap2\n      pop\n      pop\n      mload(0x40)\n      dup1\n      swap2\n      sub\n      swap1\n      revert\n    tag_120:\n        /* \"UniswapV2Pair.sol\":7994:8000  token0 */\n      sload(0x06)\n        /* \"UniswapV2Pair.sol\":8033:8039  token1 */\n      sload(0x07)\n        /* \"UniswapV2Pair.sol\":7845:7858  uint balance0 */\n      0x00\n      swap2\n      dup3\n      swap2\n      sub(shl(0xa0, 0x01), 0x01)\n        /* \"UniswapV2Pair.sol\":7994:8000  token0 */\n      swap2\n      dup3\n      and\n      swap2\n        /* \"UniswapV2Pair.sol\":8033:8039  token1 */\n      swap1\n      dup2\n      and\n      swap1\n        /* \"UniswapV2Pair.sol\":8062:8075  to != _token0 */\n      dup10\n      and\n      dup3\n      eq\n      dup1\n      iszero\n      swap1\n        /* \"UniswapV2Pair.sol\":8062:8092  to != _token0 && to != _token1 */\n      tag_121\n      jumpi\n      pop\n      sub(shl(0xa0, 0x01), 0x01)\n        /* \"UniswapV2Pair.sol\":8079:8092  to != _token1 */\n      dup10\n      dup2\n      and\n      swap1\n      dup3\n      and\n      eq\n      iszero\n        /* \"UniswapV2Pair.sol\":8062:8092  to != _token0 && to != _token1 */\n    tag_121:\n        /* \"UniswapV2Pair.sol\":8054:8118  require(to != _token0 && to != _token1, 'UniswapV2: INVALID_TO') */\n      tag_122\n      jumpi\n      0x40\n      dup1\n      mload\n      shl(0xe5, 0x461bcd)\n      dup2\n      mstore\n      0x20\n      0x04\n      dup3\n      add\n      mstore\n      0x15\n      0x24\n      dup3\n      add\n      mstore\n      shl(0x58, 0x556e697377617056323a20494e56414c49445f544f)\n      0x44\n      dup3\n      add\n      mstore\n      swap1\n      mload\n      swap1\n      dup2\n      swap1\n      sub\n      0x64\n      add\n      swap1\n      revert\n    tag_122:\n        /* \"UniswapV2Pair.sol\":8137:8151  amount0Out > 0 */\n      dup11\n      iszero\n        /* \"UniswapV2Pair.sol\":8133:8191  if (amount0Out > 0) _safeTransfer(_token0, to, amount0Out) */\n      tag_124\n      jumpi\n        /* \"UniswapV2Pair.sol\":8153:8191  _safeTransfer(_token0, to, amount0Out) */\n      tag_124\n        /* \"UniswapV2Pair.sol\":8167:8174  _token0 */\n      dup3\n        /* \"UniswapV2Pair.sol\":8176:8178  to */\n      dup11\n        /* \"UniswapV2Pair.sol\":8180:8190  amount0Out */\n      dup14\n        /* \"UniswapV2Pair.sol\":8153:8166  _safeTransfer */\n      tag_125\n        /* \"UniswapV2Pair.sol\":8153:8191  _safeTransfer(_token0, to, amount0Out) */\n      jump\t// in\n    tag_124:\n        /* \"UniswapV2Pair.sol\":8244:8258  amount1Out > 0 */\n      dup10\n      iszero\n        /* \"UniswapV2Pair.sol\":8240:8298  if (amount1Out > 0) _safeTransfer(_token1, to, amount1Out) */\n      tag_127\n      jumpi\n        /* \"UniswapV2Pair.sol\":8260:8298  _safeTransfer(_token1, to, amount1Out) */\n      tag_127\n        /* \"UniswapV2Pair.sol\":8274:8281  _token1 */\n      dup2\n        /* \"UniswapV2Pair.sol\":8283:8285  to */\n      dup11\n        /* \"UniswapV2Pair.sol\":8287:8297  amount1Out */\n      dup13\n        /* \"UniswapV2Pair.sol\":8260:8273  _safeTransfer */\n      tag_125\n        /* \"UniswapV2Pair.sol\":8260:8298  _safeTransfer(_token1, to, amount1Out) */\n      jump\t// in\n    tag_127:\n        /* \"UniswapV2Pair.sol\":8351:8366  data.length > 0 */\n      dup7\n      iszero\n        /* \"UniswapV2Pair.sol\":8347:8444  if (data.length > 0) IUniswapV2Callee(to).uniswapV2Call(msg.sender, amount0Out, amount1Out, data) */\n      tag_128\n      jumpi\n        /* \"UniswapV2Pair.sol\":8385:8387  to */\n      dup9\n      0x01\n      dup1\n      0xa0\n      shl\n      sub\n        /* \"UniswapV2Pair.sol\":8368:8402  IUniswapV2Callee(to).uniswapV2Call */\n      and\n      0x10d1e85c\n        /* \"UniswapV2Pair.sol\":8403:8413  msg.sender */\n      caller\n        /* \"UniswapV2Pair.sol\":8415:8425  amount0Out */\n      dup14\n        /* \"UniswapV2Pair.sol\":8427:8437  amount1Out */\n      dup14\n        /* \"UniswapV2Pair.sol\":8439:8443  data */\n      dup13\n      dup13\n        /* \"UniswapV2Pair.sol\":8368:8444  IUniswapV2Callee(to).uniswapV2Call(msg.sender, amount0Out, amount1Out, data) */\n      mload(0x40)\n      dup7\n      0xffffffff\n      and\n      0xe0\n      shl\n      dup2\n      mstore\n      0x04\n      add\n      dup1\n      dup7\n      0x01\n      dup1\n      0xa0\n      shl\n      sub\n      and\n      dup2\n      mstore\n      0x20\n      add\n      dup6\n      dup2\n      mstore\n      0x20\n      add\n      dup5\n      dup2\n      mstore\n      0x20\n      add\n      dup1\n      0x20\n      add\n      dup3\n      dup2\n      sub\n      dup3\n      mstore\n      dup5\n      dup5\n      dup3\n      dup2\n      dup2\n      mstore\n      0x20\n      add\n      swap3\n      pop\n      dup1\n      dup3\n      dup5\n      calldatacopy\n      0x00\n      dup2\n      dup5\n      add\n      mstore\n      not(0x1f)\n      0x1f\n      dup3\n      add\n      and\n      swap1\n      pop\n      dup1\n      dup4\n      add\n      swap3\n      pop\n      pop\n      pop\n      swap7\n      pop\n      pop\n      pop\n      pop\n      pop\n      pop\n      pop\n      0x00\n      mload(0x40)\n      dup1\n      dup4\n      sub\n      dup2\n      0x00\n      dup8\n      dup1\n      extcodesize\n      iszero\n      dup1\n      iszero\n      tag_129\n      jumpi\n      0x00\n      dup1\n      revert\n    tag_129:\n      pop\n      gas\n      call\n      iszero\n      dup1\n      iszero\n      tag_131\n      jumpi\n      returndatasize\n      0x00\n      dup1\n      returndatacopy\n      revert(0x00, returndatasize)\n    tag_131:\n      pop\n      pop\n      pop\n      pop\n        /* \"UniswapV2Pair.sol\":8347:8444  if (data.length > 0) IUniswapV2Callee(to).uniswapV2Call(msg.sender, amount0Out, amount1Out, data) */\n    tag_128:\n        /* \"UniswapV2Pair.sol\":8470:8517  IERC20Uniswap(_token0).balanceOf(address(this)) */\n      0x40\n      dup1\n      mload\n      shl(0xe0, 0x70a08231)\n      dup2\n      mstore\n        /* \"UniswapV2Pair.sol\":8511:8515  this */\n      address\n        /* \"UniswapV2Pair.sol\":8470:8517  IERC20Uniswap(_token0).balanceOf(address(this)) */\n      0x04\n      dup3\n      add\n      mstore\n      swap1\n      mload\n      sub(shl(0xa0, 0x01), 0x01)\n        /* \"UniswapV2Pair.sol\":8470:8502  IERC20Uniswap(_token0).balanceOf */\n      dup5\n      and\n      swap2\n      0x70a08231\n      swap2\n        /* \"UniswapV2Pair.sol\":8470:8517  IERC20Uniswap(_token0).balanceOf(address(this)) */\n      0x24\n      dup1\n      dup4\n      add\n      swap3\n      0x20\n      swap3\n      swap2\n      swap1\n      dup3\n      swap1\n      sub\n      add\n      dup2\n        /* \"UniswapV2Pair.sol\":8470:8502  IERC20Uniswap(_token0).balanceOf */\n      dup7\n        /* \"UniswapV2Pair.sol\":8470:8517  IERC20Uniswap(_token0).balanceOf(address(this)) */\n      dup1\n      extcodesize\n      iszero\n      dup1\n      iszero\n      tag_132\n      jumpi\n      0x00\n      dup1\n      revert\n    tag_132:\n      pop\n      gas\n      staticcall\n      iszero\n      dup1\n      iszero\n      tag_134\n      jumpi\n      returndatasize\n      0x00\n      dup1\n      returndatacopy\n      revert(0x00, returndatasize)\n    tag_134:\n      pop\n      pop\n      pop\n      pop\n      mload(0x40)\n      returndatasize\n      0x20\n      dup2\n      lt\n      iszero\n      tag_135\n      jumpi\n      0x00\n      dup1\n      revert\n    tag_135:\n      pop\n      mload\n        /* \"UniswapV2Pair.sol\":8543:8590  IERC20Uniswap(_token1).balanceOf(address(this)) */\n      0x40\n      dup1\n      mload\n      shl(0xe0, 0x70a08231)\n      dup2\n      mstore\n        /* \"UniswapV2Pair.sol\":8584:8588  this */\n      address\n        /* \"UniswapV2Pair.sol\":8543:8590  IERC20Uniswap(_token1).balanceOf(address(this)) */\n      0x04\n      dup3\n      add\n      mstore\n      swap1\n      mload\n        /* \"UniswapV2Pair.sol\":8470:8517  IERC20Uniswap(_token0).balanceOf(address(this)) */\n      swap2\n      swap6\n      pop\n      sub(shl(0xa0, 0x01), 0x01)\n        /* \"UniswapV2Pair.sol\":8543:8575  IERC20Uniswap(_token1).balanceOf */\n      dup4\n      and\n      swap2\n      0x70a08231\n      swap2\n        /* \"UniswapV2Pair.sol\":8543:8590  IERC20Uniswap(_token1).balanceOf(address(this)) */\n      0x24\n      dup1\n      dup3\n      add\n      swap3\n        /* \"UniswapV2Pair.sol\":8470:8517  IERC20Uniswap(_token0).balanceOf(address(this)) */\n      0x20\n      swap3\n        /* \"UniswapV2Pair.sol\":8543:8590  IERC20Uniswap(_token1).balanceOf(address(this)) */\n      swap1\n      swap2\n      swap1\n      dup3\n      swap1\n      sub\n      add\n      dup2\n        /* \"UniswapV2Pair.sol\":8543:8575  IERC20Uniswap(_token1).balanceOf */\n      dup7\n        /* \"UniswapV2Pair.sol\":8543:8590  IERC20Uniswap(_token1).balanceOf(address(this)) */\n      dup1\n      extcodesize\n      iszero\n      dup1\n      iszero\n      tag_136\n      jumpi\n      0x00\n      dup1\n      revert\n    tag_136:\n      pop\n      gas\n      staticcall\n      iszero\n      dup1\n      iszero\n      tag_138\n      jumpi\n      returndatasize\n      0x00\n      dup1\n      returndatacopy\n      revert(0x00, returndatasize)\n    tag_138:\n      pop\n      pop\n      pop\n      pop\n      mload(0x40)\n      returndatasize\n      0x20\n      dup2\n      lt\n      iszero\n      tag_139\n      jumpi\n      0x00\n      dup1\n      revert\n    tag_139:\n      pop\n      mload\n      swap3\n      pop\n        /* \"UniswapV2Pair.sol\":8612:8626  uint amount0In */\n      0x00\n      swap2\n      pop\n      pop\n      sub(shl(0x70, 0x01), 0x01)\n        /* \"UniswapV2Pair.sol\":8640:8662  _reserve0 - amount0Out */\n      dup6\n      and\n      dup11\n      swap1\n      sub\n        /* \"UniswapV2Pair.sol\":8629:8662  balance0 > _reserve0 - amount0Out */\n      dup4\n      gt\n        /* \"UniswapV2Pair.sol\":8629:8704  balance0 > _reserve0 - amount0Out ? balance0 - (_reserve0 - amount0Out) : 0 */\n      tag_140\n      jumpi\n        /* \"UniswapV2Pair.sol\":8703:8704  0 */\n      0x00\n        /* \"UniswapV2Pair.sol\":8629:8704  balance0 > _reserve0 - amount0Out ? balance0 - (_reserve0 - amount0Out) : 0 */\n      jump(tag_141)\n    tag_140:\n      sub(shl(0x70, 0x01), 0x01)\n        /* \"UniswapV2Pair.sol\":8677:8699  _reserve0 - amount0Out */\n      dup6\n      and\n      dup11\n      swap1\n      sub\n        /* \"UniswapV2Pair.sol\":8665:8700  balance0 - (_reserve0 - amount0Out) */\n      dup4\n      sub\n        /* \"UniswapV2Pair.sol\":8629:8704  balance0 > _reserve0 - amount0Out ? balance0 - (_reserve0 - amount0Out) : 0 */\n    tag_141:\n        /* \"UniswapV2Pair.sol\":8612:8704  uint amount0In = balance0 > _reserve0 - amount0Out ? balance0 - (_reserve0 - amount0Out) : 0 */\n      swap1\n      pop\n        /* \"UniswapV2Pair.sol\":8715:8729  uint amount1In */\n      0x00\n      sub(shl(0x70, 0x01), 0x01)\n        /* \"UniswapV2Pair.sol\":8743:8765  _reserve1 - amount1Out */\n      dup6\n      and\n      dup11\n      swap1\n      sub\n        /* \"UniswapV2Pair.sol\":8732:8765  balance1 > _reserve1 - amount1Out */\n      dup4\n      gt\n        /* \"UniswapV2Pair.sol\":8732:8807  balance1 > _reserve1 - amount1Out ? balance1 - (_reserve1 - amount1Out) : 0 */\n      tag_142\n      jumpi\n        /* \"UniswapV2Pair.sol\":8806:8807  0 */\n      0x00\n        /* \"UniswapV2Pair.sol\":8732:8807  balance1 > _reserve1 - amount1Out ? balance1 - (_reserve1 - amount1Out) : 0 */\n      jump(tag_143)\n    tag_142:\n      sub(shl(0x70, 0x01), 0x01)\n        /* \"UniswapV2Pair.sol\":8780:8802  _reserve1 - amount1Out */\n      dup6\n      and\n      dup11\n      swap1\n      sub\n        /* \"UniswapV2Pair.sol\":8768:8803  balance1 - (_reserve1 - amount1Out) */\n      dup4\n      sub\n        /* \"UniswapV2Pair.sol\":8732:8807  balance1 > _reserve1 - amount1Out ? balance1 - (_reserve1 - amount1Out) : 0 */\n    tag_143:\n        /* \"UniswapV2Pair.sol\":8715:8807  uint amount1In = balance1 > _reserve1 - amount1Out ? balance1 - (_reserve1 - amount1Out) : 0 */\n      swap1\n      pop\n        /* \"UniswapV2Pair.sol\":8838:8839  0 */\n      0x00\n        /* \"UniswapV2Pair.sol\":8826:8835  amount0In */\n      dup3\n        /* \"UniswapV2Pair.sol\":8826:8839  amount0In > 0 */\n      gt\n        /* \"UniswapV2Pair.sol\":8826:8856  amount0In > 0 || amount1In > 0 */\n      dup1\n      tag_144\n      jumpi\n      pop\n        /* \"UniswapV2Pair.sol\":8855:8856  0 */\n      0x00\n        /* \"UniswapV2Pair.sol\":8843:8852  amount1In */\n      dup2\n        /* \"UniswapV2Pair.sol\":8843:8856  amount1In > 0 */\n      gt\n        /* \"UniswapV2Pair.sol\":8826:8856  amount0In > 0 || amount1In > 0 */\n    tag_144:\n        /* \"UniswapV2Pair.sol\":8818:8897  require(amount0In > 0 || amount1In > 0, 'UniswapV2: INSUFFICIENT_INPUT_AMOUNT') */\n      tag_145\n      jumpi\n      mload(0x40)\n      shl(0xe5, 0x461bcd)\n      dup2\n      mstore\n      0x04\n      add\n      dup1\n      dup1\n      0x20\n      add\n      dup3\n      dup2\n      sub\n      dup3\n      mstore\n      0x24\n      dup2\n      mstore\n      0x20\n      add\n      dup1\n      data_10e2efc32d8a31d3b2c11a545b3ed09c2dbabc58ef6de4033929d0002e425b67\n      0x24\n      swap2\n      codecopy\n      0x40\n      add\n      swap2\n      pop\n      pop\n      mload(0x40)\n      dup1\n      swap2\n      sub\n      swap1\n      revert\n    tag_145:\n        /* \"UniswapV2Pair.sol\":9000:9021  uint balance0Adjusted */\n      0x00\n        /* \"UniswapV2Pair.sol\":9024:9064  balance0.mul(1000).sub(amount0In.mul(3)) */\n      tag_146\n        /* \"UniswapV2Pair.sol\":9047:9063  amount0In.mul(3) */\n      tag_147\n        /* \"UniswapV2Pair.sol\":9047:9056  amount0In */\n      dup5\n        /* \"UniswapV2Pair.sol\":9061:9062  3 */\n      0x03\n        /* \"UniswapV2Pair.sol\":9047:9060  amount0In.mul */\n      tag_148\n        /* \"UniswapV2Pair.sol\":9047:9063  amount0In.mul(3) */\n      jump\t// in\n    tag_147:\n        /* \"UniswapV2Pair.sol\":9024:9042  balance0.mul(1000) */\n      tag_149\n        /* \"UniswapV2Pair.sol\":9024:9032  balance0 */\n      dup8\n        /* \"UniswapV2Pair.sol\":9037:9041  1000 */\n      0x03e8\n        /* \"UniswapV2Pair.sol\":9024:9036  balance0.mul */\n      tag_148\n        /* \"UniswapV2Pair.sol\":9024:9042  balance0.mul(1000) */\n      jump\t// in\n    tag_149:\n        /* \"UniswapV2Pair.sol\":9024:9046  balance0.mul(1000).sub */\n      swap1\n      tag_150\n        /* \"UniswapV2Pair.sol\":9024:9064  balance0.mul(1000).sub(amount0In.mul(3)) */\n      jump\t// in\n    tag_146:\n        /* \"UniswapV2Pair.sol\":9000:9064  uint balance0Adjusted = balance0.mul(1000).sub(amount0In.mul(3)) */\n      swap1\n      pop\n        /* \"UniswapV2Pair.sol\":9079:9100  uint balance1Adjusted */\n      0x00\n        /* \"UniswapV2Pair.sol\":9103:9143  balance1.mul(1000).sub(amount1In.mul(3)) */\n      tag_151\n        /* \"UniswapV2Pair.sol\":9126:9142  amount1In.mul(3) */\n      tag_147\n        /* \"UniswapV2Pair.sol\":9126:9135  amount1In */\n      dup5\n        /* \"UniswapV2Pair.sol\":9140:9141  3 */\n      0x03\n        /* \"UniswapV2Pair.sol\":9126:9139  amount1In.mul */\n      tag_148\n        /* \"UniswapV2Pair.sol\":9126:9142  amount1In.mul(3) */\n      jump\t// in\n        /* \"UniswapV2Pair.sol\":9103:9143  balance1.mul(1000).sub(amount1In.mul(3)) */\n    tag_151:\n        /* \"UniswapV2Pair.sol\":9079:9143  uint balance1Adjusted = balance1.mul(1000).sub(amount1In.mul(3)) */\n      swap1\n      pop\n        /* \"UniswapV2Pair.sol\":9226:9271  uint(_reserve0).mul(_reserve1).mul(1000 ** 2) */\n      tag_154\n        /* \"UniswapV2Pair.sol\":9261:9270  1000 ** 2 */\n      0x0f4240\n        /* \"UniswapV2Pair.sol\":9226:9256  uint(_reserve0).mul(_reserve1) */\n      tag_155\n      sub(shl(0x70, 0x01), 0x01)\n        /* \"UniswapV2Pair.sol\":9226:9241  uint(_reserve0) */\n      dup12\n      dup2\n      and\n      swap1\n        /* \"UniswapV2Pair.sol\":9226:9256  uint(_reserve0).mul(_reserve1) */\n      dup12\n      and\n        /* \"UniswapV2Pair.sol\":9226:9245  uint(_reserve0).mul */\n      tag_148\n        /* \"UniswapV2Pair.sol\":9226:9256  uint(_reserve0).mul(_reserve1) */\n      jump\t// in\n    tag_155:\n        /* \"UniswapV2Pair.sol\":9226:9260  uint(_reserve0).mul(_reserve1).mul */\n      swap1\n      tag_148\n        /* \"UniswapV2Pair.sol\":9226:9271  uint(_reserve0).mul(_reserve1).mul(1000 ** 2) */\n      jump\t// in\n    tag_154:\n        /* \"UniswapV2Pair.sol\":9184:9222  balance0Adjusted.mul(balance1Adjusted) */\n      tag_156\n        /* \"UniswapV2Pair.sol\":9184:9200  balance0Adjusted */\n      dup4\n        /* \"UniswapV2Pair.sol\":9205:9221  balance1Adjusted */\n      dup4\n        /* \"UniswapV2Pair.sol\":9184:9204  balance0Adjusted.mul */\n      tag_148\n        /* \"UniswapV2Pair.sol\":9184:9222  balance0Adjusted.mul(balance1Adjusted) */\n      jump\t// in\n    tag_156:\n        /* \"UniswapV2Pair.sol\":9184:9271  balance0Adjusted.mul(balance1Adjusted) >= uint(_reserve0).mul(_reserve1).mul(1000 ** 2) */\n      lt\n      iszero\n        /* \"UniswapV2Pair.sol\":9158:9319  require(\r... */\n      tag_157\n      jumpi\n      0x40\n      dup1\n      mload\n      shl(0xe5, 0x461bcd)\n      dup2\n      mstore\n      0x20\n      0x04\n      dup3\n      add\n      mstore\n      0x0c\n      0x24\n      dup3\n      add\n      mstore\n      shl(0xa0, 0x556e697377617056323a204b)\n      0x44\n      dup3\n      add\n      mstore\n      swap1\n      mload\n      swap1\n      dup2\n      swap1\n      sub\n      0x64\n      add\n      swap1\n      revert\n    tag_157:\n        /* \"UniswapV2Pair.sol\":1248:1249  _ */\n      pop\n      pop\n        /* \"UniswapV2Pair.sol\":9343:9392  _update(balance0, balance1, _reserve0, _reserve1) */\n      tag_158\n        /* \"UniswapV2Pair.sol\":9351:9359  balance0 */\n      dup5\n        /* \"UniswapV2Pair.sol\":9361:9369  balance1 */\n      dup5\n        /* \"UniswapV2Pair.sol\":9371:9380  _reserve0 */\n      dup9\n        /* \"UniswapV2Pair.sol\":9382:9391  _reserve1 */\n      dup9\n        /* \"UniswapV2Pair.sol\":9343:9350  _update */\n      tag_159\n        /* \"UniswapV2Pair.sol\":9343:9392  _update(balance0, balance1, _reserve0, _reserve1) */\n      jump\t// in\n    tag_158:\n        /* \"UniswapV2Pair.sol\":9408:9474  Swap(msg.sender, amount0In, amount1In, amount0Out, amount1Out, to) */\n      0x40\n      dup1\n      mload\n      dup4\n      dup2\n      mstore\n      0x20\n      dup2\n      add\n      dup4\n      swap1\n      mstore\n      dup1\n      dup3\n      add\n      dup14\n      swap1\n      mstore\n      0x60\n      dup2\n      add\n      dup13\n      swap1\n      mstore\n      swap1\n      mload\n      sub(shl(0xa0, 0x01), 0x01)\n      dup12\n      and\n      swap2\n        /* \"UniswapV2Pair.sol\":9413:9423  msg.sender */\n      caller\n      swap2\n        /* \"UniswapV2Pair.sol\":9408:9474  Swap(msg.sender, amount0In, amount1In, amount0Out, amount1Out, to) */\n      0xd78ad95fa46c994b6551d0da85fc275fe613ce37657fb8d5e3d130840159d822\n      swap2\n      dup2\n      swap1\n      sub\n      0x80\n      add\n      swap1\n      log3\n      pop\n      pop\n        /* \"UniswapV2Pair.sol\":1271:1272  1 */\n      0x01\n        /* \"UniswapV2Pair.sol\":1260:1268  unlocked */\n      0x0c\n        /* \"UniswapV2Pair.sol\":1260:1272  unlocked = 1 */\n      sstore\n      pop\n      pop\n      pop\n      pop\n      pop\n      pop\n      pop\n      pop\n      pop\n        /* \"UniswapV2Pair.sol\":7457:9482  function swap(uint amount0Out, uint amount1Out, address to, bytes calldata data) external lock {\r... */\n      jump\t// out\n        /* \"UniswapV2ERC20.sol\":175:220  string public constant name = 'DONK LP Token' */\n    tag_43:\n      0x40\n      dup1\n      mload\n      dup1\n      dup3\n      add\n      swap1\n      swap2\n      mstore\n      0x0d\n      dup2\n      mstore\n      shl(0x99, 0x2227a725902628102a37b5b2b7)\n      0x20\n      dup3\n      add\n      mstore\n      dup2\n      jump\t// out\n        /* \"UniswapV2Pair.sol\":1288:1519  function getReserves() public view returns (uint112 _reserve0, uint112 _reserve1, uint32 _blockTimestampLast) {\r... */\n    tag_49:\n        /* \"UniswapV2Pair.sol\":1421:1429  reserve0 */\n      sload(0x08)\n      sub(shl(0x70, 0x01), 0x01)\n      dup1\n      dup3\n      and\n      swap3\n      shl(0x70, 0x01)\n        /* \"UniswapV2Pair.sol\":1452:1460  reserve1 */\n      dup4\n      div\n      swap1\n      swap2\n      and\n      swap2\n      shl(0xe0, 0x01)\n        /* \"UniswapV2Pair.sol\":1493:1511  blockTimestampLast */\n      swap1\n      div\n      0xffffffff\n      and\n      swap1\n        /* \"UniswapV2Pair.sol\":1288:1519  function getReserves() public view returns (uint112 _reserve0, uint112 _reserve1, uint32 _blockTimestampLast) {\r... */\n      jump\t// out\n        /* \"UniswapV2ERC20.sol\":2227:2374  function approve(address spender, uint value) external returns (bool) {\r... */\n    tag_52:\n        /* \"UniswapV2ERC20.sol\":2291:2295  bool */\n      0x00\n        /* \"UniswapV2ERC20.sol\":2308:2344  _approve(msg.sender, spender, value) */\n      tag_162\n        /* \"UniswapV2ERC20.sol\":2317:2327  msg.sender */\n      caller\n        /* \"UniswapV2ERC20.sol\":2329:2336  spender */\n      dup5\n        /* \"UniswapV2ERC20.sol\":2338:2343  value */\n      dup5\n        /* \"UniswapV2ERC20.sol\":2308:2316  _approve */\n      tag_163\n        /* \"UniswapV2ERC20.sol\":2308:2344  _approve(msg.sender, spender, value) */\n      jump\t// in\n    tag_162:\n      pop\n        /* \"UniswapV2ERC20.sol\":2362:2366  true */\n      0x01\n        /* \"UniswapV2ERC20.sol\":2227:2374  function approve(address spender, uint value) external returns (bool) {\r... */\n    tag_161:\n      swap3\n      swap2\n      pop\n      pop\n      jump\t// out\n        /* \"UniswapV2Pair.sol\":598:619  address public token0 */\n    tag_54:\n      and(sub(shl(0xa0, 0x01), 0x01), sload(0x06))\n      dup2\n      jump\t// out\n        /* \"UniswapV2ERC20.sol\":317:340  uint public totalSupply */\n    tag_56:\n      sload(0x00)\n      dup2\n      jump\t// out\n        /* \"UniswapV2ERC20.sol\":2529:2830  function transferFrom(address from, address to, uint value) external returns (bool) {\r... */\n    tag_59:\n      sub(shl(0xa0, 0x01), 0x01)\n        /* \"UniswapV2ERC20.sol\":2628:2643  allowance[from] */\n      dup4\n      and\n        /* \"UniswapV2ERC20.sol\":2607:2611  bool */\n      0x00\n        /* \"UniswapV2ERC20.sol\":2628:2643  allowance[from] */\n      swap1\n      dup2\n      mstore\n        /* \"UniswapV2ERC20.sol\":2628:2637  allowance */\n      0x02\n        /* \"UniswapV2ERC20.sol\":2628:2643  allowance[from] */\n      0x20\n      swap1\n      dup2\n      mstore\n      0x40\n      dup1\n      dup4\n      keccak256\n        /* \"UniswapV2ERC20.sol\":2644:2654  msg.sender */\n      caller\n        /* \"UniswapV2ERC20.sol\":2628:2655  allowance[from][msg.sender] */\n      dup5\n      mstore\n      swap1\n      swap2\n      mstore\n      dup2\n      keccak256\n      sload\n      not(0x00)\n        /* \"UniswapV2ERC20.sol\":2628:2667  allowance[from][msg.sender] != uint(-1) */\n      eq\n        /* \"UniswapV2ERC20.sol\":2624:2764  if (allowance[from][msg.sender] != uint(-1)) {\r... */\n      tag_165\n      jumpi\n      sub(shl(0xa0, 0x01), 0x01)\n        /* \"UniswapV2ERC20.sol\":2714:2729  allowance[from] */\n      dup5\n      and\n      0x00\n      swap1\n      dup2\n      mstore\n        /* \"UniswapV2ERC20.sol\":2714:2723  allowance */\n      0x02\n        /* \"UniswapV2ERC20.sol\":2714:2729  allowance[from] */\n      0x20\n      swap1\n      dup2\n      mstore\n      0x40\n      dup1\n      dup4\n      keccak256\n        /* \"UniswapV2ERC20.sol\":2730:2740  msg.sender */\n      caller\n        /* \"UniswapV2ERC20.sol\":2714:2741  allowance[from][msg.sender] */\n      dup5\n      mstore\n      swap1\n      swap2\n      mstore\n      swap1\n      keccak256\n      sload\n        /* \"UniswapV2ERC20.sol\":2714:2752  allowance[from][msg.sender].sub(value) */\n      tag_166\n      swap1\n        /* \"UniswapV2ERC20.sol\":2746:2751  value */\n      dup4\n        /* \"UniswapV2ERC20.sol\":2714:2745  allowance[from][msg.sender].sub */\n      tag_150\n        /* \"UniswapV2ERC20.sol\":2714:2752  allowance[from][msg.sender].sub(value) */\n      jump\t// in\n    tag_166:\n      sub(shl(0xa0, 0x01), 0x01)\n        /* \"UniswapV2ERC20.sol\":2684:2699  allowance[from] */\n      dup6\n      and\n      0x00\n      swap1\n      dup2\n      mstore\n        /* \"UniswapV2ERC20.sol\":2684:2693  allowance */\n      0x02\n        /* \"UniswapV2ERC20.sol\":2684:2699  allowance[from] */\n      0x20\n      swap1\n      dup2\n      mstore\n      0x40\n      dup1\n      dup4\n      keccak256\n        /* \"UniswapV2ERC20.sol\":2700:2710  msg.sender */\n      caller\n        /* \"UniswapV2ERC20.sol\":2684:2711  allowance[from][msg.sender] */\n      dup5\n      mstore\n      swap1\n      swap2\n      mstore\n      swap1\n      keccak256\n        /* \"UniswapV2ERC20.sol\":2684:2752  allowance[from][msg.sender] = allowance[from][msg.sender].sub(value) */\n      sstore\n        /* \"UniswapV2ERC20.sol\":2624:2764  if (allowance[from][msg.sender] != uint(-1)) {\r... */\n    tag_165:\n        /* \"UniswapV2ERC20.sol\":2774:2800  _transfer(from, to, value) */\n      tag_167\n        /* \"UniswapV2ERC20.sol\":2784:2788  from */\n      dup5\n        /* \"UniswapV2ERC20.sol\":2790:2792  to */\n      dup5\n        /* \"UniswapV2ERC20.sol\":2794:2799  value */\n      dup5\n        /* \"UniswapV2ERC20.sol\":2774:2783  _transfer */\n      tag_168\n        /* \"UniswapV2ERC20.sol\":2774:2800  _transfer(from, to, value) */\n      jump\t// in\n    tag_167:\n      pop\n        /* \"UniswapV2ERC20.sol\":2818:2822  true */\n      0x01\n        /* \"UniswapV2ERC20.sol\":2529:2830  function transferFrom(address from, address to, uint value) external returns (bool) {\r... */\n      swap4\n      swap3\n      pop\n      pop\n      pop\n      jump\t// out\n        /* \"UniswapV2ERC20.sol\":608:716  bytes32 public constant PERMIT_TYPEHASH = 0x6e71edae12b1b97f4d1f60370fef10105fa2faae0126114a169c64845d6126c9 */\n    tag_61:\n        /* \"UniswapV2ERC20.sol\":650:716  0x6e71edae12b1b97f4d1f60370fef10105fa2faae0126114a169c64845d6126c9 */\n      0x6e71edae12b1b97f4d1f60370fef10105fa2faae0126114a169c64845d6126c9\n        /* \"UniswapV2ERC20.sol\":608:716  bytes32 public constant PERMIT_TYPEHASH = 0x6e71edae12b1b97f4d1f60370fef10105fa2faae0126114a169c64845d6126c9 */\n      dup2\n      jump\t// out\n        /* \"UniswapV2ERC20.sol\":275:310  uint8 public constant decimals = 18 */\n    tag_63:\n        /* \"UniswapV2ERC20.sol\":308:310  18 */\n      0x12\n        /* \"UniswapV2ERC20.sol\":275:310  uint8 public constant decimals = 18 */\n      dup2\n      jump\t// out\n        /* \"UniswapV2ERC20.sol\":465:496  bytes32 public DOMAIN_SEPARATOR */\n    tag_65:\n      sload(0x03)\n      dup2\n      jump\t// out\n        /* \"UniswapV2Pair.sol\":2348:2558  function initialize(address _token0, address _token1) external {\r... */\n    tag_68:\n        /* \"UniswapV2Pair.sol\":2444:2451  factory */\n      and(sub(shl(0xa0, 0x01), 0x01), sload(0x05))\n        /* \"UniswapV2Pair.sol\":2430:2440  msg.sender */\n      caller\n        /* \"UniswapV2Pair.sol\":2430:2451  msg.sender == factory */\n      eq\n        /* \"UniswapV2Pair.sol\":2422:2476  require(msg.sender == factory, 'UniswapV2: FORBIDDEN') */\n      tag_170\n      jumpi\n      0x40\n      dup1\n      mload\n      shl(0xe5, 0x461bcd)\n      dup2\n      mstore\n      0x20\n      0x04\n      dup3\n      add\n      mstore\n      0x14\n      0x24\n      dup3\n      add\n      mstore\n      shl(0x61, 0x2ab734b9bbb0b82b191d102327a92124a22222a7)\n      0x44\n      dup3\n      add\n      mstore\n      swap1\n      mload\n      swap1\n      dup2\n      swap1\n      sub\n      0x64\n      add\n      swap1\n      revert\n    tag_170:\n        /* \"UniswapV2Pair.sol\":2507:2513  token0 */\n      0x06\n        /* \"UniswapV2Pair.sol\":2507:2523  token0 = _token0 */\n      dup1\n      sload\n      sub(shl(0xa0, 0x01), 0x01)\n      swap4\n      dup5\n      and\n      not(sub(shl(0xa0, 0x01), 0x01))\n      swap2\n      dup3\n      and\n      or\n      swap1\n      swap2\n      sstore\n        /* \"UniswapV2Pair.sol\":2534:2540  token1 */\n      0x07\n        /* \"UniswapV2Pair.sol\":2534:2550  token1 = _token1 */\n      dup1\n      sload\n      swap3\n      swap1\n      swap4\n      and\n      swap2\n      and\n      or\n      swap1\n      sstore\n        /* \"UniswapV2Pair.sol\":2348:2558  function initialize(address _token0, address _token1) external {\r... */\n      jump\t// out\n        /* \"UniswapV2Pair.sol\":928:960  uint public price0CumulativeLast */\n    tag_70:\n      sload(0x09)\n      dup2\n      jump\t// out\n        /* \"UniswapV2Pair.sol\":967:999  uint public price1CumulativeLast */\n    tag_72:\n      sload(0x0a)\n      dup2\n      jump\t// out\n        /* \"UniswapV2Pair.sol\":4544:5800  function mint(address to) external lock returns (uint liquidity) {\r... */\n    tag_75:\n        /* \"UniswapV2Pair.sol\":4593:4607  uint liquidity */\n      0x00\n        /* \"UniswapV2Pair.sol\":1179:1187  unlocked */\n      sload(0x0c)\n        /* \"UniswapV2Pair.sol\":1191:1192  1 */\n      0x01\n        /* \"UniswapV2Pair.sol\":1179:1192  unlocked == 1 */\n      eq\n        /* \"UniswapV2Pair.sol\":1171:1214  require(unlocked == 1, 'UniswapV2: LOCKED') */\n      tag_172\n      jumpi\n      0x40\n      dup1\n      mload\n      shl(0xe5, 0x461bcd)\n      dup2\n      mstore\n      0x20\n      0x04\n      dup3\n      add\n      mstore\n      0x11\n      0x24\n      dup3\n      add\n      mstore\n      shl(0x7a, 0x155b9a5cddd85c158c8e881313d0d2d151)\n      0x44\n      dup3\n      add\n      mstore\n      swap1\n      mload\n      swap1\n      dup2\n      swap1\n      sub\n      0x64\n      add\n      swap1\n      revert\n    tag_172:\n        /* \"UniswapV2Pair.sol\":1236:1237  0 */\n      0x00\n        /* \"UniswapV2Pair.sol\":1225:1233  unlocked */\n      0x0c\n        /* \"UniswapV2Pair.sol\":1225:1237  unlocked = 0 */\n      dup2\n      swap1\n      sstore\n        /* \"UniswapV2Pair.sol\":1236:1237  0 */\n      dup1\n        /* \"UniswapV2Pair.sol\":4663:4676  getReserves() */\n      tag_174\n        /* \"UniswapV2Pair.sol\":4663:4674  getReserves */\n      tag_49\n        /* \"UniswapV2Pair.sol\":4663:4676  getReserves() */\n      jump\t// in\n    tag_174:\n      pop\n        /* \"UniswapV2Pair.sol\":4732:4738  token0 */\n      sload(0x06)\n        /* \"UniswapV2Pair.sol\":4718:4764  IERC20Uniswap(token0).balanceOf(address(this)) */\n      0x40\n      dup1\n      mload\n      shl(0xe0, 0x70a08231)\n      dup2\n      mstore\n        /* \"UniswapV2Pair.sol\":4758:4762  this */\n      address\n        /* \"UniswapV2Pair.sol\":4718:4764  IERC20Uniswap(token0).balanceOf(address(this)) */\n      0x04\n      dup3\n      add\n      mstore\n      swap1\n      mload\n        /* \"UniswapV2Pair.sol\":4620:4676  (uint112 _reserve0, uint112 _reserve1, ) = getReserves() */\n      swap4\n      swap6\n      pop\n      swap2\n      swap4\n      pop\n      0x00\n      swap3\n      sub(shl(0xa0, 0x01), 0x01)\n        /* \"UniswapV2Pair.sol\":4732:4738  token0 */\n      swap1\n      swap2\n      and\n      swap2\n      0x70a08231\n      swap2\n        /* \"UniswapV2Pair.sol\":4718:4764  IERC20Uniswap(token0).balanceOf(address(this)) */\n      0x24\n      dup1\n      dup4\n      add\n      swap3\n      0x20\n      swap3\n      swap2\n      swap1\n      dup3\n      swap1\n      sub\n      add\n      dup2\n        /* \"UniswapV2Pair.sol\":4732:4738  token0 */\n      dup7\n        /* \"UniswapV2Pair.sol\":4718:4764  IERC20Uniswap(token0).balanceOf(address(this)) */\n      dup1\n      extcodesize\n      iszero\n      dup1\n      iszero\n      tag_175\n      jumpi\n      0x00\n      dup1\n      revert\n    tag_175:\n      pop\n      gas\n      staticcall\n      iszero\n      dup1\n      iszero\n      tag_177\n      jumpi\n      returndatasize\n      0x00\n      dup1\n      returndatacopy\n      revert(0x00, returndatasize)\n    tag_177:\n      pop\n      pop\n      pop\n      pop\n      mload(0x40)\n      returndatasize\n      0x20\n      dup2\n      lt\n      iszero\n      tag_178\n      jumpi\n      0x00\n      dup1\n      revert\n    tag_178:\n      pop\n      mload\n        /* \"UniswapV2Pair.sol\":4805:4811  token1 */\n      sload(0x07)\n        /* \"UniswapV2Pair.sol\":4791:4837  IERC20Uniswap(token1).balanceOf(address(this)) */\n      0x40\n      dup1\n      mload\n      shl(0xe0, 0x70a08231)\n      dup2\n      mstore\n        /* \"UniswapV2Pair.sol\":4831:4835  this */\n      address\n        /* \"UniswapV2Pair.sol\":4791:4837  IERC20Uniswap(token1).balanceOf(address(this)) */\n      0x04\n      dup3\n      add\n      mstore\n      swap1\n      mload\n        /* \"UniswapV2Pair.sol\":4718:4764  IERC20Uniswap(token0).balanceOf(address(this)) */\n      swap3\n      swap4\n      pop\n      0x00\n      swap3\n      sub(shl(0xa0, 0x01), 0x01)\n        /* \"UniswapV2Pair.sol\":4805:4811  token1 */\n      swap1\n      swap3\n      and\n      swap2\n      0x70a08231\n      swap2\n        /* \"UniswapV2Pair.sol\":4791:4837  IERC20Uniswap(token1).balanceOf(address(this)) */\n      0x24\n      dup1\n      dup3\n      add\n      swap3\n        /* \"UniswapV2Pair.sol\":4718:4764  IERC20Uniswap(token0).balanceOf(address(this)) */\n      0x20\n      swap3\n        /* \"UniswapV2Pair.sol\":4791:4837  IERC20Uniswap(token1).balanceOf(address(this)) */\n      swap1\n      swap2\n      swap1\n      dup3\n      swap1\n      sub\n      add\n      dup2\n        /* \"UniswapV2Pair.sol\":4805:4811  token1 */\n      dup7\n        /* \"UniswapV2Pair.sol\":4791:4837  IERC20Uniswap(token1).balanceOf(address(this)) */\n      dup1\n      extcodesize\n      iszero\n      dup1\n      iszero\n      tag_179\n      jumpi\n      0x00\n      dup1\n      revert\n    tag_179:\n      pop\n      gas\n      staticcall\n      iszero\n      dup1\n      iszero\n      tag_181\n      jumpi\n      returndatasize\n      0x00\n      dup1\n      returndatacopy\n      revert(0x00, returndatasize)\n    tag_181:\n      pop\n      pop\n      pop\n      pop\n      mload(0x40)\n      returndatasize\n      0x20\n      dup2\n      lt\n      iszero\n      tag_182\n      jumpi\n      0x00\n      dup1\n      revert\n    tag_182:\n      pop\n      mload\n      swap1\n      pop\n        /* \"UniswapV2Pair.sol\":4848:4860  uint amount0 */\n      0x00\n        /* \"UniswapV2Pair.sol\":4863:4886  balance0.sub(_reserve0) */\n      tag_183\n        /* \"UniswapV2Pair.sol\":4863:4871  balance0 */\n      dup4\n      sub(shl(0x70, 0x01), 0x01)\n        /* \"UniswapV2Pair.sol\":4863:4886  balance0.sub(_reserve0) */\n      dup8\n      and\n        /* \"UniswapV2Pair.sol\":4863:4875  balance0.sub */\n      tag_150\n        /* \"UniswapV2Pair.sol\":4863:4886  balance0.sub(_reserve0) */\n      jump\t// in\n    tag_183:\n        /* \"UniswapV2Pair.sol\":4848:4886  uint amount0 = balance0.sub(_reserve0) */\n      swap1\n      pop\n        /* \"UniswapV2Pair.sol\":4897:4909  uint amount1 */\n      0x00\n        /* \"UniswapV2Pair.sol\":4912:4935  balance1.sub(_reserve1) */\n      tag_184\n        /* \"UniswapV2Pair.sol\":4912:4920  balance1 */\n      dup4\n      sub(shl(0x70, 0x01), 0x01)\n        /* \"UniswapV2Pair.sol\":4912:4935  balance1.sub(_reserve1) */\n      dup8\n      and\n        /* \"UniswapV2Pair.sol\":4912:4924  balance1.sub */\n      tag_150\n        /* \"UniswapV2Pair.sol\":4912:4935  balance1.sub(_reserve1) */\n      jump\t// in\n    tag_184:\n        /* \"UniswapV2Pair.sol\":4897:4935  uint amount1 = balance1.sub(_reserve1) */\n      swap1\n      pop\n        /* \"UniswapV2Pair.sol\":4948:4958  bool feeOn */\n      0x00\n        /* \"UniswapV2Pair.sol\":4961:4991  _mintFee(_reserve0, _reserve1) */\n      tag_185\n        /* \"UniswapV2Pair.sol\":4970:4979  _reserve0 */\n      dup8\n        /* \"UniswapV2Pair.sol\":4981:4990  _reserve1 */\n      dup8\n        /* \"UniswapV2Pair.sol\":4961:4969  _mintFee */\n      tag_186\n        /* \"UniswapV2Pair.sol\":4961:4991  _mintFee(_reserve0, _reserve1) */\n      jump\t// in\n    tag_185:\n        /* \"UniswapV2Pair.sol\":5002:5019  uint _totalSupply */\n      0x00\n        /* \"UniswapV2Pair.sol\":5022:5033  totalSupply */\n      sload\n        /* \"UniswapV2Pair.sol\":4948:4991  bool feeOn = _mintFee(_reserve0, _reserve1) */\n      swap1\n      swap2\n      pop\n        /* \"UniswapV2Pair.sol\":5126:5143  _totalSupply == 0 */\n      dup1\n        /* \"UniswapV2Pair.sol\":5122:5475  if (_totalSupply == 0) {\r... */\n      tag_187\n      jumpi\n        /* \"UniswapV2Pair.sol\":5172:5226  Math.sqrt(amount0.mul(amount1)).sub(MINIMUM_LIQUIDITY) */\n      tag_188\n        /* \"UniswapV2Pair.sol\":458:465  10 ** 3 */\n      0x03e8\n        /* \"UniswapV2Pair.sol\":5172:5203  Math.sqrt(amount0.mul(amount1)) */\n      tag_149\n        /* \"UniswapV2Pair.sol\":5182:5202  amount0.mul(amount1) */\n      tag_190\n        /* \"UniswapV2Pair.sol\":5182:5189  amount0 */\n      dup8\n        /* \"UniswapV2Pair.sol\":5194:5201  amount1 */\n      dup8\n        /* \"UniswapV2Pair.sol\":5182:5193  amount0.mul */\n      tag_148\n        /* \"UniswapV2Pair.sol\":5182:5202  amount0.mul(amount1) */\n      jump\t// in\n    tag_190:\n        /* \"UniswapV2Pair.sol\":5172:5181  Math.sqrt */\n      tag_191\n        /* \"UniswapV2Pair.sol\":5172:5203  Math.sqrt(amount0.mul(amount1)) */\n      jump\t// in\n        /* \"UniswapV2Pair.sol\":5172:5226  Math.sqrt(amount0.mul(amount1)).sub(MINIMUM_LIQUIDITY) */\n    tag_188:\n        /* \"UniswapV2Pair.sol\":5160:5226  liquidity = Math.sqrt(amount0.mul(amount1)).sub(MINIMUM_LIQUIDITY) */\n      swap9\n      pop\n        /* \"UniswapV2Pair.sol\":5241:5277  _mint(address(0), MINIMUM_LIQUIDITY) */\n      tag_192\n        /* \"UniswapV2Pair.sol\":5255:5256  0 */\n      0x00\n        /* \"UniswapV2Pair.sol\":458:465  10 ** 3 */\n      0x03e8\n        /* \"UniswapV2Pair.sol\":5241:5246  _mint */\n      tag_193\n        /* \"UniswapV2Pair.sol\":5241:5277  _mint(address(0), MINIMUM_LIQUIDITY) */\n      jump\t// in\n    tag_192:\n        /* \"UniswapV2Pair.sol\":5122:5475  if (_totalSupply == 0) {\r... */\n      jump(tag_194)\n    tag_187:\n        /* \"UniswapV2Pair.sol\":5377:5463  Math.min(amount0.mul(_totalSupply) / _reserve0, amount1.mul(_totalSupply) / _reserve1) */\n      tag_195\n      sub(shl(0x70, 0x01), 0x01)\n        /* \"UniswapV2Pair.sol\":5386:5423  amount0.mul(_totalSupply) / _reserve0 */\n      dup10\n      and\n        /* \"UniswapV2Pair.sol\":5386:5411  amount0.mul(_totalSupply) */\n      tag_196\n        /* \"UniswapV2Pair.sol\":5386:5393  amount0 */\n      dup7\n        /* \"UniswapV2Pair.sol\":5398:5410  _totalSupply */\n      dup5\n        /* \"UniswapV2Pair.sol\":5386:5397  amount0.mul */\n      tag_148\n        /* \"UniswapV2Pair.sol\":5386:5411  amount0.mul(_totalSupply) */\n      jump\t// in\n    tag_196:\n        /* \"UniswapV2Pair.sol\":5386:5423  amount0.mul(_totalSupply) / _reserve0 */\n      dup2\n      tag_197\n      jumpi\n      invalid\n    tag_197:\n      div\n      sub(shl(0x70, 0x01), 0x01)\n        /* \"UniswapV2Pair.sol\":5425:5462  amount1.mul(_totalSupply) / _reserve1 */\n      dup10\n      and\n        /* \"UniswapV2Pair.sol\":5425:5450  amount1.mul(_totalSupply) */\n      tag_198\n        /* \"UniswapV2Pair.sol\":5425:5432  amount1 */\n      dup7\n        /* \"UniswapV2Pair.sol\":5437:5449  _totalSupply */\n      dup6\n        /* \"UniswapV2Pair.sol\":5425:5436  amount1.mul */\n      tag_148\n        /* \"UniswapV2Pair.sol\":5425:5450  amount1.mul(_totalSupply) */\n      jump\t// in\n    tag_198:\n        /* \"UniswapV2Pair.sol\":5425:5462  amount1.mul(_totalSupply) / _reserve1 */\n      dup2\n      tag_199\n      jumpi\n      invalid\n    tag_199:\n      div\n        /* \"UniswapV2Pair.sol\":5377:5385  Math.min */\n      tag_200\n        /* \"UniswapV2Pair.sol\":5377:5463  Math.min(amount0.mul(_totalSupply) / _reserve0, amount1.mul(_totalSupply) / _reserve1) */\n      jump\t// in\n    tag_195:\n        /* \"UniswapV2Pair.sol\":5365:5463  liquidity = Math.min(amount0.mul(_totalSupply) / _reserve0, amount1.mul(_totalSupply) / _reserve1) */\n      swap9\n      pop\n        /* \"UniswapV2Pair.sol\":5122:5475  if (_totalSupply == 0) {\r... */\n    tag_194:\n        /* \"UniswapV2Pair.sol\":5505:5506  0 */\n      0x00\n        /* \"UniswapV2Pair.sol\":5493:5502  liquidity */\n      dup10\n        /* \"UniswapV2Pair.sol\":5493:5506  liquidity > 0 */\n      gt\n        /* \"UniswapV2Pair.sol\":5485:5551  require(liquidity > 0, 'UniswapV2: INSUFFICIENT_LIQUIDITY_MINTED') */\n      tag_201\n      jumpi\n      mload(0x40)\n      shl(0xe5, 0x461bcd)\n      dup2\n      mstore\n      0x04\n      add\n      dup1\n      dup1\n      0x20\n      add\n      dup3\n      dup2\n      sub\n      dup3\n      mstore\n      0x28\n      dup2\n      mstore\n      0x20\n      add\n      dup1\n      data_6591c9f5bf1fefaad109b76a20e25c857b696080c952191f86220f001a83663e\n      0x28\n      swap2\n      codecopy\n      0x40\n      add\n      swap2\n      pop\n      pop\n      mload(0x40)\n      dup1\n      swap2\n      sub\n      swap1\n      revert\n    tag_201:\n        /* \"UniswapV2Pair.sol\":5562:5582  _mint(to, liquidity) */\n      tag_202\n        /* \"UniswapV2Pair.sol\":5568:5570  to */\n      dup11\n        /* \"UniswapV2Pair.sol\":5572:5581  liquidity */\n      dup11\n        /* \"UniswapV2Pair.sol\":5562:5567  _mint */\n      tag_193\n        /* \"UniswapV2Pair.sol\":5562:5582  _mint(to, liquidity) */\n      jump\t// in\n    tag_202:\n        /* \"UniswapV2Pair.sol\":5595:5644  _update(balance0, balance1, _reserve0, _reserve1) */\n      tag_203\n        /* \"UniswapV2Pair.sol\":5603:5611  balance0 */\n      dup7\n        /* \"UniswapV2Pair.sol\":5613:5621  balance1 */\n      dup7\n        /* \"UniswapV2Pair.sol\":5623:5632  _reserve0 */\n      dup11\n        /* \"UniswapV2Pair.sol\":5634:5643  _reserve1 */\n      dup11\n        /* \"UniswapV2Pair.sol\":5595:5602  _update */\n      tag_159\n        /* \"UniswapV2Pair.sol\":5595:5644  _update(balance0, balance1, _reserve0, _reserve1) */\n      jump\t// in\n    tag_203:\n        /* \"UniswapV2Pair.sol\":5659:5664  feeOn */\n      dup2\n        /* \"UniswapV2Pair.sol\":5655:5702  if (feeOn) kLast = uint(reserve0).mul(reserve1) */\n      iszero\n      tag_204\n      jumpi\n        /* \"UniswapV2Pair.sol\":5693:5701  reserve1 */\n      sload(0x08)\n        /* \"UniswapV2Pair.sol\":5674:5702  uint(reserve0).mul(reserve1) */\n      tag_205\n      swap1\n      sub(shl(0x70, 0x01), 0x01)\n        /* \"UniswapV2Pair.sol\":5679:5687  reserve0 */\n      dup1\n      dup3\n      and\n      swap2\n      shl(0x70, 0x01)\n        /* \"UniswapV2Pair.sol\":5693:5701  reserve1 */\n      swap1\n      div\n      and\n        /* \"UniswapV2Pair.sol\":5674:5692  uint(reserve0).mul */\n      tag_148\n        /* \"UniswapV2Pair.sol\":5674:5702  uint(reserve0).mul(reserve1) */\n      jump\t// in\n    tag_205:\n        /* \"UniswapV2Pair.sol\":5666:5671  kLast */\n      0x0b\n        /* \"UniswapV2Pair.sol\":5666:5702  kLast = uint(reserve0).mul(reserve1) */\n      sstore\n        /* \"UniswapV2Pair.sol\":5655:5702  if (feeOn) kLast = uint(reserve0).mul(reserve1) */\n    tag_204:\n        /* \"UniswapV2Pair.sol\":5758:5792  Mint(msg.sender, amount0, amount1) */\n      0x40\n      dup1\n      mload\n      dup6\n      dup2\n      mstore\n      0x20\n      dup2\n      add\n      dup6\n      swap1\n      mstore\n      dup2\n      mload\n        /* \"UniswapV2Pair.sol\":5763:5773  msg.sender */\n      caller\n      swap3\n        /* \"UniswapV2Pair.sol\":5758:5792  Mint(msg.sender, amount0, amount1) */\n      0x4c209b5fc8ad50758f13e2e1088ba56a560dff690a1c6fef26394f4c03821c4f\n      swap3\n      dup3\n      swap1\n      sub\n      add\n      swap1\n      log2\n      pop\n      pop\n        /* \"UniswapV2Pair.sol\":1271:1272  1 */\n      0x01\n        /* \"UniswapV2Pair.sol\":1260:1268  unlocked */\n      0x0c\n        /* \"UniswapV2Pair.sol\":1260:1272  unlocked = 1 */\n      sstore\n      pop\n        /* \"UniswapV2Pair.sol\":4544:5800  function mint(address to) external lock returns (uint liquidity) {\r... */\n      swap5\n      swap7\n      swap6\n      pop\n      pop\n      pop\n      pop\n      pop\n      pop\n      jump\t// out\n        /* \"UniswapV2ERC20.sol\":347:388  mapping(address => uint) public balanceOf */\n    tag_78:\n      mstore(0x20, 0x01)\n      0x00\n      swap1\n      dup2\n      mstore\n      0x40\n      swap1\n      keccak256\n      sload\n      dup2\n      jump\t// out\n        /* \"UniswapV2Pair.sol\":1006:1023  uint public kLast */\n    tag_80:\n      sload(0x0b)\n      dup2\n      jump\t// out\n        /* \"UniswapV2ERC20.sol\":723:761  mapping(address => uint) public nonces */\n    tag_83:\n      mstore(0x20, 0x04)\n      0x00\n      swap1\n      dup2\n      mstore\n      0x40\n      swap1\n      keccak256\n      sload\n      dup2\n      jump\t// out\n        /* \"UniswapV2Pair.sol\":5912:7345  function burn(address to) external lock returns (uint amount0, uint amount1) {\r... */\n    tag_86:\n        /* \"UniswapV2Pair.sol\":5961:5973  uint amount0 */\n      0x00\n        /* \"UniswapV2Pair.sol\":5975:5987  uint amount1 */\n      dup1\n        /* \"UniswapV2Pair.sol\":1179:1187  unlocked */\n      sload(0x0c)\n        /* \"UniswapV2Pair.sol\":1191:1192  1 */\n      0x01\n        /* \"UniswapV2Pair.sol\":1179:1192  unlocked == 1 */\n      eq\n        /* \"UniswapV2Pair.sol\":1171:1214  require(unlocked == 1, 'UniswapV2: LOCKED') */\n      tag_207\n      jumpi\n      0x40\n      dup1\n      mload\n      shl(0xe5, 0x461bcd)\n      dup2\n      mstore\n      0x20\n      0x04\n      dup3\n      add\n      mstore\n      0x11\n      0x24\n      dup3\n      add\n      mstore\n      shl(0x7a, 0x155b9a5cddd85c158c8e881313d0d2d151)\n      0x44\n      dup3\n      add\n      mstore\n      swap1\n      mload\n      swap1\n      dup2\n      swap1\n      sub\n      0x64\n      add\n      swap1\n      revert\n    tag_207:\n        /* \"UniswapV2Pair.sol\":1236:1237  0 */\n      0x00\n        /* \"UniswapV2Pair.sol\":1225:1233  unlocked */\n      0x0c\n        /* \"UniswapV2Pair.sol\":1225:1237  unlocked = 0 */\n      dup2\n      swap1\n      sstore\n        /* \"UniswapV2Pair.sol\":1236:1237  0 */\n      dup1\n        /* \"UniswapV2Pair.sol\":6043:6056  getReserves() */\n      tag_209\n        /* \"UniswapV2Pair.sol\":6043:6054  getReserves */\n      tag_49\n        /* \"UniswapV2Pair.sol\":6043:6056  getReserves() */\n      jump\t// in\n    tag_209:\n      pop\n        /* \"UniswapV2Pair.sol\":6100:6106  token0 */\n      sload(0x06)\n        /* \"UniswapV2Pair.sol\":6150:6156  token1 */\n      sload(0x07)\n        /* \"UniswapV2Pair.sol\":6198:6245  IERC20Uniswap(_token0).balanceOf(address(this)) */\n      0x40\n      dup1\n      mload\n      shl(0xe0, 0x70a08231)\n      dup2\n      mstore\n        /* \"UniswapV2Pair.sol\":6239:6243  this */\n      address\n        /* \"UniswapV2Pair.sol\":6198:6245  IERC20Uniswap(_token0).balanceOf(address(this)) */\n      0x04\n      dup3\n      add\n      mstore\n      swap1\n      mload\n        /* \"UniswapV2Pair.sol\":6000:6056  (uint112 _reserve0, uint112 _reserve1, ) = getReserves() */\n      swap5\n      swap7\n      pop\n      swap3\n      swap5\n      pop\n      sub(shl(0xa0, 0x01), 0x01)\n        /* \"UniswapV2Pair.sol\":6100:6106  token0 */\n      swap2\n      dup3\n      and\n      swap4\n        /* \"UniswapV2Pair.sol\":6150:6156  token1 */\n      swap2\n      and\n      swap2\n      0x00\n      swap2\n        /* \"UniswapV2Pair.sol\":6100:6106  token0 */\n      dup5\n      swap2\n      0x70a08231\n      swap2\n        /* \"UniswapV2Pair.sol\":6198:6245  IERC20Uniswap(_token0).balanceOf(address(this)) */\n      0x24\n      dup1\n      dup4\n      add\n      swap3\n      0x20\n      swap3\n      swap2\n      swap1\n      dup3\n      swap1\n      sub\n      add\n      dup2\n        /* \"UniswapV2Pair.sol\":6100:6106  token0 */\n      dup7\n        /* \"UniswapV2Pair.sol\":6198:6245  IERC20Uniswap(_token0).balanceOf(address(this)) */\n      dup1\n      extcodesize\n      iszero\n      dup1\n      iszero\n      tag_210\n      jumpi\n      0x00\n      dup1\n      revert\n    tag_210:\n      pop\n      gas\n      staticcall\n      iszero\n      dup1\n      iszero\n      tag_212\n      jumpi\n      returndatasize\n      0x00\n      dup1\n      returndatacopy\n      revert(0x00, returndatasize)\n    tag_212:\n      pop\n      pop\n      pop\n      pop\n      mload(0x40)\n      returndatasize\n      0x20\n      dup2\n      lt\n      iszero\n      tag_213\n      jumpi\n      0x00\n      dup1\n      revert\n    tag_213:\n      pop\n      mload\n        /* \"UniswapV2Pair.sol\":6272:6319  IERC20Uniswap(_token1).balanceOf(address(this)) */\n      0x40\n      dup1\n      mload\n      shl(0xe0, 0x70a08231)\n      dup2\n      mstore\n        /* \"UniswapV2Pair.sol\":6313:6317  this */\n      address\n        /* \"UniswapV2Pair.sol\":6272:6319  IERC20Uniswap(_token1).balanceOf(address(this)) */\n      0x04\n      dup3\n      add\n      mstore\n      swap1\n      mload\n        /* \"UniswapV2Pair.sol\":6198:6245  IERC20Uniswap(_token0).balanceOf(address(this)) */\n      swap2\n      swap3\n      pop\n      0x00\n      swap2\n      sub(shl(0xa0, 0x01), 0x01)\n        /* \"UniswapV2Pair.sol\":6272:6304  IERC20Uniswap(_token1).balanceOf */\n      dup6\n      and\n      swap2\n      0x70a08231\n      swap2\n        /* \"UniswapV2Pair.sol\":6272:6319  IERC20Uniswap(_token1).balanceOf(address(this)) */\n      0x24\n      dup1\n      dup4\n      add\n      swap3\n        /* \"UniswapV2Pair.sol\":6198:6245  IERC20Uniswap(_token0).balanceOf(address(this)) */\n      0x20\n      swap3\n        /* \"UniswapV2Pair.sol\":6272:6319  IERC20Uniswap(_token1).balanceOf(address(this)) */\n      swap2\n      swap1\n      dup3\n      swap1\n      sub\n      add\n      dup2\n        /* \"UniswapV2Pair.sol\":6272:6304  IERC20Uniswap(_token1).balanceOf */\n      dup7\n        /* \"UniswapV2Pair.sol\":6272:6319  IERC20Uniswap(_token1).balanceOf(address(this)) */\n      dup1\n      extcodesize\n      iszero\n      dup1\n      iszero\n      tag_214\n      jumpi\n      0x00\n      dup1\n      revert\n    tag_214:\n      pop\n      gas\n      staticcall\n      iszero\n      dup1\n      iszero\n      tag_216\n      jumpi\n      returndatasize\n      0x00\n      dup1\n      returndatacopy\n      revert(0x00, returndatasize)\n    tag_216:\n      pop\n      pop\n      pop\n      pop\n      mload(0x40)\n      returndatasize\n      0x20\n      dup2\n      lt\n      iszero\n      tag_217\n      jumpi\n      0x00\n      dup1\n      revert\n    tag_217:\n      pop\n      mload\n        /* \"UniswapV2Pair.sol\":6365:6369  this */\n      address\n        /* \"UniswapV2Pair.sol\":6330:6344  uint liquidity */\n      0x00\n        /* \"UniswapV2Pair.sol\":6347:6371  balanceOf[address(this)] */\n      swap1\n      dup2\n      mstore\n        /* \"UniswapV2Pair.sol\":6347:6356  balanceOf */\n      0x01\n        /* \"UniswapV2Pair.sol\":6272:6319  IERC20Uniswap(_token1).balanceOf(address(this)) */\n      0x20\n        /* \"UniswapV2Pair.sol\":6347:6371  balanceOf[address(this)] */\n      mstore\n      0x40\n      dup2\n      keccak256\n      sload\n        /* \"UniswapV2Pair.sol\":6272:6319  IERC20Uniswap(_token1).balanceOf(address(this)) */\n      swap2\n      swap3\n      pop\n        /* \"UniswapV2Pair.sol\":6397:6427  _mintFee(_reserve0, _reserve1) */\n      tag_218\n        /* \"UniswapV2Pair.sol\":6406:6415  _reserve0 */\n      dup9\n        /* \"UniswapV2Pair.sol\":6417:6426  _reserve1 */\n      dup9\n        /* \"UniswapV2Pair.sol\":6397:6405  _mintFee */\n      tag_186\n        /* \"UniswapV2Pair.sol\":6397:6427  _mintFee(_reserve0, _reserve1) */\n      jump\t// in\n    tag_218:\n        /* \"UniswapV2Pair.sol\":6438:6455  uint _totalSupply */\n      0x00\n        /* \"UniswapV2Pair.sol\":6458:6469  totalSupply */\n      sload\n        /* \"UniswapV2Pair.sol\":6384:6427  bool feeOn = _mintFee(_reserve0, _reserve1) */\n      swap1\n      swap2\n      pop\n        /* \"UniswapV2Pair.sol\":6458:6469  totalSupply */\n      dup1\n        /* \"UniswapV2Pair.sol\":6568:6591  liquidity.mul(balance0) */\n      tag_219\n        /* \"UniswapV2Pair.sol\":6568:6577  liquidity */\n      dup5\n        /* \"UniswapV2Pair.sol\":6582:6590  balance0 */\n      dup8\n        /* \"UniswapV2Pair.sol\":6568:6581  liquidity.mul */\n      tag_148\n        /* \"UniswapV2Pair.sol\":6568:6591  liquidity.mul(balance0) */\n      jump\t// in\n    tag_219:\n        /* \"UniswapV2Pair.sol\":6568:6606  liquidity.mul(balance0) / _totalSupply */\n      dup2\n      tag_220\n      jumpi\n      invalid\n    tag_220:\n      div\n      swap11\n      pop\n        /* \"UniswapV2Pair.sol\":6701:6713  _totalSupply */\n      dup1\n        /* \"UniswapV2Pair.sol\":6675:6698  liquidity.mul(balance1) */\n      tag_221\n        /* \"UniswapV2Pair.sol\":6675:6684  liquidity */\n      dup5\n        /* \"UniswapV2Pair.sol\":6689:6697  balance1 */\n      dup7\n        /* \"UniswapV2Pair.sol\":6675:6688  liquidity.mul */\n      tag_148\n        /* \"UniswapV2Pair.sol\":6675:6698  liquidity.mul(balance1) */\n      jump\t// in\n    tag_221:\n        /* \"UniswapV2Pair.sol\":6675:6713  liquidity.mul(balance1) / _totalSupply */\n      dup2\n      tag_222\n      jumpi\n      invalid\n    tag_222:\n      div\n        /* \"UniswapV2Pair.sol\":6665:6713  amount1 = liquidity.mul(balance1) / _totalSupply */\n      swap10\n      pop\n        /* \"UniswapV2Pair.sol\":6790:6791  0 */\n      0x00\n        /* \"UniswapV2Pair.sol\":6780:6787  amount0 */\n      dup12\n        /* \"UniswapV2Pair.sol\":6780:6791  amount0 > 0 */\n      gt\n        /* \"UniswapV2Pair.sol\":6780:6806  amount0 > 0 && amount1 > 0 */\n      dup1\n      iszero\n      tag_223\n      jumpi\n      pop\n        /* \"UniswapV2Pair.sol\":6805:6806  0 */\n      0x00\n        /* \"UniswapV2Pair.sol\":6795:6802  amount1 */\n      dup11\n        /* \"UniswapV2Pair.sol\":6795:6806  amount1 > 0 */\n      gt\n        /* \"UniswapV2Pair.sol\":6780:6806  amount0 > 0 && amount1 > 0 */\n    tag_223:\n        /* \"UniswapV2Pair.sol\":6772:6851  require(amount0 > 0 && amount1 > 0, 'UniswapV2: INSUFFICIENT_LIQUIDITY_BURNED') */\n      tag_224\n      jumpi\n      mload(0x40)\n      shl(0xe5, 0x461bcd)\n      dup2\n      mstore\n      0x04\n      add\n      dup1\n      dup1\n      0x20\n      add\n      dup3\n      dup2\n      sub\n      dup3\n      mstore\n      0x28\n      dup2\n      mstore\n      0x20\n      add\n      dup1\n      data_57ebfb4dd8b5082cdba0f23c17077e3b0ecb9782a51e0e9a15e9bc8c4b30c562\n      0x28\n      swap2\n      codecopy\n      0x40\n      add\n      swap2\n      pop\n      pop\n      mload(0x40)\n      dup1\n      swap2\n      sub\n      swap1\n      revert\n    tag_224:\n        /* \"UniswapV2Pair.sol\":6862:6893  _burn(address(this), liquidity) */\n      tag_225\n        /* \"UniswapV2Pair.sol\":6876:6880  this */\n      address\n        /* \"UniswapV2Pair.sol\":6883:6892  liquidity */\n      dup5\n        /* \"UniswapV2Pair.sol\":6862:6867  _burn */\n      tag_226\n        /* \"UniswapV2Pair.sol\":6862:6893  _burn(address(this), liquidity) */\n      jump\t// in\n    tag_225:\n        /* \"UniswapV2Pair.sol\":6904:6939  _safeTransfer(_token0, to, amount0) */\n      tag_227\n        /* \"UniswapV2Pair.sol\":6918:6925  _token0 */\n      dup8\n        /* \"UniswapV2Pair.sol\":6927:6929  to */\n      dup14\n        /* \"UniswapV2Pair.sol\":6931:6938  amount0 */\n      dup14\n        /* \"UniswapV2Pair.sol\":6904:6917  _safeTransfer */\n      tag_125\n        /* \"UniswapV2Pair.sol\":6904:6939  _safeTransfer(_token0, to, amount0) */\n      jump\t// in\n    tag_227:\n        /* \"UniswapV2Pair.sol\":6950:6985  _safeTransfer(_token1, to, amount1) */\n      tag_228\n        /* \"UniswapV2Pair.sol\":6964:6971  _token1 */\n      dup7\n        /* \"UniswapV2Pair.sol\":6973:6975  to */\n      dup14\n        /* \"UniswapV2Pair.sol\":6977:6984  amount1 */\n      dup13\n        /* \"UniswapV2Pair.sol\":6950:6963  _safeTransfer */\n      tag_125\n        /* \"UniswapV2Pair.sol\":6950:6985  _safeTransfer(_token1, to, amount1) */\n      jump\t// in\n    tag_228:\n        /* \"UniswapV2Pair.sol\":7007:7054  IERC20Uniswap(_token0).balanceOf(address(this)) */\n      0x40\n      dup1\n      mload\n      shl(0xe0, 0x70a08231)\n      dup2\n      mstore\n        /* \"UniswapV2Pair.sol\":7048:7052  this */\n      address\n        /* \"UniswapV2Pair.sol\":7007:7054  IERC20Uniswap(_token0).balanceOf(address(this)) */\n      0x04\n      dup3\n      add\n      mstore\n      swap1\n      mload\n      sub(shl(0xa0, 0x01), 0x01)\n        /* \"UniswapV2Pair.sol\":7007:7039  IERC20Uniswap(_token0).balanceOf */\n      dup10\n      and\n      swap2\n      0x70a08231\n      swap2\n        /* \"UniswapV2Pair.sol\":7007:7054  IERC20Uniswap(_token0).balanceOf(address(this)) */\n      0x24\n      dup1\n      dup4\n      add\n      swap3\n      0x20\n      swap3\n      swap2\n      swap1\n      dup3\n      swap1\n      sub\n      add\n      dup2\n        /* \"UniswapV2Pair.sol\":7007:7039  IERC20Uniswap(_token0).balanceOf */\n      dup7\n        /* \"UniswapV2Pair.sol\":7007:7054  IERC20Uniswap(_token0).balanceOf(address(this)) */\n      dup1\n      extcodesize\n      iszero\n      dup1\n      iszero\n      tag_229\n      jumpi\n      0x00\n      dup1\n      revert\n    tag_229:\n      pop\n      gas\n      staticcall\n      iszero\n      dup1\n      iszero\n      tag_231\n      jumpi\n      returndatasize\n      0x00\n      dup1\n      returndatacopy\n      revert(0x00, returndatasize)\n    tag_231:\n      pop\n      pop\n      pop\n      pop\n      mload(0x40)\n      returndatasize\n      0x20\n      dup2\n      lt\n      iszero\n      tag_232\n      jumpi\n      0x00\n      dup1\n      revert\n    tag_232:\n      pop\n      mload\n        /* \"UniswapV2Pair.sol\":7076:7123  IERC20Uniswap(_token1).balanceOf(address(this)) */\n      0x40\n      dup1\n      mload\n      shl(0xe0, 0x70a08231)\n      dup2\n      mstore\n        /* \"UniswapV2Pair.sol\":7117:7121  this */\n      address\n        /* \"UniswapV2Pair.sol\":7076:7123  IERC20Uniswap(_token1).balanceOf(address(this)) */\n      0x04\n      dup3\n      add\n      mstore\n      swap1\n      mload\n        /* \"UniswapV2Pair.sol\":7007:7054  IERC20Uniswap(_token0).balanceOf(address(this)) */\n      swap2\n      swap7\n      pop\n      sub(shl(0xa0, 0x01), 0x01)\n        /* \"UniswapV2Pair.sol\":7076:7108  IERC20Uniswap(_token1).balanceOf */\n      dup9\n      and\n      swap2\n      0x70a08231\n      swap2\n        /* \"UniswapV2Pair.sol\":7076:7123  IERC20Uniswap(_token1).balanceOf(address(this)) */\n      0x24\n      dup1\n      dup3\n      add\n      swap3\n        /* \"UniswapV2Pair.sol\":7007:7054  IERC20Uniswap(_token0).balanceOf(address(this)) */\n      0x20\n      swap3\n        /* \"UniswapV2Pair.sol\":7076:7123  IERC20Uniswap(_token1).balanceOf(address(this)) */\n      swap1\n      swap2\n      swap1\n      dup3\n      swap1\n      sub\n      add\n      dup2\n        /* \"UniswapV2Pair.sol\":7076:7108  IERC20Uniswap(_token1).balanceOf */\n      dup7\n        /* \"UniswapV2Pair.sol\":7076:7123  IERC20Uniswap(_token1).balanceOf(address(this)) */\n      dup1\n      extcodesize\n      iszero\n      dup1\n      iszero\n      tag_233\n      jumpi\n      0x00\n      dup1\n      revert\n    tag_233:\n      pop\n      gas\n      staticcall\n      iszero\n      dup1\n      iszero\n      tag_235\n      jumpi\n      returndatasize\n      0x00\n      dup1\n      returndatacopy\n      revert(0x00, returndatasize)\n    tag_235:\n      pop\n      pop\n      pop\n      pop\n      mload(0x40)\n      returndatasize\n      0x20\n      dup2\n      lt\n      iszero\n      tag_236\n      jumpi\n      0x00\n      dup1\n      revert\n    tag_236:\n      pop\n      mload\n      swap4\n      pop\n        /* \"UniswapV2Pair.sol\":7136:7185  _update(balance0, balance1, _reserve0, _reserve1) */\n      tag_237\n        /* \"UniswapV2Pair.sol\":7144:7152  balance0 */\n      dup6\n        /* \"UniswapV2Pair.sol\":7076:7123  IERC20Uniswap(_token1).balanceOf(address(this)) */\n      dup6\n        /* \"UniswapV2Pair.sol\":7164:7173  _reserve0 */\n      dup12\n        /* \"UniswapV2Pair.sol\":7175:7184  _reserve1 */\n      dup12\n        /* \"UniswapV2Pair.sol\":7136:7143  _update */\n      tag_159\n        /* \"UniswapV2Pair.sol\":7136:7185  _update(balance0, balance1, _reserve0, _reserve1) */\n      jump\t// in\n    tag_237:\n        /* \"UniswapV2Pair.sol\":7200:7205  feeOn */\n      dup2\n        /* \"UniswapV2Pair.sol\":7196:7243  if (feeOn) kLast = uint(reserve0).mul(reserve1) */\n      iszero\n      tag_238\n      jumpi\n        /* \"UniswapV2Pair.sol\":7234:7242  reserve1 */\n      sload(0x08)\n        /* \"UniswapV2Pair.sol\":7215:7243  uint(reserve0).mul(reserve1) */\n      tag_239\n      swap1\n      sub(shl(0x70, 0x01), 0x01)\n        /* \"UniswapV2Pair.sol\":7220:7228  reserve0 */\n      dup1\n      dup3\n      and\n      swap2\n      shl(0x70, 0x01)\n        /* \"UniswapV2Pair.sol\":7234:7242  reserve1 */\n      swap1\n      div\n      and\n        /* \"UniswapV2Pair.sol\":7215:7233  uint(reserve0).mul */\n      tag_148\n        /* \"UniswapV2Pair.sol\":7215:7243  uint(reserve0).mul(reserve1) */\n      jump\t// in\n    tag_239:\n        /* \"UniswapV2Pair.sol\":7207:7212  kLast */\n      0x0b\n        /* \"UniswapV2Pair.sol\":7207:7243  kLast = uint(reserve0).mul(reserve1) */\n      sstore\n        /* \"UniswapV2Pair.sol\":7196:7243  if (feeOn) kLast = uint(reserve0).mul(reserve1) */\n    tag_238:\n        /* \"UniswapV2Pair.sol\":7299:7337  Burn(msg.sender, amount0, amount1, to) */\n      0x40\n      dup1\n      mload\n      dup13\n      dup2\n      mstore\n      0x20\n      dup2\n      add\n      dup13\n      swap1\n      mstore\n      dup2\n      mload\n      sub(shl(0xa0, 0x01), 0x01)\n      dup16\n      and\n      swap3\n        /* \"UniswapV2Pair.sol\":7304:7314  msg.sender */\n      caller\n      swap3\n        /* \"UniswapV2Pair.sol\":7299:7337  Burn(msg.sender, amount0, amount1, to) */\n      0xdccd412f0b1252819cb1fd330b93224ca42612892bb3f4f789976e6d81936496\n      swap3\n      swap1\n      dup2\n      swap1\n      sub\n      swap1\n      swap2\n      add\n      swap1\n      log3\n        /* \"UniswapV2Pair.sol\":1248:1249  _ */\n      pop\n      pop\n      pop\n      pop\n      pop\n      pop\n      pop\n      pop\n      pop\n        /* \"UniswapV2Pair.sol\":1271:1272  1 */\n      0x01\n        /* \"UniswapV2Pair.sol\":1260:1268  unlocked */\n      0x0c\n        /* \"UniswapV2Pair.sol\":1260:1272  unlocked = 1 */\n      dup2\n      swap1\n      sstore\n      pop\n        /* \"UniswapV2Pair.sol\":5912:7345  function burn(address to) external lock returns (uint amount0, uint amount1) {\r... */\n      swap2\n      pop\n      swap2\n      jump\t// out\n        /* \"UniswapV2ERC20.sol\":227:268  string public constant symbol = 'DONK-LP' */\n    tag_88:\n      0x40\n      dup1\n      mload\n      dup1\n      dup3\n      add\n      swap1\n      swap2\n      mstore\n      0x07\n      dup2\n      mstore\n      shl(0xcc, 0x0444f4e4b2d4c5)\n      0x20\n      dup3\n      add\n      mstore\n      dup2\n      jump\t// out\n        /* \"UniswapV2ERC20.sol\":2382:2521  function transfer(address to, uint value) external returns (bool) {\r... */\n    tag_95:\n        /* \"UniswapV2ERC20.sol\":2442:2446  bool */\n      0x00\n        /* \"UniswapV2ERC20.sol\":2459:2491  _transfer(msg.sender, to, value) */\n      tag_162\n        /* \"UniswapV2ERC20.sol\":2469:2479  msg.sender */\n      caller\n        /* \"UniswapV2ERC20.sol\":2481:2483  to */\n      dup5\n        /* \"UniswapV2ERC20.sol\":2485:2490  value */\n      dup5\n        /* \"UniswapV2ERC20.sol\":2459:2468  _transfer */\n      tag_168\n        /* \"UniswapV2ERC20.sol\":2459:2491  _transfer(msg.sender, to, value) */\n      jump\t// in\n        /* \"UniswapV2Pair.sol\":417:465  uint public constant MINIMUM_LIQUIDITY = 10 ** 3 */\n    tag_97:\n        /* \"UniswapV2Pair.sol\":458:465  10 ** 3 */\n      0x03e8\n        /* \"UniswapV2Pair.sol\":417:465  uint public constant MINIMUM_LIQUIDITY = 10 ** 3 */\n      dup2\n      jump\t// out\n        /* \"UniswapV2Pair.sol\":9531:9879  function skim(address to) external lock {\r... */\n    tag_100:\n        /* \"UniswapV2Pair.sol\":1179:1187  unlocked */\n      sload(0x0c)\n        /* \"UniswapV2Pair.sol\":1191:1192  1 */\n      0x01\n        /* \"UniswapV2Pair.sol\":1179:1192  unlocked == 1 */\n      eq\n        /* \"UniswapV2Pair.sol\":1171:1214  require(unlocked == 1, 'UniswapV2: LOCKED') */\n      tag_243\n      jumpi\n      0x40\n      dup1\n      mload\n      shl(0xe5, 0x461bcd)\n      dup2\n      mstore\n      0x20\n      0x04\n      dup3\n      add\n      mstore\n      0x11\n      0x24\n      dup3\n      add\n      mstore\n      shl(0x7a, 0x155b9a5cddd85c158c8e881313d0d2d151)\n      0x44\n      dup3\n      add\n      mstore\n      swap1\n      mload\n      swap1\n      dup2\n      swap1\n      sub\n      0x64\n      add\n      swap1\n      revert\n    tag_243:\n        /* \"UniswapV2Pair.sol\":1236:1237  0 */\n      0x00\n        /* \"UniswapV2Pair.sol\":1225:1233  unlocked */\n      0x0c\n        /* \"UniswapV2Pair.sol\":1225:1237  unlocked = 0 */\n      sstore\n        /* \"UniswapV2Pair.sol\":9600:9606  token0 */\n      sload(0x06)\n        /* \"UniswapV2Pair.sol\":9650:9656  token1 */\n      sload(0x07)\n        /* \"UniswapV2Pair.sol\":9761:9769  reserve0 */\n      sload(0x08)\n        /* \"UniswapV2Pair.sol\":9709:9756  IERC20Uniswap(_token0).balanceOf(address(this)) */\n      0x40\n      dup1\n      mload\n      shl(0xe0, 0x70a08231)\n      dup2\n      mstore\n        /* \"UniswapV2Pair.sol\":9750:9754  this */\n      address\n        /* \"UniswapV2Pair.sol\":9709:9756  IERC20Uniswap(_token0).balanceOf(address(this)) */\n      0x04\n      dup3\n      add\n      mstore\n      swap1\n      mload\n      sub(shl(0xa0, 0x01), 0x01)\n        /* \"UniswapV2Pair.sol\":9600:9606  token0 */\n      swap5\n      dup6\n      and\n      swap5\n        /* \"UniswapV2Pair.sol\":9650:9656  token1 */\n      swap1\n      swap4\n      and\n      swap3\n        /* \"UniswapV2Pair.sol\":9682:9771  _safeTransfer(_token0, to, IERC20Uniswap(_token0).balanceOf(address(this)).sub(reserve0)) */\n      tag_245\n      swap3\n        /* \"UniswapV2Pair.sol\":9600:9606  token0 */\n      dup6\n      swap3\n        /* \"UniswapV2Pair.sol\":9705:9707  to */\n      dup8\n      swap3\n        /* \"UniswapV2Pair.sol\":9709:9770  IERC20Uniswap(_token0).balanceOf(address(this)).sub(reserve0) */\n      tag_246\n      swap3\n      sub(shl(0x70, 0x01), 0x01)\n        /* \"UniswapV2Pair.sol\":9761:9769  reserve0 */\n      and\n      swap2\n        /* \"UniswapV2Pair.sol\":9600:9606  token0 */\n      dup6\n      swap2\n      0x70a08231\n      swap2\n        /* \"UniswapV2Pair.sol\":9709:9756  IERC20Uniswap(_token0).balanceOf(address(this)) */\n      0x24\n      dup1\n      dup3\n      add\n      swap3\n      0x20\n      swap3\n      swap1\n      swap2\n      swap1\n      dup3\n      swap1\n      sub\n      add\n      dup2\n        /* \"UniswapV2Pair.sol\":9600:9606  token0 */\n      dup7\n        /* \"UniswapV2Pair.sol\":9709:9756  IERC20Uniswap(_token0).balanceOf(address(this)) */\n      dup1\n      extcodesize\n      iszero\n      dup1\n      iszero\n      tag_247\n      jumpi\n      0x00\n      dup1\n      revert\n    tag_247:\n      pop\n      gas\n      staticcall\n      iszero\n      dup1\n      iszero\n      tag_249\n      jumpi\n      returndatasize\n      0x00\n      dup1\n      returndatacopy\n      revert(0x00, returndatasize)\n    tag_249:\n      pop\n      pop\n      pop\n      pop\n      mload(0x40)\n      returndatasize\n      0x20\n      dup2\n      lt\n      iszero\n      tag_250\n      jumpi\n      0x00\n      dup1\n      revert\n    tag_250:\n      pop\n      mload\n      swap1\n        /* \"UniswapV2Pair.sol\":9709:9760  IERC20Uniswap(_token0).balanceOf(address(this)).sub */\n      tag_150\n        /* \"UniswapV2Pair.sol\":9709:9770  IERC20Uniswap(_token0).balanceOf(address(this)).sub(reserve0) */\n      jump\t// in\n    tag_246:\n        /* \"UniswapV2Pair.sol\":9682:9695  _safeTransfer */\n      tag_125\n        /* \"UniswapV2Pair.sol\":9682:9771  _safeTransfer(_token0, to, IERC20Uniswap(_token0).balanceOf(address(this)).sub(reserve0)) */\n      jump\t// in\n    tag_245:\n        /* \"UniswapV2Pair.sol\":9861:9869  reserve1 */\n      sload(0x08)\n        /* \"UniswapV2Pair.sol\":9809:9856  IERC20Uniswap(_token1).balanceOf(address(this)) */\n      0x40\n      dup1\n      mload\n      shl(0xe0, 0x70a08231)\n      dup2\n      mstore\n        /* \"UniswapV2Pair.sol\":9850:9854  this */\n      address\n        /* \"UniswapV2Pair.sol\":9809:9856  IERC20Uniswap(_token1).balanceOf(address(this)) */\n      0x04\n      dup3\n      add\n      mstore\n      swap1\n      mload\n        /* \"UniswapV2Pair.sol\":9782:9871  _safeTransfer(_token1, to, IERC20Uniswap(_token1).balanceOf(address(this)).sub(reserve1)) */\n      tag_251\n      swap3\n        /* \"UniswapV2Pair.sol\":9796:9803  _token1 */\n      dup5\n      swap3\n        /* \"UniswapV2Pair.sol\":9805:9807  to */\n      dup8\n      swap3\n        /* \"UniswapV2Pair.sol\":9809:9870  IERC20Uniswap(_token1).balanceOf(address(this)).sub(reserve1) */\n      tag_246\n      swap3\n      shl(0x70, 0x01)\n        /* \"UniswapV2Pair.sol\":9861:9869  reserve1 */\n      swap1\n      div\n      sub(shl(0x70, 0x01), 0x01)\n      and\n      swap2\n      sub(shl(0xa0, 0x01), 0x01)\n        /* \"UniswapV2Pair.sol\":9809:9841  IERC20Uniswap(_token1).balanceOf */\n      dup7\n      and\n      swap2\n      0x70a08231\n      swap2\n        /* \"UniswapV2Pair.sol\":9809:9856  IERC20Uniswap(_token1).balanceOf(address(this)) */\n      0x24\n      dup1\n      dup3\n      add\n      swap3\n      0x20\n      swap3\n      swap1\n      swap2\n      swap1\n      dup3\n      swap1\n      sub\n      add\n      dup2\n        /* \"UniswapV2Pair.sol\":9809:9841  IERC20Uniswap(_token1).balanceOf */\n      dup7\n        /* \"UniswapV2Pair.sol\":9809:9856  IERC20Uniswap(_token1).balanceOf(address(this)) */\n      dup1\n      extcodesize\n      iszero\n      dup1\n      iszero\n      tag_247\n      jumpi\n      0x00\n      dup1\n      revert\n        /* \"UniswapV2Pair.sol\":9782:9871  _safeTransfer(_token1, to, IERC20Uniswap(_token1).balanceOf(address(this)).sub(reserve1)) */\n    tag_251:\n      pop\n      pop\n        /* \"UniswapV2Pair.sol\":1271:1272  1 */\n      0x01\n        /* \"UniswapV2Pair.sol\":1260:1268  unlocked */\n      0x0c\n        /* \"UniswapV2Pair.sol\":1260:1272  unlocked = 1 */\n      sstore\n      pop\n        /* \"UniswapV2Pair.sol\":9531:9879  function skim(address to) external lock {\r... */\n      jump\t// out\n        /* \"UniswapV2Pair.sol\":569:591  address public factory */\n    tag_102:\n      and(sub(shl(0xa0, 0x01), 0x01), sload(0x05))\n      dup2\n      jump\t// out\n        /* \"UniswapV2Pair.sol\":626:647  address public token1 */\n    tag_104:\n      and(sub(shl(0xa0, 0x01), 0x01), sload(0x07))\n      dup2\n      jump\t// out\n        /* \"UniswapV2ERC20.sol\":2838:3512  function permit(address owner, address spender, uint value, uint deadline, uint8 v, bytes32 r, bytes32 s) external {\r... */\n    tag_107:\n        /* \"UniswapV2ERC20.sol\":2984:2999  block.timestamp */\n      timestamp\n        /* \"UniswapV2ERC20.sol\":2972:2980  deadline */\n      dup5\n        /* \"UniswapV2ERC20.sol\":2972:2999  deadline >= block.timestamp */\n      lt\n      iszero\n        /* \"UniswapV2ERC20.sol\":2964:3022  require(deadline >= block.timestamp, 'UniswapV2: EXPIRED') */\n      tag_258\n      jumpi\n      0x40\n      dup1\n      mload\n      shl(0xe5, 0x461bcd)\n      dup2\n      mstore\n      0x20\n      0x04\n      dup3\n      add\n      mstore\n      0x12\n      0x24\n      dup3\n      add\n      mstore\n      shl(0x72, 0x155b9a5cddd85c158c8e8811561412549151)\n      0x44\n      dup3\n      add\n      mstore\n      swap1\n      mload\n      swap1\n      dup2\n      swap1\n      sub\n      0x64\n      add\n      swap1\n      revert\n    tag_258:\n        /* \"UniswapV2ERC20.sol\":3138:3154  DOMAIN_SEPARATOR */\n      sload(0x03)\n      sub(shl(0xa0, 0x01), 0x01)\n        /* \"UniswapV2ERC20.sol\":3234:3247  nonces[owner] */\n      dup9\n      dup2\n      and\n        /* \"UniswapV2ERC20.sol\":3033:3047  bytes32 digest */\n      0x00\n        /* \"UniswapV2ERC20.sol\":3234:3247  nonces[owner] */\n      dup2\n      dup2\n      mstore\n        /* \"UniswapV2ERC20.sol\":3234:3240  nonces */\n      0x04\n        /* \"UniswapV2ERC20.sol\":3234:3247  nonces[owner] */\n      0x20\n      swap1\n      dup2\n      mstore\n      0x40\n      dup1\n      dup4\n      keccak256\n        /* \"UniswapV2ERC20.sol\":3234:3249  nonces[owner]++ */\n      dup1\n      sload\n      0x01\n      dup2\n      dup2\n      add\n      swap1\n      swap3\n      sstore\n        /* \"UniswapV2ERC20.sol\":3183:3260  abi.encode(PERMIT_TYPEHASH, owner, spender, value, nonces[owner]++, deadline) */\n      dup3\n      mload\n        /* \"UniswapV2ERC20.sol\":650:716  0x6e71edae12b1b97f4d1f60370fef10105fa2faae0126114a169c64845d6126c9 */\n      0x6e71edae12b1b97f4d1f60370fef10105fa2faae0126114a169c64845d6126c9\n        /* \"UniswapV2ERC20.sol\":3183:3260  abi.encode(PERMIT_TYPEHASH, owner, spender, value, nonces[owner]++, deadline) */\n      dup2\n      dup7\n      add\n      mstore\n      dup1\n      dup5\n      add\n      swap7\n      swap1\n      swap7\n      mstore\n      swap6\n      dup14\n      and\n      0x60\n      dup7\n      add\n      mstore\n      0x80\n      dup6\n      add\n      dup13\n      swap1\n      mstore\n      0xa0\n      dup6\n      add\n      swap6\n      swap1\n      swap6\n      mstore\n      0xc0\n      dup1\n      dup6\n      add\n      dup12\n      swap1\n      mstore\n      dup2\n      mload\n      dup1\n      dup7\n      sub\n      swap1\n      swap2\n      add\n      dup2\n      mstore\n      0xe0\n      dup6\n      add\n      dup3\n      mstore\n        /* \"UniswapV2ERC20.sol\":3173:3261  keccak256(abi.encode(PERMIT_TYPEHASH, owner, spender, value, nonces[owner]++, deadline)) */\n      dup1\n      mload\n      swap1\n      dup4\n      add\n      keccak256\n      shl(0xf0, 0x1901)\n        /* \"UniswapV2ERC20.sol\":3074:3276  abi.encodePacked(\r... */\n      0x0100\n      dup7\n      add\n      mstore\n      0x0102\n      dup6\n      add\n      swap7\n      swap1\n      swap7\n      mstore\n      0x0122\n      dup1\n      dup6\n      add\n      swap7\n      swap1\n      swap7\n      mstore\n      dup1\n      mload\n      dup1\n      dup6\n      sub\n      swap1\n      swap7\n      add\n      dup7\n      mstore\n      0x0142\n      dup5\n      add\n      dup1\n      dup3\n      mstore\n        /* \"UniswapV2ERC20.sol\":3050:3287  keccak256(\r... */\n      dup7\n      mload\n      swap7\n      dup4\n      add\n      swap7\n      swap1\n      swap7\n      keccak256\n        /* \"UniswapV2ERC20.sol\":3325:3351  ecrecover(digest, v, r, s) */\n      swap6\n      dup4\n      swap1\n      mstore\n      0x0162\n      dup5\n      add\n      dup1\n      dup3\n      mstore\n      dup7\n      swap1\n      mstore\n      0xff\n      dup10\n      and\n      0x0182\n      dup6\n      add\n      mstore\n      0x01a2\n      dup5\n      add\n      dup9\n      swap1\n      mstore\n      0x01c2\n      dup5\n      add\n      dup8\n      swap1\n      mstore\n      mload\n        /* \"UniswapV2ERC20.sol\":3033:3047  bytes32 digest */\n      swap2\n      swap4\n      swap3\n        /* \"UniswapV2ERC20.sol\":3325:3351  ecrecover(digest, v, r, s) */\n      0x01e2\n      dup1\n      dup3\n      add\n      swap4\n      not(0x1f)\n      dup2\n      add\n      swap3\n      dup2\n      swap1\n      sub\n      swap1\n      swap2\n      add\n      swap1\n      dup6\n      gas\n      staticcall\n      iszero\n      dup1\n      iszero\n      tag_260\n      jumpi\n      returndatasize\n      0x00\n      dup1\n      returndatacopy\n      revert(0x00, returndatasize)\n    tag_260:\n      pop\n      pop\n      mload(add(not(0x1f), mload(0x40)))\n      swap2\n      pop\n      pop\n      sub(shl(0xa0, 0x01), 0x01)\n        /* \"UniswapV2ERC20.sol\":3370:3400  recoveredAddress != address(0) */\n      dup2\n      and\n      iszero\n      dup1\n      iszero\n      swap1\n        /* \"UniswapV2ERC20.sol\":3370:3429  recoveredAddress != address(0) && recoveredAddress == owner */\n      tag_261\n      jumpi\n      pop\n      sub(shl(0xa0, 0x01), 0x01)\n        /* \"UniswapV2ERC20.sol\":3404:3429  recoveredAddress == owner */\n      dup2\n      dup2\n      and\n      swap1\n      dup11\n      and\n      eq\n        /* \"UniswapV2ERC20.sol\":3370:3429  recoveredAddress != address(0) && recoveredAddress == owner */\n    tag_261:\n        /* \"UniswapV2ERC20.sol\":3362:3462  require(recoveredAddress != address(0) && recoveredAddress == owner, 'UniswapV2: INVALID_SIGNATURE') */\n      tag_262\n      jumpi\n      0x40\n      dup1\n      mload\n      shl(0xe5, 0x461bcd)\n      dup2\n      mstore\n      0x20\n      0x04\n      dup3\n      add\n      mstore\n      0x1c\n      0x24\n      dup3\n      add\n      mstore\n      0x556e697377617056323a20494e56414c49445f5349474e415455524500000000\n      0x44\n      dup3\n      add\n      mstore\n      swap1\n      mload\n      swap1\n      dup2\n      swap1\n      sub\n      0x64\n      add\n      swap1\n      revert\n    tag_262:\n        /* \"UniswapV2ERC20.sol\":3473:3504  _approve(owner, spender, value) */\n      tag_263\n        /* \"UniswapV2ERC20.sol\":3482:3487  owner */\n      dup10\n        /* \"UniswapV2ERC20.sol\":3489:3496  spender */\n      dup10\n        /* \"UniswapV2ERC20.sol\":3498:3503  value */\n      dup10\n        /* \"UniswapV2ERC20.sol\":3473:3481  _approve */\n      tag_163\n        /* \"UniswapV2ERC20.sol\":3473:3504  _approve(owner, spender, value) */\n      jump\t// in\n    tag_263:\n        /* \"UniswapV2ERC20.sol\":2838:3512  function permit(address owner, address spender, uint value, uint deadline, uint8 v, bytes32 r, bytes32 s) external {\r... */\n      pop\n      pop\n      pop\n      pop\n      pop\n      pop\n      pop\n      pop\n      pop\n      jump\t// out\n        /* \"UniswapV2ERC20.sol\":395:456  mapping(address => mapping(address => uint)) public allowance */\n    tag_110:\n      0x02\n      0x20\n      swap1\n      dup2\n      mstore\n      0x00\n      swap3\n      dup4\n      mstore\n      0x40\n      dup1\n      dup5\n      keccak256\n      swap1\n      swap2\n      mstore\n      swap1\n      dup3\n      mstore\n      swap1\n      keccak256\n      sload\n      dup2\n      jump\t// out\n        /* \"UniswapV2Pair.sol\":9928:10163  function sync() external lock {\r... */\n    tag_112:\n        /* \"UniswapV2Pair.sol\":1179:1187  unlocked */\n      sload(0x0c)\n        /* \"UniswapV2Pair.sol\":1191:1192  1 */\n      0x01\n        /* \"UniswapV2Pair.sol\":1179:1192  unlocked == 1 */\n      eq\n        /* \"UniswapV2Pair.sol\":1171:1214  require(unlocked == 1, 'UniswapV2: LOCKED') */\n      tag_265\n      jumpi\n      0x40\n      dup1\n      mload\n      shl(0xe5, 0x461bcd)\n      dup2\n      mstore\n      0x20\n      0x04\n      dup3\n      add\n      mstore\n      0x11\n      0x24\n      dup3\n      add\n      mstore\n      shl(0x7a, 0x155b9a5cddd85c158c8e881313d0d2d151)\n      0x44\n      dup3\n      add\n      mstore\n      swap1\n      mload\n      swap1\n      dup2\n      swap1\n      sub\n      0x64\n      add\n      swap1\n      revert\n    tag_265:\n        /* \"UniswapV2Pair.sol\":1236:1237  0 */\n      0x00\n        /* \"UniswapV2Pair.sol\":1225:1233  unlocked */\n      0x0c\n        /* \"UniswapV2Pair.sol\":1225:1237  unlocked = 0 */\n      sstore\n        /* \"UniswapV2Pair.sol\":10005:10011  token0 */\n      sload(0x06)\n        /* \"UniswapV2Pair.sol\":9991:10037  IERC20Uniswap(token0).balanceOf(address(this)) */\n      0x40\n      dup1\n      mload\n      shl(0xe0, 0x70a08231)\n      dup2\n      mstore\n        /* \"UniswapV2Pair.sol\":10031:10035  this */\n      address\n        /* \"UniswapV2Pair.sol\":9991:10037  IERC20Uniswap(token0).balanceOf(address(this)) */\n      0x04\n      dup3\n      add\n      mstore\n      swap1\n      mload\n        /* \"UniswapV2Pair.sol\":9969:10155  _update(\r... */\n      tag_267\n      swap3\n      sub(shl(0xa0, 0x01), 0x01)\n        /* \"UniswapV2Pair.sol\":10005:10011  token0 */\n      and\n      swap2\n      0x70a08231\n      swap2\n        /* \"UniswapV2Pair.sol\":9991:10037  IERC20Uniswap(token0).balanceOf(address(this)) */\n      0x24\n      dup1\n      dup4\n      add\n      swap3\n      0x20\n      swap3\n      swap2\n      swap1\n      dup3\n      swap1\n      sub\n      add\n      dup2\n        /* \"UniswapV2Pair.sol\":10005:10011  token0 */\n      dup7\n        /* \"UniswapV2Pair.sol\":9991:10037  IERC20Uniswap(token0).balanceOf(address(this)) */\n      dup1\n      extcodesize\n      iszero\n      dup1\n      iszero\n      tag_268\n      jumpi\n      0x00\n      dup1\n      revert\n    tag_268:\n      pop\n      gas\n      staticcall\n      iszero\n      dup1\n      iszero\n      tag_270\n      jumpi\n      returndatasize\n      0x00\n      dup1\n      returndatacopy\n      revert(0x00, returndatasize)\n    tag_270:\n      pop\n      pop\n      pop\n      pop\n      mload(0x40)\n      returndatasize\n      0x20\n      dup2\n      lt\n      iszero\n      tag_271\n      jumpi\n      0x00\n      dup1\n      revert\n    tag_271:\n      pop\n      mload\n        /* \"UniswapV2Pair.sol\":10066:10072  token1 */\n      sload(0x07)\n        /* \"UniswapV2Pair.sol\":10052:10098  IERC20Uniswap(token1).balanceOf(address(this)) */\n      0x40\n      dup1\n      mload\n      shl(0xe0, 0x70a08231)\n      dup2\n      mstore\n        /* \"UniswapV2Pair.sol\":10092:10096  this */\n      address\n        /* \"UniswapV2Pair.sol\":10052:10098  IERC20Uniswap(token1).balanceOf(address(this)) */\n      0x04\n      dup3\n      add\n      mstore\n      swap1\n      mload\n      sub(shl(0xa0, 0x01), 0x01)\n        /* \"UniswapV2Pair.sol\":10066:10072  token1 */\n      swap1\n      swap3\n      and\n      swap2\n      0x70a08231\n      swap2\n        /* \"UniswapV2Pair.sol\":10052:10098  IERC20Uniswap(token1).balanceOf(address(this)) */\n      0x24\n      dup1\n      dup3\n      add\n      swap3\n        /* \"UniswapV2Pair.sol\":9991:10037  IERC20Uniswap(token0).balanceOf(address(this)) */\n      0x20\n      swap3\n        /* \"UniswapV2Pair.sol\":10052:10098  IERC20Uniswap(token1).balanceOf(address(this)) */\n      swap1\n      swap2\n      swap1\n      dup3\n      swap1\n      sub\n      add\n      dup2\n        /* \"UniswapV2Pair.sol\":10066:10072  token1 */\n      dup7\n        /* \"UniswapV2Pair.sol\":10052:10098  IERC20Uniswap(token1).balanceOf(address(this)) */\n      dup1\n      extcodesize\n      iszero\n      dup1\n      iszero\n      tag_272\n      jumpi\n      0x00\n      dup1\n      revert\n    tag_272:\n      pop\n      gas\n      staticcall\n      iszero\n      dup1\n      iszero\n      tag_274\n      jumpi\n      returndatasize\n      0x00\n      dup1\n      returndatacopy\n      revert(0x00, returndatasize)\n    tag_274:\n      pop\n      pop\n      pop\n      pop\n      mload(0x40)\n      returndatasize\n      0x20\n      dup2\n      lt\n      iszero\n      tag_275\n      jumpi\n      0x00\n      dup1\n      revert\n    tag_275:\n      pop\n      mload\n        /* \"UniswapV2Pair.sol\":10113:10121  reserve0 */\n      sload(0x08)\n      sub(shl(0x70, 0x01), 0x01)\n      dup1\n      dup3\n      and\n      swap2\n      shl(0x70, 0x01)\n        /* \"UniswapV2Pair.sol\":10136:10144  reserve1 */\n      swap1\n      div\n      and\n        /* \"UniswapV2Pair.sol\":9969:9976  _update */\n      tag_159\n        /* \"UniswapV2Pair.sol\":9969:10155  _update(\r... */\n      jump\t// in\n    tag_267:\n        /* \"UniswapV2Pair.sol\":1271:1272  1 */\n      0x01\n        /* \"UniswapV2Pair.sol\":1260:1268  unlocked */\n      0x0c\n        /* \"UniswapV2Pair.sol\":1260:1272  unlocked = 1 */\n      sstore\n        /* \"UniswapV2Pair.sol\":9928:10163  function sync() external lock {\r... */\n      jump\t// out\n        /* \"UniswapV2Pair.sol\":1527:1814  function _safeTransfer(address token, address to, uint value) private {\r... */\n    tag_125:\n        /* \"UniswapV2Pair.sol\":524:558  bytes('transfer(address,uint256)') */\n      0x40\n      dup1\n      mload\n      dup1\n      dup3\n      add\n      dup3\n      mstore\n      0x19\n      dup2\n      mstore\n      0x7472616e7366657228616464726573732c75696e743235362900000000000000\n      0x20\n      swap2\n      dup3\n      add\n      mstore\n        /* \"UniswapV2Pair.sol\":1655:1698  abi.encodeWithSelector(SELECTOR, to, value) */\n      dup2\n      mload\n      sub(shl(0xa0, 0x01), 0x01)\n      dup6\n      dup2\n      and\n      0x24\n      dup4\n      add\n      mstore\n      0x44\n      dup1\n      dup4\n      add\n      dup7\n      swap1\n      mstore\n      dup5\n      mload\n      dup1\n      dup5\n      sub\n      swap1\n      swap2\n      add\n      dup2\n      mstore\n      0x64\n      swap1\n      swap3\n      add\n      dup5\n      mstore\n      swap2\n      dup2\n      add\n      dup1\n      mload\n      sub(shl(0xe0, 0x01), 0x01)\n      and\n      shl(0xe0, 0xa9059cbb)\n      or\n      dup2\n      mstore\n        /* \"UniswapV2Pair.sol\":1644:1699  token.call(abi.encodeWithSelector(SELECTOR, to, value)) */\n      swap3\n      mload\n      dup2\n      mload\n      0x00\n      swap5\n        /* \"UniswapV2Pair.sol\":1623:1640  bytes memory data */\n      0x60\n      swap5\n        /* \"UniswapV2Pair.sol\":1644:1654  token.call */\n      dup10\n      and\n      swap4\n        /* \"UniswapV2Pair.sol\":1655:1698  abi.encodeWithSelector(SELECTOR, to, value) */\n      swap3\n        /* \"UniswapV2Pair.sol\":1644:1699  token.call(abi.encodeWithSelector(SELECTOR, to, value)) */\n      swap2\n      dup3\n      swap2\n        /* \"UniswapV2Pair.sol\":1655:1698  abi.encodeWithSelector(SELECTOR, to, value) */\n      swap1\n        /* \"UniswapV2Pair.sol\":1644:1699  token.call(abi.encodeWithSelector(SELECTOR, to, value)) */\n      dup1\n      dup4\n        /* \"UniswapV2Pair.sol\":1655:1698  abi.encodeWithSelector(SELECTOR, to, value) */\n      dup4\n        /* \"UniswapV2Pair.sol\":1644:1699  token.call(abi.encodeWithSelector(SELECTOR, to, value)) */\n    tag_277:\n      0x20\n      dup4\n      lt\n      tag_279\n      jumpi\n      dup1\n      mload\n      dup3\n      mstore\n      not(0x1f)\n      swap1\n      swap3\n      add\n      swap2\n      0x20\n      swap2\n      dup3\n      add\n      swap2\n      add\n      jump(tag_277)\n    tag_279:\n      0x01\n      dup4\n      0x20\n      sub\n      0x0100\n      exp\n      sub\n      dup1\n      not\n      dup3\n      mload\n      and\n      dup2\n      dup5\n      mload\n      and\n      dup1\n      dup3\n      or\n      dup6\n      mstore\n      pop\n      pop\n      pop\n      pop\n      pop\n      pop\n      swap1\n      pop\n      add\n      swap2\n      pop\n      pop\n      0x00\n      mload(0x40)\n      dup1\n      dup4\n      sub\n      dup2\n      0x00\n      dup7\n      gas\n      call\n      swap2\n      pop\n      pop\n      returndatasize\n      dup1\n      0x00\n      dup2\n      eq\n      tag_282\n      jumpi\n      mload(0x40)\n      swap2\n      pop\n      and(add(returndatasize, 0x3f), not(0x1f))\n      dup3\n      add\n      0x40\n      mstore\n      returndatasize\n      dup3\n      mstore\n      returndatasize\n      0x00\n      0x20\n      dup5\n      add\n      returndatacopy\n      jump(tag_281)\n    tag_282:\n      0x60\n      swap2\n      pop\n    tag_281:\n      pop\n        /* \"UniswapV2Pair.sol\":1608:1699  (bool success, bytes memory data) = token.call(abi.encodeWithSelector(SELECTOR, to, value)) */\n      swap2\n      pop\n      swap2\n      pop\n        /* \"UniswapV2Pair.sol\":1718:1725  success */\n      dup2\n        /* \"UniswapV2Pair.sol\":1718:1775  success && (data.length == 0 || abi.decode(data, (bool))) */\n      dup1\n      iszero\n      tag_284\n      jumpi\n      pop\n        /* \"UniswapV2Pair.sol\":1730:1741  data.length */\n      dup1\n      mload\n        /* \"UniswapV2Pair.sol\":1730:1746  data.length == 0 */\n      iszero\n      dup1\n        /* \"UniswapV2Pair.sol\":1730:1774  data.length == 0 || abi.decode(data, (bool)) */\n      tag_284\n      jumpi\n      pop\n        /* \"UniswapV2Pair.sol\":1761:1765  data */\n      dup1\n        /* \"UniswapV2Pair.sol\":1750:1774  abi.decode(data, (bool)) */\n      dup1\n      0x20\n      add\n      swap1\n      mload\n      0x20\n      dup2\n      lt\n      iszero\n      tag_285\n      jumpi\n      0x00\n      dup1\n      revert\n    tag_285:\n      pop\n      mload\n        /* \"UniswapV2Pair.sol\":1730:1774  data.length == 0 || abi.decode(data, (bool)) */\n    tag_284:\n        /* \"UniswapV2Pair.sol\":1710:1806  require(success && (data.length == 0 || abi.decode(data, (bool))), 'UniswapV2: TRANSFER_FAILED') */\n      tag_286\n      jumpi\n      0x40\n      dup1\n      mload\n      shl(0xe5, 0x461bcd)\n      dup2\n      mstore\n      0x20\n      0x04\n      dup3\n      add\n      mstore\n      0x1a\n      0x24\n      dup3\n      add\n      mstore\n      0x556e697377617056323a205452414e534645525f4641494c4544000000000000\n      0x44\n      dup3\n      add\n      mstore\n      swap1\n      mload\n      swap1\n      dup2\n      swap1\n      sub\n      0x64\n      add\n      swap1\n      revert\n    tag_286:\n        /* \"UniswapV2Pair.sol\":1527:1814  function _safeTransfer(address token, address to, uint value) private {\r... */\n      pop\n      pop\n      pop\n      pop\n      pop\n      jump\t// out\n        /* \"libraries/SafeMath.sol\":479:621  function mul(uint x, uint y) internal pure returns (uint z) {\r... */\n    tag_148:\n        /* \"libraries/SafeMath.sol\":531:537  uint z */\n      0x00\n        /* \"libraries/SafeMath.sol\":558:564  y == 0 */\n      dup2\n      iszero\n      dup1\n        /* \"libraries/SafeMath.sol\":558:588  y == 0 || (z = x * y) / y == x */\n      tag_288\n      jumpi\n      pop\n      pop\n        /* \"libraries/SafeMath.sol\":573:578  x * y */\n      dup1\n      dup3\n      mul\n        /* \"libraries/SafeMath.sol\":587:588  x */\n      dup3\n        /* \"libraries/SafeMath.sol\":582:583  y */\n      dup3\n        /* \"libraries/SafeMath.sol\":573:578  x * y */\n      dup3\n        /* \"libraries/SafeMath.sol\":582:583  y */\n      dup2\n        /* \"libraries/SafeMath.sol\":568:583  (z = x * y) / y */\n      tag_289\n      jumpi\n      invalid\n    tag_289:\n      div\n        /* \"libraries/SafeMath.sol\":568:588  (z = x * y) / y == x */\n      eq\n        /* \"libraries/SafeMath.sol\":558:588  y == 0 || (z = x * y) / y == x */\n    tag_288:\n        /* \"libraries/SafeMath.sol\":550:613  require(y == 0 || (z = x * y) / y == x, 'ds-math-mul-overflow') */\n      tag_161\n      jumpi\n      0x40\n      dup1\n      mload\n      shl(0xe5, 0x461bcd)\n      dup2\n      mstore\n      0x20\n      0x04\n      dup3\n      add\n      mstore\n      0x14\n      0x24\n      dup3\n      add\n      mstore\n      shl(0x60, 0x64732d6d6174682d6d756c2d6f766572666c6f77)\n      0x44\n      dup3\n      add\n      mstore\n      swap1\n      mload\n      swap1\n      dup2\n      swap1\n      sub\n      0x64\n      add\n      swap1\n      revert\n        /* \"libraries/SafeMath.sol\":342:471  function sub(uint x, uint y) internal pure returns (uint z) {\r... */\n    tag_150:\n        /* \"libraries/SafeMath.sol\":426:431  x - y */\n      dup1\n      dup3\n      sub\n        /* \"libraries/SafeMath.sol\":421:437  (z = x - y) <= x */\n      dup3\n      dup2\n      gt\n      iszero\n        /* \"libraries/SafeMath.sol\":413:463  require((z = x - y) <= x, 'ds-math-sub-underflow') */\n      tag_161\n      jumpi\n      0x40\n      dup1\n      mload\n      shl(0xe5, 0x461bcd)\n      dup2\n      mstore\n      0x20\n      0x04\n      dup3\n      add\n      mstore\n      0x15\n      0x24\n      dup3\n      add\n      mstore\n      shl(0x58, 0x64732d6d6174682d7375622d756e646572666c6f77)\n      0x44\n      dup3\n      add\n      mstore\n      swap1\n      mload\n      swap1\n      dup2\n      swap1\n      sub\n      0x64\n      add\n      swap1\n      revert\n        /* \"UniswapV2Pair.sol\":2643:3505  function _update(uint balance0, uint balance1, uint112 _reserve0, uint112 _reserve1) private {\r... */\n    tag_159:\n      sub(shl(0x70, 0x01), 0x01)\n        /* \"UniswapV2Pair.sol\":2755:2778  balance0 <= uint112(-1) */\n      dup5\n      gt\n      dup1\n      iszero\n      swap1\n        /* \"UniswapV2Pair.sol\":2755:2805  balance0 <= uint112(-1) && balance1 <= uint112(-1) */\n      tag_294\n      jumpi\n      pop\n      sub(shl(0x70, 0x01), 0x01)\n        /* \"UniswapV2Pair.sol\":2782:2805  balance1 <= uint112(-1) */\n      dup4\n      gt\n      iszero\n        /* \"UniswapV2Pair.sol\":2755:2805  balance0 <= uint112(-1) && balance1 <= uint112(-1) */\n    tag_294:\n        /* \"UniswapV2Pair.sol\":2747:2829  require(balance0 <= uint112(-1) && balance1 <= uint112(-1), 'UniswapV2: OVERFLOW') */\n      tag_295\n      jumpi\n      0x40\n      dup1\n      mload\n      shl(0xe5, 0x461bcd)\n      dup2\n      mstore\n      0x20\n      0x04\n      dup3\n      add\n      mstore\n      0x13\n      0x24\n      dup3\n      add\n      mstore\n      shl(0x68, 0x556e697377617056323a204f564552464c4f57)\n      0x44\n      dup3\n      add\n      mstore\n      swap1\n      mload\n      swap1\n      dup2\n      swap1\n      sub\n      0x64\n      add\n      swap1\n      revert\n    tag_295:\n        /* \"UniswapV2Pair.sol\":2946:2964  blockTimestampLast */\n      sload(0x08)\n        /* \"UniswapV2Pair.sol\":2871:2896  block.timestamp % 2 ** 32 */\n      0xffffffff\n        /* \"UniswapV2Pair.sol\":2871:2886  block.timestamp */\n      timestamp\n        /* \"UniswapV2Pair.sol\":2871:2896  block.timestamp % 2 ** 32 */\n      dup2\n      and\n      swap2\n      shl(0xe0, 0x01)\n        /* \"UniswapV2Pair.sol\":2946:2964  blockTimestampLast */\n      swap1\n      div\n      dup2\n      and\n        /* \"UniswapV2Pair.sol\":2929:2964  blockTimestamp - blockTimestampLast */\n      dup3\n      sub\n      swap1\n        /* \"UniswapV2Pair.sol\":3002:3017  timeElapsed > 0 */\n      dup2\n      and\n      iszero\n      dup1\n      iszero\n      swap1\n        /* \"UniswapV2Pair.sol\":3002:3035  timeElapsed > 0 && _reserve0 != 0 */\n      tag_297\n      jumpi\n      pop\n      sub(shl(0x70, 0x01), 0x01)\n        /* \"UniswapV2Pair.sol\":3021:3035  _reserve0 != 0 */\n      dup5\n      and\n      iszero\n      iszero\n        /* \"UniswapV2Pair.sol\":3002:3035  timeElapsed > 0 && _reserve0 != 0 */\n    tag_297:\n        /* \"UniswapV2Pair.sol\":3002:3053  timeElapsed > 0 && _reserve0 != 0 && _reserve1 != 0 */\n      dup1\n      iszero\n      tag_298\n      jumpi\n      pop\n      sub(shl(0x70, 0x01), 0x01)\n        /* \"UniswapV2Pair.sol\":3039:3053  _reserve1 != 0 */\n      dup4\n      and\n      iszero\n      iszero\n        /* \"UniswapV2Pair.sol\":3002:3053  timeElapsed > 0 && _reserve0 != 0 && _reserve1 != 0 */\n    tag_298:\n        /* \"UniswapV2Pair.sol\":2998:3334  if (timeElapsed > 0 && _reserve0 != 0 && _reserve1 != 0) {\r... */\n      iszero\n      tag_299\n      jumpi\n        /* \"UniswapV2Pair.sol\":3208:3219  timeElapsed */\n      dup1\n        /* \"UniswapV2Pair.sol\":3155:3219  uint(UQ112x112.encode(_reserve1).uqdiv(_reserve0)) * timeElapsed */\n      0xffffffff\n      and\n        /* \"UniswapV2Pair.sol\":3160:3204  UQ112x112.encode(_reserve1).uqdiv(_reserve0) */\n      tag_300\n        /* \"UniswapV2Pair.sol\":3194:3203  _reserve0 */\n      dup6\n        /* \"UniswapV2Pair.sol\":3160:3187  UQ112x112.encode(_reserve1) */\n      tag_301\n        /* \"UniswapV2Pair.sol\":3177:3186  _reserve1 */\n      dup7\n        /* \"UniswapV2Pair.sol\":3160:3176  UQ112x112.encode */\n      tag_302\n        /* \"UniswapV2Pair.sol\":3160:3187  UQ112x112.encode(_reserve1) */\n      jump\t// in\n    tag_301:\n      sub(shl(0xe0, 0x01), 0x01)\n        /* \"UniswapV2Pair.sol\":3160:3193  UQ112x112.encode(_reserve1).uqdiv */\n      and\n      swap1\n      tag_303\n        /* \"UniswapV2Pair.sol\":3160:3204  UQ112x112.encode(_reserve1).uqdiv(_reserve0) */\n      jump\t// in\n    tag_300:\n        /* \"UniswapV2Pair.sol\":3131:3151  price0CumulativeLast */\n      0x09\n        /* \"UniswapV2Pair.sol\":3131:3219  price0CumulativeLast += uint(UQ112x112.encode(_reserve1).uqdiv(_reserve0)) * timeElapsed */\n      dup1\n      sload\n      sub(shl(0xe0, 0x01), 0x01)\n        /* \"UniswapV2Pair.sol\":3155:3205  uint(UQ112x112.encode(_reserve1).uqdiv(_reserve0)) */\n      swap3\n      swap1\n      swap3\n      and\n        /* \"UniswapV2Pair.sol\":3155:3219  uint(UQ112x112.encode(_reserve1).uqdiv(_reserve0)) * timeElapsed */\n      swap3\n      swap1\n      swap3\n      mul\n        /* \"UniswapV2Pair.sol\":3131:3219  price0CumulativeLast += uint(UQ112x112.encode(_reserve1).uqdiv(_reserve0)) * timeElapsed */\n      add\n      swap1\n      sstore\n        /* \"UniswapV2Pair.sol\":3258:3322  uint(UQ112x112.encode(_reserve0).uqdiv(_reserve1)) * timeElapsed */\n      0xffffffff\n      dup2\n      and\n        /* \"UniswapV2Pair.sol\":3263:3307  UQ112x112.encode(_reserve0).uqdiv(_reserve1) */\n      tag_304\n        /* \"UniswapV2Pair.sol\":3297:3306  _reserve1 */\n      dup5\n        /* \"UniswapV2Pair.sol\":3263:3290  UQ112x112.encode(_reserve0) */\n      tag_301\n        /* \"UniswapV2Pair.sol\":3280:3289  _reserve0 */\n      dup8\n        /* \"UniswapV2Pair.sol\":3263:3279  UQ112x112.encode */\n      tag_302\n        /* \"UniswapV2Pair.sol\":3263:3290  UQ112x112.encode(_reserve0) */\n      jump\t// in\n        /* \"UniswapV2Pair.sol\":3263:3307  UQ112x112.encode(_reserve0).uqdiv(_reserve1) */\n    tag_304:\n        /* \"UniswapV2Pair.sol\":3234:3254  price1CumulativeLast */\n      0x0a\n        /* \"UniswapV2Pair.sol\":3234:3322  price1CumulativeLast += uint(UQ112x112.encode(_reserve0).uqdiv(_reserve1)) * timeElapsed */\n      dup1\n      sload\n      sub(shl(0xe0, 0x01), 0x01)\n        /* \"UniswapV2Pair.sol\":3258:3308  uint(UQ112x112.encode(_reserve0).uqdiv(_reserve1)) */\n      swap3\n      swap1\n      swap3\n      and\n        /* \"UniswapV2Pair.sol\":3258:3322  uint(UQ112x112.encode(_reserve0).uqdiv(_reserve1)) * timeElapsed */\n      swap3\n      swap1\n      swap3\n      mul\n        /* \"UniswapV2Pair.sol\":3234:3322  price1CumulativeLast += uint(UQ112x112.encode(_reserve0).uqdiv(_reserve1)) * timeElapsed */\n      add\n      swap1\n      sstore\n        /* \"UniswapV2Pair.sol\":2998:3334  if (timeElapsed > 0 && _reserve0 != 0 && _reserve1 != 0) {\r... */\n    tag_299:\n        /* \"UniswapV2Pair.sol\":3344:3352  reserve0 */\n      0x08\n        /* \"UniswapV2Pair.sol\":3344:3372  reserve0 = uint112(balance0) */\n      dup1\n      sload\n      not(0xffffffffffffffffffffffffffff)\n      and\n      sub(shl(0x70, 0x01), 0x01)\n      dup9\n      dup2\n      and\n      swap2\n      swap1\n      swap2\n      or\n      not(shl(0x70, 0xffffffffffffffffffffffffffff))\n        /* \"UniswapV2Pair.sol\":3383:3411  reserve1 = uint112(balance1) */\n      and\n      shl(0x70, 0x01)\n      dup9\n      dup4\n      and\n      dup2\n      mul\n      swap2\n      swap1\n      swap2\n      or\n      sub(shl(0xe0, 0x01), 0x01)\n        /* \"UniswapV2Pair.sol\":3422:3457  blockTimestampLast = blockTimestamp */\n      and\n      shl(0xe0, 0x01)\n      0xffffffff\n      dup8\n      and\n      mul\n      or\n      swap3\n      dup4\n      swap1\n      sstore\n        /* \"UniswapV2Pair.sol\":3473:3497  Sync(reserve0, reserve1) */\n      0x40\n      dup1\n      mload\n        /* \"UniswapV2Pair.sol\":3478:3486  reserve0 */\n      dup5\n      dup5\n      and\n        /* \"UniswapV2Pair.sol\":3473:3497  Sync(reserve0, reserve1) */\n      dup2\n      mstore\n        /* \"UniswapV2Pair.sol\":3488:3496  reserve1 */\n      swap2\n      swap1\n      swap4\n      div\n      swap1\n      swap2\n      and\n        /* \"UniswapV2Pair.sol\":3473:3497  Sync(reserve0, reserve1) */\n      0x20\n      dup3\n      add\n      mstore\n      dup2\n      mload\n      0x1c411e9a96e071241c2f21f7726b17ae89e3cab4c78be50e062b03a9fffbbad1\n      swap3\n      swap2\n      dup2\n      swap1\n      sub\n      swap1\n      swap2\n      add\n      swap1\n      log1\n        /* \"UniswapV2Pair.sol\":2643:3505  function _update(uint balance0, uint balance1, uint112 _reserve0, uint112 _reserve1) private {\r... */\n      pop\n      pop\n      pop\n      pop\n      pop\n      pop\n      jump\t// out\n        /* \"UniswapV2ERC20.sol\":1822:1991  function _approve(address owner, address spender, uint value) private {\r... */\n    tag_163:\n      sub(shl(0xa0, 0x01), 0x01)\n        /* \"UniswapV2ERC20.sol\":1903:1919  allowance[owner] */\n      dup4\n      dup2\n      and\n      0x00\n      dup2\n      dup2\n      mstore\n        /* \"UniswapV2ERC20.sol\":1903:1912  allowance */\n      0x02\n        /* \"UniswapV2ERC20.sol\":1903:1919  allowance[owner] */\n      0x20\n      swap1\n      dup2\n      mstore\n      0x40\n      dup1\n      dup4\n      keccak256\n        /* \"UniswapV2ERC20.sol\":1903:1928  allowance[owner][spender] */\n      swap5\n      dup8\n      and\n      dup1\n      dup5\n      mstore\n      swap5\n      dup3\n      mstore\n      swap2\n      dup3\n      swap1\n      keccak256\n        /* \"UniswapV2ERC20.sol\":1903:1936  allowance[owner][spender] = value */\n      dup6\n      swap1\n      sstore\n        /* \"UniswapV2ERC20.sol\":1952:1983  Approval(owner, spender, value) */\n      dup2\n      mload\n      dup6\n      dup2\n      mstore\n      swap2\n      mload\n      0x8c5be1e5ebec7d5bd14f71427d1e84f3dd0314c0f7b2291e5b200ac8c7c3b925\n      swap3\n      dup2\n      swap1\n      sub\n      swap1\n      swap2\n      add\n      swap1\n      log3\n        /* \"UniswapV2ERC20.sol\":1822:1991  function _approve(address owner, address spender, uint value) private {\r... */\n      pop\n      pop\n      pop\n      jump\t// out\n        /* \"UniswapV2ERC20.sol\":1999:2219  function _transfer(address from, address to, uint value) private {\r... */\n    tag_168:\n      sub(shl(0xa0, 0x01), 0x01)\n        /* \"UniswapV2ERC20.sol\":2093:2108  balanceOf[from] */\n      dup4\n      and\n      0x00\n      swap1\n      dup2\n      mstore\n      mstore(0x20, 0x01)\n      0x40\n      swap1\n      keccak256\n      sload\n        /* \"UniswapV2ERC20.sol\":2093:2119  balanceOf[from].sub(value) */\n      tag_308\n      swap1\n        /* \"UniswapV2ERC20.sol\":2113:2118  value */\n      dup3\n        /* \"UniswapV2ERC20.sol\":2093:2112  balanceOf[from].sub */\n      tag_150\n        /* \"UniswapV2ERC20.sol\":2093:2119  balanceOf[from].sub(value) */\n      jump\t// in\n    tag_308:\n      sub(shl(0xa0, 0x01), 0x01)\n        /* \"UniswapV2ERC20.sol\":2075:2090  balanceOf[from] */\n      dup5\n      dup2\n      and\n      0x00\n      swap1\n      dup2\n      mstore\n      mstore(0x20, 0x01)\n      0x40\n      dup1\n      dup3\n      keccak256\n        /* \"UniswapV2ERC20.sol\":2075:2119  balanceOf[from] = balanceOf[from].sub(value) */\n      swap4\n      swap1\n      swap4\n      sstore\n        /* \"UniswapV2ERC20.sol\":2146:2159  balanceOf[to] */\n      swap1\n      dup5\n      and\n      dup2\n      mstore\n      keccak256\n      sload\n        /* \"UniswapV2ERC20.sol\":2146:2170  balanceOf[to].add(value) */\n      tag_309\n      swap1\n        /* \"UniswapV2ERC20.sol\":2164:2169  value */\n      dup3\n        /* \"UniswapV2ERC20.sol\":2146:2163  balanceOf[to].add */\n      tag_310\n        /* \"UniswapV2ERC20.sol\":2146:2170  balanceOf[to].add(value) */\n      jump\t// in\n    tag_309:\n      sub(shl(0xa0, 0x01), 0x01)\n        /* \"UniswapV2ERC20.sol\":2130:2143  balanceOf[to] */\n      dup4\n      dup2\n      and\n      0x00\n      dup2\n      dup2\n      mstore\n      0x01\n      0x20\n      swap1\n      dup2\n      mstore\n      0x40\n      swap2\n      dup3\n      swap1\n      keccak256\n        /* \"UniswapV2ERC20.sol\":2130:2170  balanceOf[to] = balanceOf[to].add(value) */\n      swap5\n      swap1\n      swap5\n      sstore\n        /* \"UniswapV2ERC20.sol\":2186:2211  Transfer(from, to, value) */\n      dup1\n      mload\n      dup6\n      dup2\n      mstore\n      swap1\n      mload\n        /* \"UniswapV2ERC20.sol\":2130:2143  balanceOf[to] */\n      swap2\n      swap4\n        /* \"UniswapV2ERC20.sol\":2186:2211  Transfer(from, to, value) */\n      swap3\n      dup8\n      and\n      swap3\n      0xddf252ad1be2c89b69c2b068fc378daa952ba7f163c4a11628f55a4df523b3ef\n      swap3\n      swap2\n      dup3\n      swap1\n      sub\n      add\n      swap1\n      log3\n        /* \"UniswapV2ERC20.sol\":1999:2219  function _transfer(address from, address to, uint value) private {\r... */\n      pop\n      pop\n      pop\n      jump\t// out\n        /* \"UniswapV2Pair.sol\":3595:4432  function _mintFee(uint112 _reserve0, uint112 _reserve1) private returns (bool feeOn) {\r... */\n    tag_186:\n        /* \"UniswapV2Pair.sol\":3725:3732  factory */\n      sload(0x05)\n        /* \"UniswapV2Pair.sol\":3707:3741  IUniswapV2Factory(factory).feeTo() */\n      0x40\n      dup1\n      mload\n      shl(0xe3, 0x2fcfcb)\n      dup2\n      mstore\n      swap1\n      mload\n        /* \"UniswapV2Pair.sol\":3668:3678  bool feeOn */\n      0x00\n      swap3\n      dup4\n      swap3\n      sub(shl(0xa0, 0x01), 0x01)\n        /* \"UniswapV2Pair.sol\":3725:3732  factory */\n      swap1\n      swap2\n      and\n      swap2\n        /* \"UniswapV2Pair.sol\":3707:3739  IUniswapV2Factory(factory).feeTo */\n      0x017e7e58\n      swap2\n        /* \"UniswapV2Pair.sol\":3707:3741  IUniswapV2Factory(factory).feeTo() */\n      0x04\n      dup1\n      dup3\n      add\n      swap3\n      0x20\n      swap3\n      swap1\n      swap2\n      swap1\n      dup3\n      swap1\n      sub\n      add\n      dup2\n        /* \"UniswapV2Pair.sol\":3725:3732  factory */\n      dup7\n        /* \"UniswapV2Pair.sol\":3707:3741  IUniswapV2Factory(factory).feeTo() */\n      dup1\n      extcodesize\n      iszero\n      dup1\n      iszero\n      tag_312\n      jumpi\n      0x00\n      dup1\n      revert\n    tag_312:\n      pop\n      gas\n      staticcall\n      iszero\n      dup1\n      iszero\n      tag_314\n      jumpi\n      returndatasize\n      0x00\n      dup1\n      returndatacopy\n      revert(0x00, returndatasize)\n    tag_314:\n      pop\n      pop\n      pop\n      pop\n      mload(0x40)\n      returndatasize\n      0x20\n      dup2\n      lt\n      iszero\n      tag_315\n      jumpi\n      0x00\n      dup1\n      revert\n    tag_315:\n      pop\n      mload\n        /* \"UniswapV2Pair.sol\":3804:3809  kLast */\n      sload(0x0b)\n      sub(shl(0xa0, 0x01), 0x01)\n        /* \"UniswapV2Pair.sol\":3760:3779  feeTo != address(0) */\n      dup3\n      and\n      iszero\n      dup1\n      iszero\n      swap5\n      pop\n        /* \"UniswapV2Pair.sol\":3707:3741  IUniswapV2Factory(factory).feeTo() */\n      swap2\n      swap3\n      pop\n        /* \"UniswapV2Pair.sol\":3804:3809  kLast */\n      swap1\n        /* \"UniswapV2Pair.sol\":3835:4425  if (feeOn) {\r... */\n      tag_316\n      jumpi\n        /* \"UniswapV2Pair.sol\":3865:3876  _kLast != 0 */\n      dup1\n      iszero\n        /* \"UniswapV2Pair.sol\":3861:4355  if (_kLast != 0) {\r... */\n      tag_317\n      jumpi\n        /* \"UniswapV2Pair.sol\":3897:3907  uint rootK */\n      0x00\n        /* \"UniswapV2Pair.sol\":3910:3951  Math.sqrt(uint(_reserve0).mul(_reserve1)) */\n      tag_318\n        /* \"UniswapV2Pair.sol\":3920:3950  uint(_reserve0).mul(_reserve1) */\n      tag_190\n      sub(shl(0x70, 0x01), 0x01)\n        /* \"UniswapV2Pair.sol\":3920:3935  uint(_reserve0) */\n      dup9\n      dup2\n      and\n      swap1\n        /* \"UniswapV2Pair.sol\":3920:3950  uint(_reserve0).mul(_reserve1) */\n      dup9\n      and\n        /* \"UniswapV2Pair.sol\":3920:3939  uint(_reserve0).mul */\n      tag_148\n        /* \"UniswapV2Pair.sol\":3920:3950  uint(_reserve0).mul(_reserve1) */\n      jump\t// in\n        /* \"UniswapV2Pair.sol\":3910:3951  Math.sqrt(uint(_reserve0).mul(_reserve1)) */\n    tag_318:\n        /* \"UniswapV2Pair.sol\":3897:3951  uint rootK = Math.sqrt(uint(_reserve0).mul(_reserve1)) */\n      swap1\n      pop\n        /* \"UniswapV2Pair.sol\":3970:3984  uint rootKLast */\n      0x00\n        /* \"UniswapV2Pair.sol\":3987:4004  Math.sqrt(_kLast) */\n      tag_320\n        /* \"UniswapV2Pair.sol\":3997:4003  _kLast */\n      dup4\n        /* \"UniswapV2Pair.sol\":3987:3996  Math.sqrt */\n      tag_191\n        /* \"UniswapV2Pair.sol\":3987:4004  Math.sqrt(_kLast) */\n      jump\t// in\n    tag_320:\n        /* \"UniswapV2Pair.sol\":3970:4004  uint rootKLast = Math.sqrt(_kLast) */\n      swap1\n      pop\n        /* \"UniswapV2Pair.sol\":4035:4044  rootKLast */\n      dup1\n        /* \"UniswapV2Pair.sol\":4027:4032  rootK */\n      dup3\n        /* \"UniswapV2Pair.sol\":4027:4044  rootK > rootKLast */\n      gt\n        /* \"UniswapV2Pair.sol\":4023:4340  if (rootK > rootKLast) {\r... */\n      iszero\n      tag_321\n      jumpi\n        /* \"UniswapV2Pair.sol\":4069:4083  uint numerator */\n      0x00\n        /* \"UniswapV2Pair.sol\":4086:4123  totalSupply.mul(rootK.sub(rootKLast)) */\n      tag_322\n        /* \"UniswapV2Pair.sol\":4102:4122  rootK.sub(rootKLast) */\n      tag_323\n        /* \"UniswapV2Pair.sol\":4102:4107  rootK */\n      dup5\n        /* \"UniswapV2Pair.sol\":4112:4121  rootKLast */\n      dup5\n        /* \"UniswapV2Pair.sol\":4102:4111  rootK.sub */\n      tag_150\n        /* \"UniswapV2Pair.sol\":4102:4122  rootK.sub(rootKLast) */\n      jump\t// in\n    tag_323:\n        /* \"UniswapV2Pair.sol\":4086:4097  totalSupply */\n      sload(0x00)\n      swap1\n        /* \"UniswapV2Pair.sol\":4086:4101  totalSupply.mul */\n      tag_148\n        /* \"UniswapV2Pair.sol\":4086:4123  totalSupply.mul(rootK.sub(rootKLast)) */\n      jump\t// in\n    tag_322:\n        /* \"UniswapV2Pair.sol\":4069:4123  uint numerator = totalSupply.mul(rootK.sub(rootKLast)) */\n      swap1\n      pop\n        /* \"UniswapV2Pair.sol\":4146:4162  uint denominator */\n      0x00\n        /* \"UniswapV2Pair.sol\":4165:4192  rootK.mul(2).add(rootKLast) */\n      tag_324\n        /* \"UniswapV2Pair.sol\":4182:4191  rootKLast */\n      dup4\n        /* \"UniswapV2Pair.sol\":4165:4177  rootK.mul(2) */\n      tag_325\n        /* \"UniswapV2Pair.sol\":4165:4170  rootK */\n      dup7\n        /* \"UniswapV2Pair.sol\":4175:4176  2 */\n      0x02\n        /* \"UniswapV2Pair.sol\":4165:4174  rootK.mul */\n      tag_148\n        /* \"UniswapV2Pair.sol\":4165:4177  rootK.mul(2) */\n      jump\t// in\n    tag_325:\n        /* \"UniswapV2Pair.sol\":4165:4181  rootK.mul(2).add */\n      swap1\n      tag_310\n        /* \"UniswapV2Pair.sol\":4165:4192  rootK.mul(2).add(rootKLast) */\n      jump\t// in\n    tag_324:\n        /* \"UniswapV2Pair.sol\":4146:4192  uint denominator = rootK.mul(2).add(rootKLast) */\n      swap1\n      pop\n        /* \"UniswapV2Pair.sol\":4215:4229  uint liquidity */\n      0x00\n        /* \"UniswapV2Pair.sol\":4244:4255  denominator */\n      dup2\n        /* \"UniswapV2Pair.sol\":4232:4241  numerator */\n      dup4\n        /* \"UniswapV2Pair.sol\":4232:4255  numerator / denominator */\n      dup2\n      tag_326\n      jumpi\n      invalid\n    tag_326:\n      div\n      swap1\n      pop\n        /* \"UniswapV2Pair.sol\":4282:4295  liquidity > 0 */\n      dup1\n      iszero\n        /* \"UniswapV2Pair.sol\":4278:4320  if (liquidity > 0) _mint(feeTo, liquidity) */\n      tag_328\n      jumpi\n        /* \"UniswapV2Pair.sol\":4297:4320  _mint(feeTo, liquidity) */\n      tag_328\n        /* \"UniswapV2Pair.sol\":4303:4308  feeTo */\n      dup8\n        /* \"UniswapV2Pair.sol\":4310:4319  liquidity */\n      dup3\n        /* \"UniswapV2Pair.sol\":4297:4302  _mint */\n      tag_193\n        /* \"UniswapV2Pair.sol\":4297:4320  _mint(feeTo, liquidity) */\n      jump\t// in\n    tag_328:\n        /* \"UniswapV2Pair.sol\":4023:4340  if (rootK > rootKLast) {\r... */\n      pop\n      pop\n      pop\n    tag_321:\n        /* \"UniswapV2Pair.sol\":3861:4355  if (_kLast != 0) {\r... */\n      pop\n      pop\n    tag_317:\n        /* \"UniswapV2Pair.sol\":3835:4425  if (feeOn) {\r... */\n      jump(tag_330)\n    tag_316:\n        /* \"UniswapV2Pair.sol\":4376:4387  _kLast != 0 */\n      dup1\n      iszero\n        /* \"UniswapV2Pair.sol\":4372:4425  if (_kLast != 0) {\r... */\n      tag_330\n      jumpi\n        /* \"UniswapV2Pair.sol\":4412:4413  0 */\n      0x00\n        /* \"UniswapV2Pair.sol\":4404:4409  kLast */\n      0x0b\n        /* \"UniswapV2Pair.sol\":4404:4413  kLast = 0 */\n      sstore\n        /* \"UniswapV2Pair.sol\":4372:4425  if (_kLast != 0) {\r... */\n    tag_330:\n        /* \"UniswapV2Pair.sol\":3595:4432  function _mintFee(uint112 _reserve0, uint112 _reserve1) private returns (bool feeOn) {\r... */\n      pop\n      pop\n      swap3\n      swap2\n      pop\n      pop\n      jump\t// out\n        /* \"libraries/Math.sol\":356:659  function sqrt(uint y) internal pure returns (uint z) {\r... */\n    tag_191:\n        /* \"libraries/Math.sol\":401:407  uint z */\n      0x00\n        /* \"libraries/Math.sol\":428:429  3 */\n      0x03\n        /* \"libraries/Math.sol\":424:425  y */\n      dup3\n        /* \"libraries/Math.sol\":424:429  y > 3 */\n      gt\n        /* \"libraries/Math.sol\":420:652  if (y > 3) {\r... */\n      iszero\n      tag_332\n      jumpi\n      pop\n        /* \"libraries/Math.sol\":450:451  y */\n      dup1\n        /* \"libraries/Math.sol\":483:484  1 */\n      0x01\n        /* \"libraries/Math.sol\":479:480  2 */\n      0x02\n        /* \"libraries/Math.sol\":475:480  y / 2 */\n      dup3\n      div\n        /* \"libraries/Math.sol\":475:484  y / 2 + 1 */\n      add\n        /* \"libraries/Math.sol\":499:591  while (x < z) {\r... */\n    tag_334:\n        /* \"libraries/Math.sol\":510:511  z */\n      dup2\n        /* \"libraries/Math.sol\":506:507  x */\n      dup2\n        /* \"libraries/Math.sol\":506:511  x < z */\n      lt\n        /* \"libraries/Math.sol\":499:591  while (x < z) {\r... */\n      iszero\n      tag_335\n      jumpi\n        /* \"libraries/Math.sol\":536:537  x */\n      dup1\n        /* \"libraries/Math.sol\":532:537  z = x */\n      swap2\n      pop\n        /* \"libraries/Math.sol\":574:575  2 */\n      0x02\n        /* \"libraries/Math.sol\":569:570  x */\n      dup2\n        /* \"libraries/Math.sol\":565:566  x */\n      dup3\n        /* \"libraries/Math.sol\":561:562  y */\n      dup6\n        /* \"libraries/Math.sol\":561:566  y / x */\n      dup2\n      tag_336\n      jumpi\n      invalid\n    tag_336:\n      div\n        /* \"libraries/Math.sol\":561:570  y / x + x */\n      add\n        /* \"libraries/Math.sol\":560:575  (y / x + x) / 2 */\n      dup2\n      tag_337\n      jumpi\n      invalid\n    tag_337:\n      div\n        /* \"libraries/Math.sol\":556:575  x = (y / x + x) / 2 */\n      swap1\n      pop\n        /* \"libraries/Math.sol\":499:591  while (x < z) {\r... */\n      jump(tag_334)\n    tag_335:\n        /* \"libraries/Math.sol\":420:652  if (y > 3) {\r... */\n      pop\n      jump(tag_339)\n    tag_332:\n        /* \"libraries/Math.sol\":612:618  y != 0 */\n      dup2\n      iszero\n        /* \"libraries/Math.sol\":608:652  if (y != 0) {\r... */\n      tag_339\n      jumpi\n      pop\n        /* \"libraries/Math.sol\":639:640  1 */\n      0x01\n        /* \"libraries/Math.sol\":608:652  if (y != 0) {\r... */\n    tag_339:\n        /* \"libraries/Math.sol\":356:659  function sqrt(uint y) internal pure returns (uint z) {\r... */\n      swap2\n      swap1\n      pop\n      jump\t// out\n        /* \"UniswapV2ERC20.sol\":1396:1597  function _mint(address to, uint value) internal {\r... */\n    tag_193:\n        /* \"UniswapV2ERC20.sol\":1469:1480  totalSupply */\n      sload(0x00)\n        /* \"UniswapV2ERC20.sol\":1469:1491  totalSupply.add(value) */\n      tag_341\n      swap1\n        /* \"UniswapV2ERC20.sol\":1485:1490  value */\n      dup3\n        /* \"UniswapV2ERC20.sol\":1469:1484  totalSupply.add */\n      tag_310\n        /* \"UniswapV2ERC20.sol\":1469:1491  totalSupply.add(value) */\n      jump\t// in\n    tag_341:\n        /* \"UniswapV2ERC20.sol\":1455:1466  totalSupply */\n      0x00\n        /* \"UniswapV2ERC20.sol\":1455:1491  totalSupply = totalSupply.add(value) */\n      swap1\n      dup2\n      sstore\n      sub(shl(0xa0, 0x01), 0x01)\n        /* \"UniswapV2ERC20.sol\":1518:1531  balanceOf[to] */\n      dup4\n      and\n      dup2\n      mstore\n      mstore(0x20, 0x01)\n      0x40\n      swap1\n      keccak256\n      sload\n        /* \"UniswapV2ERC20.sol\":1518:1542  balanceOf[to].add(value) */\n      tag_342\n      swap1\n        /* \"UniswapV2ERC20.sol\":1536:1541  value */\n      dup3\n        /* \"UniswapV2ERC20.sol\":1518:1535  balanceOf[to].add */\n      tag_310\n        /* \"UniswapV2ERC20.sol\":1518:1542  balanceOf[to].add(value) */\n      jump\t// in\n    tag_342:\n      sub(shl(0xa0, 0x01), 0x01)\n        /* \"UniswapV2ERC20.sol\":1502:1515  balanceOf[to] */\n      dup4\n      and\n      0x00\n      dup2\n      dup2\n      mstore\n      0x01\n      0x20\n      swap1\n      dup2\n      mstore\n      0x40\n      dup1\n      dup4\n      keccak256\n        /* \"UniswapV2ERC20.sol\":1502:1542  balanceOf[to] = balanceOf[to].add(value) */\n      swap5\n      swap1\n      swap5\n      sstore\n        /* \"UniswapV2ERC20.sol\":1558:1589  Transfer(address(0), to, value) */\n      dup4\n      mload\n      dup6\n      dup2\n      mstore\n      swap4\n      mload\n        /* \"UniswapV2ERC20.sol\":1502:1515  balanceOf[to] */\n      swap3\n      swap4\n      swap2\n      swap3\n        /* \"UniswapV2ERC20.sol\":1558:1589  Transfer(address(0), to, value) */\n      0xddf252ad1be2c89b69c2b068fc378daa952ba7f163c4a11628f55a4df523b3ef\n      swap3\n      dup2\n      swap1\n      sub\n      swap1\n      swap2\n      add\n      swap1\n      log3\n        /* \"UniswapV2ERC20.sol\":1396:1597  function _mint(address to, uint value) internal {\r... */\n      pop\n      pop\n      jump\t// out\n        /* \"libraries/Math.sol\":142:238  function min(uint x, uint y) internal pure returns (uint z) {\r... */\n    tag_200:\n        /* \"libraries/Math.sol\":194:200  uint z */\n      0x00\n        /* \"libraries/Math.sol\":221:222  y */\n      dup2\n        /* \"libraries/Math.sol\":217:218  x */\n      dup4\n        /* \"libraries/Math.sol\":217:222  x < y */\n      lt\n        /* \"libraries/Math.sol\":217:230  x < y ? x : y */\n      tag_344\n      jumpi\n        /* \"libraries/Math.sol\":229:230  y */\n      dup2\n        /* \"libraries/Math.sol\":217:230  x < y ? x : y */\n      jump(tag_345)\n    tag_344:\n        /* \"libraries/Math.sol\":225:226  x */\n      dup3\n        /* \"libraries/Math.sol\":217:230  x < y ? x : y */\n    tag_345:\n        /* \"libraries/Math.sol\":213:230  z = x < y ? x : y */\n      swap4\n        /* \"libraries/Math.sol\":142:238  function min(uint x, uint y) internal pure returns (uint z) {\r... */\n      swap3\n      pop\n      pop\n      pop\n      jump\t// out\n        /* \"UniswapV2ERC20.sol\":1605:1814  function _burn(address from, uint value) internal {\r... */\n    tag_226:\n      sub(shl(0xa0, 0x01), 0x01)\n        /* \"UniswapV2ERC20.sol\":1684:1699  balanceOf[from] */\n      dup3\n      and\n      0x00\n      swap1\n      dup2\n      mstore\n      mstore(0x20, 0x01)\n      0x40\n      swap1\n      keccak256\n      sload\n        /* \"UniswapV2ERC20.sol\":1684:1710  balanceOf[from].sub(value) */\n      tag_347\n      swap1\n        /* \"UniswapV2ERC20.sol\":1704:1709  value */\n      dup3\n        /* \"UniswapV2ERC20.sol\":1684:1703  balanceOf[from].sub */\n      tag_150\n        /* \"UniswapV2ERC20.sol\":1684:1710  balanceOf[from].sub(value) */\n      jump\t// in\n    tag_347:\n      sub(shl(0xa0, 0x01), 0x01)\n        /* \"UniswapV2ERC20.sol\":1666:1681  balanceOf[from] */\n      dup4\n      and\n      0x00\n      swap1\n      dup2\n      mstore\n      mstore(0x20, 0x01)\n      0x40\n      dup2\n      keccak256\n        /* \"UniswapV2ERC20.sol\":1666:1710  balanceOf[from] = balanceOf[from].sub(value) */\n      swap2\n      swap1\n      swap2\n      sstore\n        /* \"UniswapV2ERC20.sol\":1735:1746  totalSupply */\n      sload\n        /* \"UniswapV2ERC20.sol\":1735:1757  totalSupply.sub(value) */\n      tag_348\n      swap1\n        /* \"UniswapV2ERC20.sol\":1751:1756  value */\n      dup3\n        /* \"UniswapV2ERC20.sol\":1735:1750  totalSupply.sub */\n      tag_150\n        /* \"UniswapV2ERC20.sol\":1735:1757  totalSupply.sub(value) */\n      jump\t// in\n    tag_348:\n        /* \"UniswapV2ERC20.sol\":1721:1732  totalSupply */\n      0x00\n        /* \"UniswapV2ERC20.sol\":1721:1757  totalSupply = totalSupply.sub(value) */\n      swap1\n      dup2\n      sstore\n        /* \"UniswapV2ERC20.sol\":1773:1806  Transfer(from, address(0), value) */\n      0x40\n      dup1\n      mload\n      dup4\n      dup2\n      mstore\n      swap1\n      mload\n      sub(shl(0xa0, 0x01), 0x01)\n      dup6\n      and\n      swap2\n      0xddf252ad1be2c89b69c2b068fc378daa952ba7f163c4a11628f55a4df523b3ef\n      swap2\n      swap1\n      dup2\n      swap1\n      sub\n      0x20\n      add\n      swap1\n      log3\n        /* \"UniswapV2ERC20.sol\":1605:1814  function _burn(address from, uint value) internal {\r... */\n      pop\n      pop\n      jump\t// out\n        /* \"libraries/UQ112x112.sol\":333:453  function encode(uint112 y) internal pure returns (uint224 z) {\r... */\n    tag_302:\n      sub(shl(0x70, 0x01), 0x01)\n        /* \"libraries/UQ112x112.sol\":409:419  uint224(y) */\n      and\n      shl(0x70, 0x01)\n        /* \"libraries/UQ112x112.sol\":409:426  uint224(y) * Q112 */\n      mul\n      swap1\n        /* \"libraries/UQ112x112.sol\":333:453  function encode(uint112 y) internal pure returns (uint224 z) {\r... */\n      jump\t// out\n        /* \"libraries/UQ112x112.sol\":524:632  function uqdiv(uint224 x, uint112 y) internal pure returns (uint224 z) {\r... */\n    tag_303:\n        /* \"libraries/UQ112x112.sol\":584:593  uint224 z */\n      0x00\n      sub(shl(0x70, 0x01), 0x01)\n        /* \"libraries/UQ112x112.sol\":614:624  uint224(y) */\n      dup3\n      and\n      sub(shl(0xe0, 0x01), 0x01)\n        /* \"libraries/UQ112x112.sol\":610:624  x / uint224(y) */\n      dup5\n      and\n        /* \"libraries/UQ112x112.sol\":614:624  uint224(y) */\n      dup2\n        /* \"libraries/UQ112x112.sol\":610:624  x / uint224(y) */\n      tag_351\n      jumpi\n      invalid\n    tag_351:\n      div\n      swap4\n        /* \"libraries/UQ112x112.sol\":524:632  function uqdiv(uint224 x, uint112 y) internal pure returns (uint224 z) {\r... */\n      swap3\n      pop\n      pop\n      pop\n      jump\t// out\n        /* \"libraries/SafeMath.sol\":206:334  function add(uint x, uint y) internal pure returns (uint z) {\r... */\n    tag_310:\n        /* \"libraries/SafeMath.sol\":290:295  x + y */\n      dup1\n      dup3\n      add\n        /* \"libraries/SafeMath.sol\":285:301  (z = x + y) >= x */\n      dup3\n      dup2\n      lt\n      iszero\n        /* \"libraries/SafeMath.sol\":277:326  require((z = x + y) >= x, 'ds-math-add-overflow') */\n      tag_161\n      jumpi\n      0x40\n      dup1\n      mload\n      shl(0xe5, 0x461bcd)\n      dup2\n      mstore\n      0x20\n      0x04\n      dup3\n      add\n      mstore\n      0x14\n      0x24\n      dup3\n      add\n      mstore\n      shl(0x60, 0x64732d6d6174682d6164642d6f766572666c6f77)\n      0x44\n      dup3\n      add\n      mstore\n      swap1\n      mload\n      swap1\n      dup2\n      swap1\n      sub\n      0x64\n      add\n      swap1\n      revert\n    stop\n    data_05339493da7e2cbe77e17beadf6b91132eb307939495f5f1797bf88d95539e83 556e697377617056323a20494e53554646494349454e545f4f55545055545f414d4f554e54\n    data_10e2efc32d8a31d3b2c11a545b3ed09c2dbabc58ef6de4033929d0002e425b67 556e697377617056323a20494e53554646494349454e545f494e5055545f414d4f554e54\n    data_3f354ef449b2a9b081220ce21f57691008110b653edc191d8288e60cef58bb5f 556e697377617056323a20494e53554646494349454e545f4c4951554944495459\n    data_57ebfb4dd8b5082cdba0f23c17077e3b0ecb9782a51e0e9a15e9bc8c4b30c562 556e697377617056323a20494e53554646494349454e545f4c49515549444954595f4255524e4544\n    data_6591c9f5bf1fefaad109b76a20e25c857b696080c952191f86220f001a83663e 556e697377617056323a20494e53554646494349454e545f4c49515549444954595f4d494e544544\n\n    auxdata: 0xa2646970667358221220ad30220329296149019bdd9e0c81865b4225b3b4cb6473207784abdb1b38ce0264736f6c634300060c0033\n}\n",
				"bytecode": {
					"linkReferences": {},
					"object": "60806040526001600c5534801561001557600080fd5b50604080518082018252600d81526c2227a725902628102a37b5b2b760991b6020918201528151808301835260018152603160f81b9082015281517f8b73c3c69bb8fe3d512ecc4cf759cc79239f7b179b0ffacaa9a75d522b39400f818301527fe01890de54fb23aff50faf69a1fa17b47db6bd52c9c481f2e51abea09eb031e2818401527fc89efdaa54c0f20c7adf612882df0950f5a951637e0307cdcb4c672f298b8bc660608201524660808201523060a0808301919091528351808303909101815260c09091019092528151910120600355600580546001600160a01b031916331790556121d68061010b6000396000f3fe608060405234801561001057600080fd5b50600436106101a95760003560e01c80636a627842116100f9578063ba9a7a5611610097578063d21220a711610071578063d21220a714610534578063d505accf1461053c578063dd62ed3e1461058d578063fff6cae9146105bb576101a9565b8063ba9a7a56146104fe578063bc25cf7714610506578063c45a01551461052c576101a9565b80637ecebe00116100d35780637ecebe001461046557806389afcb441461048b57806395d89b41146104ca578063a9059cbb146104d2576101a9565b80636a6278421461041157806370a08231146104375780637464fc3d1461045d576101a9565b806323b872dd116101665780633644e515116101405780633644e515146103cb578063485cc955146103d35780635909c0d5146104015780635a3d549314610409576101a9565b806323b872dd1461036f57806330adf81f146103a5578063313ce567146103ad576101a9565b8063022c0d9f146101ae57806306fdde031461023c5780630902f1ac146102b9578063095ea7b3146102f15780630dfe16811461033157806318160ddd14610355575b600080fd5b61023a600480360360808110156101c457600080fd5b8135916020810135916001600160a01b0360408301351691908101906080810160608201356401000000008111156101fb57600080fd5b82018360208201111561020d57600080fd5b8035906020019184600183028401116401000000008311171561022f57600080fd5b5090925090506105c3565b005b610244610acb565b6040805160208082528351818301528351919283929083019185019080838360005b8381101561027e578181015183820152602001610266565b50505050905090810190601f1680156102ab5780820380516001836020036101000a031916815260200191505b509250505060405180910390f35b6102c1610af4565b604080516001600160701b03948516815292909316602083015263ffffffff168183015290519081900360600190f35b61031d6004803603604081101561030757600080fd5b506001600160a01b038135169060200135610b1e565b604080519115158252519081900360200190f35b610339610b35565b604080516001600160a01b039092168252519081900360200190f35b61035d610b44565b60408051918252519081900360200190f35b61031d6004803603606081101561038557600080fd5b506001600160a01b03813581169160208101359091169060400135610b4a565b61035d610bde565b6103b5610c02565b6040805160ff9092168252519081900360200190f35b61035d610c07565b61023a600480360360408110156103e957600080fd5b506001600160a01b0381358116916020013516610c0d565b61035d610c91565b61035d610c97565b61035d6004803603602081101561042757600080fd5b50356001600160a01b0316610c9d565b61035d6004803603602081101561044d57600080fd5b50356001600160a01b0316610f79565b61035d610f8b565b61035d6004803603602081101561047b57600080fd5b50356001600160a01b0316610f91565b6104b1600480360360208110156104a157600080fd5b50356001600160a01b0316610fa3565b6040805192835260208301919091528051918290030190f35b610244611337565b61031d600480360360408110156104e857600080fd5b506001600160a01b03813516906020013561135a565b61035d611367565b61023a6004803603602081101561051c57600080fd5b50356001600160a01b031661136d565b6103396114df565b6103396114ee565b61023a600480360360e081101561055257600080fd5b506001600160a01b03813581169160208101359091169060408101359060608101359060ff6080820135169060a08101359060c001356114fd565b61035d600480360360408110156105a357600080fd5b506001600160a01b03813581169160200135166116ff565b61023a61171c565b600c5460011461060e576040805162461bcd60e51b8152602060048201526011602482015270155b9a5cddd85c158c8e881313d0d2d151607a1b604482015290519081900360640190fd5b6000600c55841515806106215750600084115b61065c5760405162461bcd60e51b81526004018080602001828103825260258152602001806120e76025913960400191505060405180910390fd5b600080610667610af4565b5091509150816001600160701b03168710801561068c5750806001600160701b031686105b6106c75760405162461bcd60e51b81526004018080602001828103825260218152602001806121306021913960400191505060405180910390fd5b60065460075460009182916001600160a01b039182169190811690891682148015906107055750806001600160a01b0316896001600160a01b031614155b61074e576040805162461bcd60e51b8152602060048201526015602482015274556e697377617056323a20494e56414c49445f544f60581b604482015290519081900360640190fd5b8a1561075f5761075f828a8d61187e565b891561077057610770818a8c61187e565b861561082257886001600160a01b03166310d1e85c338d8d8c8c6040518663ffffffff1660e01b815260040180866001600160a01b03168152602001858152602001848152602001806020018281038252848482818152602001925080828437600081840152601f19601f8201169050808301925050509650505050505050600060405180830381600087803b15801561080957600080fd5b505af115801561081d573d6000803e3d6000fd5b505050505b604080516370a0823160e01b815230600482015290516001600160a01b038416916370a08231916024808301926020929190829003018186803b15801561086857600080fd5b505afa15801561087c573d6000803e3d6000fd5b505050506040513d602081101561089257600080fd5b5051604080516370a0823160e01b815230600482015290519195506001600160a01b038316916370a0823191602480820192602092909190829003018186803b1580156108de57600080fd5b505afa1580156108f2573d6000803e3d6000fd5b505050506040513d602081101561090857600080fd5b5051925060009150506001600160701b0385168a9003831161092b57600061093a565b89856001600160701b03160383035b9050600089856001600160701b0316038311610957576000610966565b89856001600160701b03160383035b905060008211806109775750600081115b6109b25760405162461bcd60e51b815260040180806020018281038252602481526020018061210c6024913960400191505060405180910390fd5b60006109d46109c2846003611a18565b6109ce876103e8611a18565b90611a7b565b905060006109e66109c2846003611a18565b9050610a0b620f4240610a056001600160701b038b8116908b16611a18565b90611a18565b610a158383611a18565b1015610a57576040805162461bcd60e51b815260206004820152600c60248201526b556e697377617056323a204b60a01b604482015290519081900360640190fd5b5050610a6584848888611acb565b60408051838152602081018390528082018d9052606081018c905290516001600160a01b038b169133917fd78ad95fa46c994b6551d0da85fc275fe613ce37657fb8d5e3d130840159d8229181900360800190a350506001600c55505050505050505050565b6040518060400160405280600d81526020016c2227a725902628102a37b5b2b760991b81525081565b6008546001600160701b0380821692600160701b830490911691600160e01b900463ffffffff1690565b6000610b2b338484611c8a565b5060015b92915050565b6006546001600160a01b031681565b60005481565b6001600160a01b038316600090815260026020908152604080832033845290915281205460001914610bc9576001600160a01b0384166000908152600260209081526040808320338452909152902054610ba49083611a7b565b6001600160a01b03851660009081526002602090815260408083203384529091529020555b610bd4848484611cec565b5060019392505050565b7f6e71edae12b1b97f4d1f60370fef10105fa2faae0126114a169c64845d6126c981565b601281565b60035481565b6005546001600160a01b03163314610c63576040805162461bcd60e51b81526020600482015260146024820152732ab734b9bbb0b82b191d102327a92124a22222a760611b604482015290519081900360640190fd5b600680546001600160a01b039384166001600160a01b03199182161790915560078054929093169116179055565b60095481565b600a5481565b6000600c54600114610cea576040805162461bcd60e51b8152602060048201526011602482015270155b9a5cddd85c158c8e881313d0d2d151607a1b604482015290519081900360640190fd5b6000600c81905580610cfa610af4565b50600654604080516370a0823160e01b815230600482015290519395509193506000926001600160a01b03909116916370a08231916024808301926020929190829003018186803b158015610d4e57600080fd5b505afa158015610d62573d6000803e3d6000fd5b505050506040513d6020811015610d7857600080fd5b5051600754604080516370a0823160e01b815230600482015290519293506000926001600160a01b03909216916370a0823191602480820192602092909190829003018186803b158015610dcb57600080fd5b505afa158015610ddf573d6000803e3d6000fd5b505050506040513d6020811015610df557600080fd5b505190506000610e0e836001600160701b038716611a7b565b90506000610e25836001600160701b038716611a7b565b90506000610e338787611d9a565b60005490915080610e6a57610e566103e86109ce610e518787611a18565b611eda565b9850610e6560006103e8611f2c565b610ead565b610eaa6001600160701b038916610e818684611a18565b81610e8857fe5b046001600160701b038916610e9d8685611a18565b81610ea457fe5b04611fb6565b98505b60008911610eec5760405162461bcd60e51b81526004018080602001828103825260288152602001806121796028913960400191505060405180910390fd5b610ef68a8a611f2c565b610f0286868a8a611acb565b8115610f2c57600854610f28906001600160701b0380821691600160701b900416611a18565b600b555b6040805185815260208101859052815133927f4c209b5fc8ad50758f13e2e1088ba56a560dff690a1c6fef26394f4c03821c4f928290030190a250506001600c5550949695505050505050565b60016020526000908152604090205481565b600b5481565b60046020526000908152604090205481565b600080600c54600114610ff1576040805162461bcd60e51b8152602060048201526011602482015270155b9a5cddd85c158c8e881313d0d2d151607a1b604482015290519081900360640190fd5b6000600c81905580611001610af4565b50600654600754604080516370a0823160e01b815230600482015290519496509294506001600160a01b039182169391169160009184916370a08231916024808301926020929190829003018186803b15801561105d57600080fd5b505afa158015611071573d6000803e3d6000fd5b505050506040513d602081101561108757600080fd5b5051604080516370a0823160e01b815230600482015290519192506000916001600160a01b038516916370a08231916024808301926020929190829003018186803b1580156110d557600080fd5b505afa1580156110e9573d6000803e3d6000fd5b505050506040513d60208110156110ff57600080fd5b50513060009081526001602052604081205491925061111e8888611d9a565b6000549091508061112f8487611a18565b8161113657fe5b049a50806111448486611a18565b8161114b57fe5b04995060008b11801561115e575060008a115b6111995760405162461bcd60e51b81526004018080602001828103825260288152602001806121516028913960400191505060405180910390fd5b6111a33084611fce565b6111ae878d8d61187e565b6111b9868d8c61187e565b604080516370a0823160e01b815230600482015290516001600160a01b038916916370a08231916024808301926020929190829003018186803b1580156111ff57600080fd5b505afa158015611213573d6000803e3d6000fd5b505050506040513d602081101561122957600080fd5b5051604080516370a0823160e01b815230600482015290519196506001600160a01b038816916370a0823191602480820192602092909190829003018186803b15801561127557600080fd5b505afa158015611289573d6000803e3d6000fd5b505050506040513d602081101561129f57600080fd5b505193506112af85858b8b611acb565b81156112d9576008546112d5906001600160701b0380821691600160701b900416611a18565b600b555b604080518c8152602081018c905281516001600160a01b038f169233927fdccd412f0b1252819cb1fd330b93224ca42612892bb3f4f789976e6d81936496929081900390910190a35050505050505050506001600c81905550915091565b604051806040016040528060078152602001660444f4e4b2d4c560cc1b81525081565b6000610b2b338484611cec565b6103e881565b600c546001146113b8576040805162461bcd60e51b8152602060048201526011602482015270155b9a5cddd85c158c8e881313d0d2d151607a1b604482015290519081900360640190fd5b6000600c55600654600754600854604080516370a0823160e01b815230600482015290516001600160a01b039485169490931692611461928592879261145c926001600160701b03169185916370a0823191602480820192602092909190829003018186803b15801561142a57600080fd5b505afa15801561143e573d6000803e3d6000fd5b505050506040513d602081101561145457600080fd5b505190611a7b565b61187e565b6114d5818461145c6008600e9054906101000a90046001600160701b03166001600160701b0316856001600160a01b03166370a08231306040518263ffffffff1660e01b815260040180826001600160a01b0316815260200191505060206040518083038186803b15801561142a57600080fd5b50506001600c5550565b6005546001600160a01b031681565b6007546001600160a01b031681565b42841015611547576040805162461bcd60e51b8152602060048201526012602482015271155b9a5cddd85c158c8e881156141254915160721b604482015290519081900360640190fd5b6003546001600160a01b0380891660008181526004602090815260408083208054600180820190925582517f6e71edae12b1b97f4d1f60370fef10105fa2faae0126114a169c64845d6126c98186015280840196909652958d166060860152608085018c905260a085019590955260c08085018b90528151808603909101815260e08501825280519083012061190160f01b6101008601526101028501969096526101228085019690965280518085039096018652610142840180825286519683019690962095839052610162840180825286905260ff89166101828501526101a284018890526101c28401879052519193926101e280820193601f1981019281900390910190855afa158015611662573d6000803e3d6000fd5b5050604051601f1901519150506001600160a01b038116158015906116985750886001600160a01b0316816001600160a01b0316145b6116e9576040805162461bcd60e51b815260206004820152601c60248201527f556e697377617056323a20494e56414c49445f5349474e415455524500000000604482015290519081900360640190fd5b6116f4898989611c8a565b505050505050505050565b600260209081526000928352604080842090915290825290205481565b600c54600114611767576040805162461bcd60e51b8152602060048201526011602482015270155b9a5cddd85c158c8e881313d0d2d151607a1b604482015290519081900360640190fd5b6000600c55600654604080516370a0823160e01b81523060048201529051611877926001600160a01b0316916370a08231916024808301926020929190829003018186803b1580156117b857600080fd5b505afa1580156117cc573d6000803e3d6000fd5b505050506040513d60208110156117e257600080fd5b5051600754604080516370a0823160e01b815230600482015290516001600160a01b03909216916370a0823191602480820192602092909190829003018186803b15801561182f57600080fd5b505afa158015611843573d6000803e3d6000fd5b505050506040513d602081101561185957600080fd5b50516008546001600160701b0380821691600160701b900416611acb565b6001600c55565b604080518082018252601981527f7472616e7366657228616464726573732c75696e74323536290000000000000060209182015281516001600160a01b0385811660248301526044808301869052845180840390910181526064909201845291810180516001600160e01b031663a9059cbb60e01b1781529251815160009460609489169392918291908083835b6020831061192b5780518252601f19909201916020918201910161190c565b6001836020036101000a0380198251168184511680821785525050505050509050019150506000604051808303816000865af19150503d806000811461198d576040519150601f19603f3d011682016040523d82523d6000602084013e611992565b606091505b50915091508180156119c05750805115806119c057508080602001905160208110156119bd57600080fd5b50515b611a11576040805162461bcd60e51b815260206004820152601a60248201527f556e697377617056323a205452414e534645525f4641494c4544000000000000604482015290519081900360640190fd5b5050505050565b6000811580611a3357505080820282828281611a3057fe5b04145b610b2f576040805162461bcd60e51b815260206004820152601460248201527364732d6d6174682d6d756c2d6f766572666c6f7760601b604482015290519081900360640190fd5b80820382811115610b2f576040805162461bcd60e51b815260206004820152601560248201527464732d6d6174682d7375622d756e646572666c6f7760581b604482015290519081900360640190fd5b6001600160701b038411801590611ae957506001600160701b038311155b611b30576040805162461bcd60e51b8152602060048201526013602482015272556e697377617056323a204f564552464c4f5760681b604482015290519081900360640190fd5b60085463ffffffff42811691600160e01b90048116820390811615801590611b6057506001600160701b03841615155b8015611b7457506001600160701b03831615155b15611bdf578063ffffffff16611b9c85611b8d86612060565b6001600160e01b031690612072565b600980546001600160e01b03929092169290920201905563ffffffff8116611bc784611b8d87612060565b600a80546001600160e01b0392909216929092020190555b600880546dffffffffffffffffffffffffffff19166001600160701b03888116919091176dffffffffffffffffffffffffffff60701b1916600160701b8883168102919091176001600160e01b0316600160e01b63ffffffff871602179283905560408051848416815291909304909116602082015281517f1c411e9a96e071241c2f21f7726b17ae89e3cab4c78be50e062b03a9fffbbad1929181900390910190a1505050505050565b6001600160a01b03808416600081815260026020908152604080832094871680845294825291829020859055815185815291517f8c5be1e5ebec7d5bd14f71427d1e84f3dd0314c0f7b2291e5b200ac8c7c3b9259281900390910190a3505050565b6001600160a01b038316600090815260016020526040902054611d0f9082611a7b565b6001600160a01b038085166000908152600160205260408082209390935590841681522054611d3e9082612097565b6001600160a01b0380841660008181526001602090815260409182902094909455805185815290519193928716927fddf252ad1be2c89b69c2b068fc378daa952ba7f163c4a11628f55a4df523b3ef92918290030190a3505050565b600080600560009054906101000a90046001600160a01b03166001600160a01b031663017e7e586040518163ffffffff1660e01b815260040160206040518083038186803b158015611deb57600080fd5b505afa158015611dff573d6000803e3d6000fd5b505050506040513d6020811015611e1557600080fd5b5051600b546001600160a01b038216158015945091925090611ec6578015611ec1576000611e52610e516001600160701b03888116908816611a18565b90506000611e5f83611eda565b905080821115611ebe576000611e81611e788484611a7b565b60005490611a18565b90506000611e9a83611e94866002611a18565b90612097565b90506000818381611ea757fe5b0490508015611eba57611eba8782611f2c565b5050505b50505b611ed2565b8015611ed2576000600b555b505092915050565b60006003821115611f1d575080600160028204015b81811015611f1757809150600281828581611f0657fe5b040181611f0f57fe5b049050611eef565b50611f27565b8115611f27575060015b919050565b600054611f399082612097565b60009081556001600160a01b038316815260016020526040902054611f5e9082612097565b6001600160a01b03831660008181526001602090815260408083209490945583518581529351929391927fddf252ad1be2c89b69c2b068fc378daa952ba7f163c4a11628f55a4df523b3ef9281900390910190a35050565b6000818310611fc55781611fc7565b825b9392505050565b6001600160a01b038216600090815260016020526040902054611ff19082611a7b565b6001600160a01b038316600090815260016020526040812091909155546120189082611a7b565b60009081556040805183815290516001600160a01b038516917fddf252ad1be2c89b69c2b068fc378daa952ba7f163c4a11628f55a4df523b3ef919081900360200190a35050565b6001600160701b0316600160701b0290565b60006001600160701b0382166001600160e01b0384168161208f57fe5b049392505050565b80820182811015610b2f576040805162461bcd60e51b815260206004820152601460248201527364732d6d6174682d6164642d6f766572666c6f7760601b604482015290519081900360640190fdfe556e697377617056323a20494e53554646494349454e545f4f55545055545f414d4f554e54556e697377617056323a20494e53554646494349454e545f494e5055545f414d4f554e54556e697377617056323a20494e53554646494349454e545f4c4951554944495459556e697377617056323a20494e53554646494349454e545f4c49515549444954595f4255524e4544556e697377617056323a20494e53554646494349454e545f4c49515549444954595f4d494e544544a2646970667358221220ad30220329296149019bdd9e0c81865b4225b3b4cb6473207784abdb1b38ce0264736f6c634300060c0033",
					"opcodes": "PUSH1 0x80 PUSH1 0x40 MSTORE PUSH1 0x1 PUSH1 0xC SSTORE CALLVALUE DUP1 ISZERO PUSH2 0x15 JUMPI PUSH1 0x0 DUP1 REVERT JUMPDEST POP PUSH1 0x40 DUP1 MLOAD DUP1 DUP3 ADD DUP3 MSTORE PUSH1 0xD DUP2 MSTORE PUSH13 0x2227A725902628102A37B5B2B7 PUSH1 0x99 SHL PUSH1 0x20 SWAP2 DUP3 ADD MSTORE DUP2 MLOAD DUP1 DUP4 ADD DUP4 MSTORE PUSH1 0x1 DUP2 MSTORE PUSH1 0x31 PUSH1 0xF8 SHL SWAP1 DUP3 ADD MSTORE DUP2 MLOAD PUSH32 0x8B73C3C69BB8FE3D512ECC4CF759CC79239F7B179B0FFACAA9A75D522B39400F DUP2 DUP4 ADD MSTORE PUSH32 0xE01890DE54FB23AFF50FAF69A1FA17B47DB6BD52C9C481F2E51ABEA09EB031E2 DUP2 DUP5 ADD MSTORE PUSH32 0xC89EFDAA54C0F20C7ADF612882DF0950F5A951637E0307CDCB4C672F298B8BC6 PUSH1 0x60 DUP3 ADD MSTORE CHAINID PUSH1 0x80 DUP3 ADD MSTORE ADDRESS PUSH1 0xA0 DUP1 DUP4 ADD SWAP2 SWAP1 SWAP2 MSTORE DUP4 MLOAD DUP1 DUP4 SUB SWAP1 SWAP2 ADD DUP2 MSTORE PUSH1 0xC0 SWAP1 SWAP2 ADD SWAP1 SWAP3 MSTORE DUP2 MLOAD SWAP2 ADD KECCAK256 PUSH1 0x3 SSTORE PUSH1 0x5 DUP1 SLOAD PUSH1 0x1 PUSH1 0x1 PUSH1 0xA0 SHL SUB NOT AND CALLER OR SWAP1 SSTORE PUSH2 0x21D6 DUP1 PUSH2 0x10B PUSH1 0x0 CODECOPY PUSH1 0x0 RETURN INVALID PUSH1 0x80 PUSH1 0x40 MSTORE CALLVALUE DUP1 ISZERO PUSH2 0x10 JUMPI PUSH1 0x0 DUP1 REVERT JUMPDEST POP PUSH1 0x4 CALLDATASIZE LT PUSH2 0x1A9 JUMPI PUSH1 0x0 CALLDATALOAD PUSH1 0xE0 SHR DUP1 PUSH4 0x6A627842 GT PUSH2 0xF9 JUMPI DUP1 PUSH4 0xBA9A7A56 GT PUSH2 0x97 JUMPI DUP1 PUSH4 0xD21220A7 GT PUSH2 0x71 JUMPI DUP1 PUSH4 0xD21220A7 EQ PUSH2 0x534 JUMPI DUP1 PUSH4 0xD505ACCF EQ PUSH2 0x53C JUMPI DUP1 PUSH4 0xDD62ED3E EQ PUSH2 0x58D JUMPI DUP1 PUSH4 0xFFF6CAE9 EQ PUSH2 0x5BB JUMPI PUSH2 0x1A9 JUMP JUMPDEST DUP1 PUSH4 0xBA9A7A56 EQ PUSH2 0x4FE JUMPI DUP1 PUSH4 0xBC25CF77 EQ PUSH2 0x506 JUMPI DUP1 PUSH4 0xC45A0155 EQ PUSH2 0x52C JUMPI PUSH2 0x1A9 JUMP JUMPDEST DUP1 PUSH4 0x7ECEBE00 GT PUSH2 0xD3 JUMPI DUP1 PUSH4 0x7ECEBE00 EQ PUSH2 0x465 JUMPI DUP1 PUSH4 0x89AFCB44 EQ PUSH2 0x48B JUMPI DUP1 PUSH4 0x95D89B41 EQ PUSH2 0x4CA JUMPI DUP1 PUSH4 0xA9059CBB EQ PUSH2 0x4D2 JUMPI PUSH2 0x1A9 JUMP JUMPDEST DUP1 PUSH4 0x6A627842 EQ PUSH2 0x411 JUMPI DUP1 PUSH4 0x70A08231 EQ PUSH2 0x437 JUMPI DUP1 PUSH4 0x7464FC3D EQ PUSH2 0x45D JUMPI PUSH2 0x1A9 JUMP JUMPDEST DUP1 PUSH4 0x23B872DD GT PUSH2 0x166 JUMPI DUP1 PUSH4 0x3644E515 GT PUSH2 0x140 JUMPI DUP1 PUSH4 0x3644E515 EQ PUSH2 0x3CB JUMPI DUP1 PUSH4 0x485CC955 EQ PUSH2 0x3D3 JUMPI DUP1 PUSH4 0x5909C0D5 EQ PUSH2 0x401 JUMPI DUP1 PUSH4 0x5A3D5493 EQ PUSH2 0x409 JUMPI PUSH2 0x1A9 JUMP JUMPDEST DUP1 PUSH4 0x23B872DD EQ PUSH2 0x36F JUMPI DUP1 PUSH4 0x30ADF81F EQ PUSH2 0x3A5 JUMPI DUP1 PUSH4 0x313CE567 EQ PUSH2 0x3AD JUMPI PUSH2 0x1A9 JUMP JUMPDEST DUP1 PUSH4 0x22C0D9F EQ PUSH2 0x1AE JUMPI DUP1 PUSH4 0x6FDDE03 EQ PUSH2 0x23C JUMPI DUP1 PUSH4 0x902F1AC EQ PUSH2 0x2B9 JUMPI DUP1 PUSH4 0x95EA7B3 EQ PUSH2 0x2F1 JUMPI DUP1 PUSH4 0xDFE1681 EQ PUSH2 0x331 JUMPI DUP1 PUSH4 0x18160DDD EQ PUSH2 0x355 JUMPI JUMPDEST PUSH1 0x0 DUP1 REVERT JUMPDEST PUSH2 0x23A PUSH1 0x4 DUP1 CALLDATASIZE SUB PUSH1 0x80 DUP2 LT ISZERO PUSH2 0x1C4 JUMPI PUSH1 0x0 DUP1 REVERT JUMPDEST DUP2 CALLDATALOAD SWAP2 PUSH1 0x20 DUP2 ADD CALLDATALOAD SWAP2 PUSH1 0x1 PUSH1 0x1 PUSH1 0xA0 SHL SUB PUSH1 0x40 DUP4 ADD CALLDATALOAD AND SWAP2 SWAP1 DUP2 ADD SWAP1 PUSH1 0x80 DUP2 ADD PUSH1 0x60 DUP3 ADD CALLDATALOAD PUSH5 0x100000000 DUP2 GT ISZERO PUSH2 0x1FB JUMPI PUSH1 0x0 DUP1 REVERT JUMPDEST DUP3 ADD DUP4 PUSH1 0x20 DUP3 ADD GT ISZERO PUSH2 0x20D JUMPI PUSH1 0x0 DUP1 REVERT JUMPDEST DUP1 CALLDATALOAD SWAP1 PUSH1 0x20 ADD SWAP2 DUP5 PUSH1 0x1 DUP4 MUL DUP5 ADD GT PUSH5 0x100000000 DUP4 GT OR ISZERO PUSH2 0x22F JUMPI PUSH1 0x0 DUP1 REVERT JUMPDEST POP SWAP1 SWAP3 POP SWAP1 POP PUSH2 0x5C3 JUMP JUMPDEST STOP JUMPDEST PUSH2 0x244 PUSH2 0xACB JUMP JUMPDEST PUSH1 0x40 DUP1 MLOAD PUSH1 0x20 DUP1 DUP3 MSTORE DUP4 MLOAD DUP2 DUP4 ADD MSTORE DUP4 MLOAD SWAP2 SWAP3 DUP4 SWAP3 SWAP1 DUP4 ADD SWAP2 DUP6 ADD SWAP1 DUP1 DUP4 DUP4 PUSH1 0x0 JUMPDEST DUP4 DUP2 LT ISZERO PUSH2 0x27E JUMPI DUP2 DUP2 ADD MLOAD DUP4 DUP3 ADD MSTORE PUSH1 0x20 ADD PUSH2 0x266 JUMP JUMPDEST POP POP POP POP SWAP1 POP SWAP1 DUP2 ADD SWAP1 PUSH1 0x1F AND DUP1 ISZERO PUSH2 0x2AB JUMPI DUP1 DUP3 SUB DUP1 MLOAD PUSH1 0x1 DUP4 PUSH1 0x20 SUB PUSH2 0x100 EXP SUB NOT AND DUP2 MSTORE PUSH1 0x20 ADD SWAP2 POP JUMPDEST POP SWAP3 POP POP POP PUSH1 0x40 MLOAD DUP1 SWAP2 SUB SWAP1 RETURN JUMPDEST PUSH2 0x2C1 PUSH2 0xAF4 JUMP JUMPDEST PUSH1 0x40 DUP1 MLOAD PUSH1 0x1 PUSH1 0x1 PUSH1 0x70 SHL SUB SWAP5 DUP6 AND DUP2 MSTORE SWAP3 SWAP1 SWAP4 AND PUSH1 0x20 DUP4 ADD MSTORE PUSH4 0xFFFFFFFF AND DUP2 DUP4 ADD MSTORE SWAP1 MLOAD SWAP1 DUP2 SWAP1 SUB PUSH1 0x60 ADD SWAP1 RETURN JUMPDEST PUSH2 0x31D PUSH1 0x4 DUP1 CALLDATASIZE SUB PUSH1 0x40 DUP2 LT ISZERO PUSH2 0x307 JUMPI PUSH1 0x0 DUP1 REVERT JUMPDEST POP PUSH1 0x1 PUSH1 0x1 PUSH1 0xA0 SHL SUB DUP2 CALLDATALOAD AND SWAP1 PUSH1 0x20 ADD CALLDATALOAD PUSH2 0xB1E JUMP JUMPDEST PUSH1 0x40 DUP1 MLOAD SWAP2 ISZERO ISZERO DUP3 MSTORE MLOAD SWAP1 DUP2 SWAP1 SUB PUSH1 0x20 ADD SWAP1 RETURN JUMPDEST PUSH2 0x339 PUSH2 0xB35 JUMP JUMPDEST PUSH1 0x40 DUP1 MLOAD PUSH1 0x1 PUSH1 0x1 PUSH1 0xA0 SHL SUB SWAP1 SWAP3 AND DUP3 MSTORE MLOAD SWAP1 DUP2 SWAP1 SUB PUSH1 0x20 ADD SWAP1 RETURN JUMPDEST PUSH2 0x35D PUSH2 0xB44 JUMP JUMPDEST PUSH1 0x40 DUP1 MLOAD SWAP2 DUP3 MSTORE MLOAD SWAP1 DUP2 SWAP1 SUB PUSH1 0x20 ADD SWAP1 RETURN JUMPDEST PUSH2 0x31D PUSH1 0x4 DUP1 CALLDATASIZE SUB PUSH1 0x60 DUP2 LT ISZERO PUSH2 0x385 JUMPI PUSH1 0x0 DUP1 REVERT JUMPDEST POP PUSH1 0x1 PUSH1 0x1 PUSH1 0xA0 SHL SUB DUP2 CALLDATALOAD DUP2 AND SWAP2 PUSH1 0x20 DUP2 ADD CALLDATALOAD SWAP1 SWAP2 AND SWAP1 PUSH1 0x40 ADD CALLDATALOAD PUSH2 0xB4A JUMP JUMPDEST PUSH2 0x35D PUSH2 0xBDE JUMP JUMPDEST PUSH2 0x3B5 PUSH2 0xC02 JUMP JUMPDEST PUSH1 0x40 DUP1 MLOAD PUSH1 0xFF SWAP1 SWAP3 AND DUP3 MSTORE MLOAD SWAP1 DUP2 SWAP1 SUB PUSH1 0x20 ADD SWAP1 RETURN JUMPDEST PUSH2 0x35D PUSH2 0xC07 JUMP JUMPDEST PUSH2 0x23A PUSH1 0x4 DUP1 CALLDATASIZE SUB PUSH1 0x40 DUP2 LT ISZERO PUSH2 0x3E9 JUMPI PUSH1 0x0 DUP1 REVERT JUMPDEST POP PUSH1 0x1 PUSH1 0x1 PUSH1 0xA0 SHL SUB DUP2 CALLDATALOAD DUP2 AND SWAP2 PUSH1 0x20 ADD CALLDATALOAD AND PUSH2 0xC0D JUMP JUMPDEST PUSH2 0x35D PUSH2 0xC91 JUMP JUMPDEST PUSH2 0x35D PUSH2 0xC97 JUMP JUMPDEST PUSH2 0x35D PUSH1 0x4 DUP1 CALLDATASIZE SUB PUSH1 0x20 DUP2 LT ISZERO PUSH2 0x427 JUMPI PUSH1 0x0 DUP1 REVERT JUMPDEST POP CALLDATALOAD PUSH1 0x1 PUSH1 0x1 PUSH1 0xA0 SHL SUB AND PUSH2 0xC9D JUMP JUMPDEST PUSH2 0x35D PUSH1 0x4 DUP1 CALLDATASIZE SUB PUSH1 0x20 DUP2 LT ISZERO PUSH2 0x44D JUMPI PUSH1 0x0 DUP1 REVERT JUMPDEST POP CALLDATALOAD PUSH1 0x1 PUSH1 0x1 PUSH1 0xA0 SHL SUB AND PUSH2 0xF79 JUMP JUMPDEST PUSH2 0x35D PUSH2 0xF8B JUMP JUMPDEST PUSH2 0x35D PUSH1 0x4 DUP1 CALLDATASIZE SUB PUSH1 0x20 DUP2 LT ISZERO PUSH2 0x47B JUMPI PUSH1 0x0 DUP1 REVERT JUMPDEST POP CALLDATALOAD PUSH1 0x1 PUSH1 0x1 PUSH1 0xA0 SHL SUB AND PUSH2 0xF91 JUMP JUMPDEST PUSH2 0x4B1 PUSH1 0x4 DUP1 CALLDATASIZE SUB PUSH1 0x20 DUP2 LT ISZERO PUSH2 0x4A1 JUMPI PUSH1 0x0 DUP1 REVERT JUMPDEST POP CALLDATALOAD PUSH1 0x1 PUSH1 0x1 PUSH1 0xA0 SHL SUB AND PUSH2 0xFA3 JUMP JUMPDEST PUSH1 0x40 DUP1 MLOAD SWAP3 DUP4 MSTORE PUSH1 0x20 DUP4 ADD SWAP2 SWAP1 SWAP2 MSTORE DUP1 MLOAD SWAP2 DUP3 SWAP1 SUB ADD SWAP1 RETURN JUMPDEST PUSH2 0x244 PUSH2 0x1337 JUMP JUMPDEST PUSH2 0x31D PUSH1 0x4 DUP1 CALLDATASIZE SUB PUSH1 0x40 DUP2 LT ISZERO PUSH2 0x4E8 JUMPI PUSH1 0x0 DUP1 REVERT JUMPDEST POP PUSH1 0x1 PUSH1 0x1 PUSH1 0xA0 SHL SUB DUP2 CALLDATALOAD AND SWAP1 PUSH1 0x20 ADD CALLDATALOAD PUSH2 0x135A JUMP JUMPDEST PUSH2 0x35D PUSH2 0x1367 JUMP JUMPDEST PUSH2 0x23A PUSH1 0x4 DUP1 CALLDATASIZE SUB PUSH1 0x20 DUP2 LT ISZERO PUSH2 0x51C JUMPI PUSH1 0x0 DUP1 REVERT JUMPDEST POP CALLDATALOAD PUSH1 0x1 PUSH1 0x1 PUSH1 0xA0 SHL SUB AND PUSH2 0x136D JUMP JUMPDEST PUSH2 0x339 PUSH2 0x14DF JUMP JUMPDEST PUSH2 0x339 PUSH2 0x14EE JUMP JUMPDEST PUSH2 0x23A PUSH1 0x4 DUP1 CALLDATASIZE SUB PUSH1 0xE0 DUP2 LT ISZERO PUSH2 0x552 JUMPI PUSH1 0x0 DUP1 REVERT JUMPDEST POP PUSH1 0x1 PUSH1 0x1 PUSH1 0xA0 SHL SUB DUP2 CALLDATALOAD DUP2 AND SWAP2 PUSH1 0x20 DUP2 ADD CALLDATALOAD SWAP1 SWAP2 AND SWAP1 PUSH1 0x40 DUP2 ADD CALLDATALOAD SWAP1 PUSH1 0x60 DUP2 ADD CALLDATALOAD SWAP1 PUSH1 0xFF PUSH1 0x80 DUP3 ADD CALLDATALOAD AND SWAP1 PUSH1 0xA0 DUP2 ADD CALLDATALOAD SWAP1 PUSH1 0xC0 ADD CALLDATALOAD PUSH2 0x14FD JUMP JUMPDEST PUSH2 0x35D PUSH1 0x4 DUP1 CALLDATASIZE SUB PUSH1 0x40 DUP2 LT ISZERO PUSH2 0x5A3 JUMPI PUSH1 0x0 DUP1 REVERT JUMPDEST POP PUSH1 0x1 PUSH1 0x1 PUSH1 0xA0 SHL SUB DUP2 CALLDATALOAD DUP2 AND SWAP2 PUSH1 0x20 ADD CALLDATALOAD AND PUSH2 0x16FF JUMP JUMPDEST PUSH2 0x23A PUSH2 0x171C JUMP JUMPDEST PUSH1 0xC SLOAD PUSH1 0x1 EQ PUSH2 0x60E JUMPI PUSH1 0x40 DUP1 MLOAD PUSH3 0x461BCD PUSH1 0xE5 SHL DUP2 MSTORE PUSH1 0x20 PUSH1 0x4 DUP3 ADD MSTORE PUSH1 0x11 PUSH1 0x24 DUP3 ADD MSTORE PUSH17 0x155B9A5CDDD85C158C8E881313D0D2D151 PUSH1 0x7A SHL PUSH1 0x44 DUP3 ADD MSTORE SWAP1 MLOAD SWAP1 DUP2 SWAP1 SUB PUSH1 0x64 ADD SWAP1 REVERT JUMPDEST PUSH1 0x0 PUSH1 0xC SSTORE DUP5 ISZERO ISZERO DUP1 PUSH2 0x621 JUMPI POP PUSH1 0x0 DUP5 GT JUMPDEST PUSH2 0x65C JUMPI PUSH1 0x40 MLOAD PUSH3 0x461BCD PUSH1 0xE5 SHL DUP2 MSTORE PUSH1 0x4 ADD DUP1 DUP1 PUSH1 0x20 ADD DUP3 DUP2 SUB DUP3 MSTORE PUSH1 0x25 DUP2 MSTORE PUSH1 0x20 ADD DUP1 PUSH2 0x20E7 PUSH1 0x25 SWAP2 CODECOPY PUSH1 0x40 ADD SWAP2 POP POP PUSH1 0x40 MLOAD DUP1 SWAP2 SUB SWAP1 REVERT JUMPDEST PUSH1 0x0 DUP1 PUSH2 0x667 PUSH2 0xAF4 JUMP JUMPDEST POP SWAP2 POP SWAP2 POP DUP2 PUSH1 0x1 PUSH1 0x1 PUSH1 0x70 SHL SUB AND DUP8 LT DUP1 ISZERO PUSH2 0x68C JUMPI POP DUP1 PUSH1 0x1 PUSH1 0x1 PUSH1 0x70 SHL SUB AND DUP7 LT JUMPDEST PUSH2 0x6C7 JUMPI PUSH1 0x40 MLOAD PUSH3 0x461BCD PUSH1 0xE5 SHL DUP2 MSTORE PUSH1 0x4 ADD DUP1 DUP1 PUSH1 0x20 ADD DUP3 DUP2 SUB DUP3 MSTORE PUSH1 0x21 DUP2 MSTORE PUSH1 0x20 ADD DUP1 PUSH2 0x2130 PUSH1 0x21 SWAP2 CODECOPY PUSH1 0x40 ADD SWAP2 POP POP PUSH1 0x40 MLOAD DUP1 SWAP2 SUB SWAP1 REVERT JUMPDEST PUSH1 0x6 SLOAD PUSH1 0x7 SLOAD PUSH1 0x0 SWAP2 DUP3 SWAP2 PUSH1 0x1 PUSH1 0x1 PUSH1 0xA0 SHL SUB SWAP2 DUP3 AND SWAP2 SWAP1 DUP2 AND SWAP1 DUP10 AND DUP3 EQ DUP1 ISZERO SWAP1 PUSH2 0x705 JUMPI POP DUP1 PUSH1 0x1 PUSH1 0x1 PUSH1 0xA0 SHL SUB AND DUP10 PUSH1 0x1 PUSH1 0x1 PUSH1 0xA0 SHL SUB AND EQ ISZERO JUMPDEST PUSH2 0x74E JUMPI PUSH1 0x40 DUP1 MLOAD PUSH3 0x461BCD PUSH1 0xE5 SHL DUP2 MSTORE PUSH1 0x20 PUSH1 0x4 DUP3 ADD MSTORE PUSH1 0x15 PUSH1 0x24 DUP3 ADD MSTORE PUSH21 0x556E697377617056323A20494E56414C49445F544F PUSH1 0x58 SHL PUSH1 0x44 DUP3 ADD MSTORE SWAP1 MLOAD SWAP1 DUP2 SWAP1 SUB PUSH1 0x64 ADD SWAP1 REVERT JUMPDEST DUP11 ISZERO PUSH2 0x75F JUMPI PUSH2 0x75F DUP3 DUP11 DUP14 PUSH2 0x187E JUMP JUMPDEST DUP10 ISZERO PUSH2 0x770 JUMPI PUSH2 0x770 DUP2 DUP11 DUP13 PUSH2 0x187E JUMP JUMPDEST DUP7 ISZERO PUSH2 0x822 JUMPI DUP9 PUSH1 0x1 PUSH1 0x1 PUSH1 0xA0 SHL SUB AND PUSH4 0x10D1E85C CALLER DUP14 DUP14 DUP13 DUP13 PUSH1 0x40 MLOAD DUP7 PUSH4 0xFFFFFFFF AND PUSH1 0xE0 SHL DUP2 MSTORE PUSH1 0x4 ADD DUP1 DUP7 PUSH1 0x1 PUSH1 0x1 PUSH1 0xA0 SHL SUB AND DUP2 MSTORE PUSH1 0x20 ADD DUP6 DUP2 MSTORE PUSH1 0x20 ADD DUP5 DUP2 MSTORE PUSH1 0x20 ADD DUP1 PUSH1 0x20 ADD DUP3 DUP2 SUB DUP3 MSTORE DUP5 DUP5 DUP3 DUP2 DUP2 MSTORE PUSH1 0x20 ADD SWAP3 POP DUP1 DUP3 DUP5 CALLDATACOPY PUSH1 0x0 DUP2 DUP5 ADD MSTORE PUSH1 0x1F NOT PUSH1 0x1F DUP3 ADD AND SWAP1 POP DUP1 DUP4 ADD SWAP3 POP POP POP SWAP7 POP POP POP POP POP POP POP PUSH1 0x0 PUSH1 0x40 MLOAD DUP1 DUP4 SUB DUP2 PUSH1 0x0 DUP8 DUP1 EXTCODESIZE ISZERO DUP1 ISZERO PUSH2 0x809 JUMPI PUSH1 0x0 DUP1 REVERT JUMPDEST POP GAS CALL ISZERO DUP1 ISZERO PUSH2 0x81D JUMPI RETURNDATASIZE PUSH1 0x0 DUP1 RETURNDATACOPY RETURNDATASIZE PUSH1 0x0 REVERT JUMPDEST POP POP POP POP JUMPDEST PUSH1 0x40 DUP1 MLOAD PUSH4 0x70A08231 PUSH1 0xE0 SHL DUP2 MSTORE ADDRESS PUSH1 0x4 DUP3 ADD MSTORE SWAP1 MLOAD PUSH1 0x1 PUSH1 0x1 PUSH1 0xA0 SHL SUB DUP5 AND SWAP2 PUSH4 0x70A08231 SWAP2 PUSH1 0x24 DUP1 DUP4 ADD SWAP3 PUSH1 0x20 SWAP3 SWAP2 SWAP1 DUP3 SWAP1 SUB ADD DUP2 DUP7 DUP1 EXTCODESIZE ISZERO DUP1 ISZERO PUSH2 0x868 JUMPI PUSH1 0x0 DUP1 REVERT JUMPDEST POP GAS STATICCALL ISZERO DUP1 ISZERO PUSH2 0x87C JUMPI RETURNDATASIZE PUSH1 0x0 DUP1 RETURNDATACOPY RETURNDATASIZE PUSH1 0x0 REVERT JUMPDEST POP POP POP POP PUSH1 0x40 MLOAD RETURNDATASIZE PUSH1 0x20 DUP2 LT ISZERO PUSH2 0x892 JUMPI PUSH1 0x0 DUP1 REVERT JUMPDEST POP MLOAD PUSH1 0x40 DUP1 MLOAD PUSH4 0x70A08231 PUSH1 0xE0 SHL DUP2 MSTORE ADDRESS PUSH1 0x4 DUP3 ADD MSTORE SWAP1 MLOAD SWAP2 SWAP6 POP PUSH1 0x1 PUSH1 0x1 PUSH1 0xA0 SHL SUB DUP4 AND SWAP2 PUSH4 0x70A08231 SWAP2 PUSH1 0x24 DUP1 DUP3 ADD SWAP3 PUSH1 0x20 SWAP3 SWAP1 SWAP2 SWAP1 DUP3 SWAP1 SUB ADD DUP2 DUP7 DUP1 EXTCODESIZE ISZERO DUP1 ISZERO PUSH2 0x8DE JUMPI PUSH1 0x0 DUP1 REVERT JUMPDEST POP GAS STATICCALL ISZERO DUP1 ISZERO PUSH2 0x8F2 JUMPI RETURNDATASIZE PUSH1 0x0 DUP1 RETURNDATACOPY RETURNDATASIZE PUSH1 0x0 REVERT JUMPDEST POP POP POP POP PUSH1 0x40 MLOAD RETURNDATASIZE PUSH1 0x20 DUP2 LT ISZERO PUSH2 0x908 JUMPI PUSH1 0x0 DUP1 REVERT JUMPDEST POP MLOAD SWAP3 POP PUSH1 0x0 SWAP2 POP POP PUSH1 0x1 PUSH1 0x1 PUSH1 0x70 SHL SUB DUP6 AND DUP11 SWAP1 SUB DUP4 GT PUSH2 0x92B JUMPI PUSH1 0x0 PUSH2 0x93A JUMP JUMPDEST DUP10 DUP6 PUSH1 0x1 PUSH1 0x1 PUSH1 0x70 SHL SUB AND SUB DUP4 SUB JUMPDEST SWAP1 POP PUSH1 0x0 DUP10 DUP6 PUSH1 0x1 PUSH1 0x1 PUSH1 0x70 SHL SUB AND SUB DUP4 GT PUSH2 0x957 JUMPI PUSH1 0x0 PUSH2 0x966 JUMP JUMPDEST DUP10 DUP6 PUSH1 0x1 PUSH1 0x1 PUSH1 0x70 SHL SUB AND SUB DUP4 SUB JUMPDEST SWAP1 POP PUSH1 0x0 DUP3 GT DUP1 PUSH2 0x977 JUMPI POP PUSH1 0x0 DUP2 GT JUMPDEST PUSH2 0x9B2 JUMPI PUSH1 0x40 MLOAD PUSH3 0x461BCD PUSH1 0xE5 SHL DUP2 MSTORE PUSH1 0x4 ADD DUP1 DUP1 PUSH1 0x20 ADD DUP3 DUP2 SUB DUP3 MSTORE PUSH1 0x24 DUP2 MSTORE PUSH1 0x20 ADD DUP1 PUSH2 0x210C PUSH1 0x24 SWAP2 CODECOPY PUSH1 0x40 ADD SWAP2 POP POP PUSH1 0x40 MLOAD DUP1 SWAP2 SUB SWAP1 REVERT JUMPDEST PUSH1 0x0 PUSH2 0x9D4 PUSH2 0x9C2 DUP5 PUSH1 0x3 PUSH2 0x1A18 JUMP JUMPDEST PUSH2 0x9CE DUP8 PUSH2 0x3E8 PUSH2 0x1A18 JUMP JUMPDEST SWAP1 PUSH2 0x1A7B JUMP JUMPDEST SWAP1 POP PUSH1 0x0 PUSH2 0x9E6 PUSH2 0x9C2 DUP5 PUSH1 0x3 PUSH2 0x1A18 JUMP JUMPDEST SWAP1 POP PUSH2 0xA0B PUSH3 0xF4240 PUSH2 0xA05 PUSH1 0x1 PUSH1 0x1 PUSH1 0x70 SHL SUB DUP12 DUP2 AND SWAP1 DUP12 AND PUSH2 0x1A18 JUMP JUMPDEST SWAP1 PUSH2 0x1A18 JUMP JUMPDEST PUSH2 0xA15 DUP4 DUP4 PUSH2 0x1A18 JUMP JUMPDEST LT ISZERO PUSH2 0xA57 JUMPI PUSH1 0x40 DUP1 MLOAD PUSH3 0x461BCD PUSH1 0xE5 SHL DUP2 MSTORE PUSH1 0x20 PUSH1 0x4 DUP3 ADD MSTORE PUSH1 0xC PUSH1 0x24 DUP3 ADD MSTORE PUSH12 0x556E697377617056323A204B PUSH1 0xA0 SHL PUSH1 0x44 DUP3 ADD MSTORE SWAP1 MLOAD SWAP1 DUP2 SWAP1 SUB PUSH1 0x64 ADD SWAP1 REVERT JUMPDEST POP POP PUSH2 0xA65 DUP5 DUP5 DUP9 DUP9 PUSH2 0x1ACB JUMP JUMPDEST PUSH1 0x40 DUP1 MLOAD DUP4 DUP2 MSTORE PUSH1 0x20 DUP2 ADD DUP4 SWAP1 MSTORE DUP1 DUP3 ADD DUP14 SWAP1 MSTORE PUSH1 0x60 DUP2 ADD DUP13 SWAP1 MSTORE SWAP1 MLOAD PUSH1 0x1 PUSH1 0x1 PUSH1 0xA0 SHL SUB DUP12 AND SWAP2 CALLER SWAP2 PUSH32 0xD78AD95FA46C994B6551D0DA85FC275FE613CE37657FB8D5E3D130840159D822 SWAP2 DUP2 SWAP1 SUB PUSH1 0x80 ADD SWAP1 LOG3 POP POP PUSH1 0x1 PUSH1 0xC SSTORE POP POP POP POP POP POP POP POP POP JUMP JUMPDEST PUSH1 0x40 MLOAD DUP1 PUSH1 0x40 ADD PUSH1 0x40 MSTORE DUP1 PUSH1 0xD DUP2 MSTORE PUSH1 0x20 ADD PUSH13 0x2227A725902628102A37B5B2B7 PUSH1 0x99 SHL DUP2 MSTORE POP DUP2 JUMP JUMPDEST PUSH1 0x8 SLOAD PUSH1 0x1 PUSH1 0x1 PUSH1 0x70 SHL SUB DUP1 DUP3 AND SWAP3 PUSH1 0x1 PUSH1 0x70 SHL DUP4 DIV SWAP1 SWAP2 AND SWAP2 PUSH1 0x1 PUSH1 0xE0 SHL SWAP1 DIV PUSH4 0xFFFFFFFF AND SWAP1 JUMP JUMPDEST PUSH1 0x0 PUSH2 0xB2B CALLER DUP5 DUP5 PUSH2 0x1C8A JUMP JUMPDEST POP PUSH1 0x1 JUMPDEST SWAP3 SWAP2 POP POP JUMP JUMPDEST PUSH1 0x6 SLOAD PUSH1 0x1 PUSH1 0x1 PUSH1 0xA0 SHL SUB AND DUP2 JUMP JUMPDEST PUSH1 0x0 SLOAD DUP2 JUMP JUMPDEST PUSH1 0x1 PUSH1 0x1 PUSH1 0xA0 SHL SUB DUP4 AND PUSH1 0x0 SWAP1 DUP2 MSTORE PUSH1 0x2 PUSH1 0x20 SWAP1 DUP2 MSTORE PUSH1 0x40 DUP1 DUP4 KECCAK256 CALLER DUP5 MSTORE SWAP1 SWAP2 MSTORE DUP2 KECCAK256 SLOAD PUSH1 0x0 NOT EQ PUSH2 0xBC9 JUMPI PUSH1 0x1 PUSH1 0x1 PUSH1 0xA0 SHL SUB DUP5 AND PUSH1 0x0 SWAP1 DUP2 MSTORE PUSH1 0x2 PUSH1 0x20 SWAP1 DUP2 MSTORE PUSH1 0x40 DUP1 DUP4 KECCAK256 CALLER DUP5 MSTORE SWAP1 SWAP2 MSTORE SWAP1 KECCAK256 SLOAD PUSH2 0xBA4 SWAP1 DUP4 PUSH2 0x1A7B JUMP JUMPDEST PUSH1 0x1 PUSH1 0x1 PUSH1 0xA0 SHL SUB DUP6 AND PUSH1 0x0 SWAP1 DUP2 MSTORE PUSH1 0x2 PUSH1 0x20 SWAP1 DUP2 MSTORE PUSH1 0x40 DUP1 DUP4 KECCAK256 CALLER DUP5 MSTORE SWAP1 SWAP2 MSTORE SWAP1 KECCAK256 SSTORE JUMPDEST PUSH2 0xBD4 DUP5 DUP5 DUP5 PUSH2 0x1CEC JUMP JUMPDEST POP PUSH1 0x1 SWAP4 SWAP3 POP POP POP JUMP JUMPDEST PUSH32 0x6E71EDAE12B1B97F4D1F60370FEF10105FA2FAAE0126114A169C64845D6126C9 DUP2 JUMP JUMPDEST PUSH1 0x12 DUP2 JUMP JUMPDEST PUSH1 0x3 SLOAD DUP2 JUMP JUMPDEST PUSH1 0x5 SLOAD PUSH1 0x1 PUSH1 0x1 PUSH1 0xA0 SHL SUB AND CALLER EQ PUSH2 0xC63 JUMPI PUSH1 0x40 DUP1 MLOAD PUSH3 0x461BCD PUSH1 0xE5 SHL DUP2 MSTORE PUSH1 0x20 PUSH1 0x4 DUP3 ADD MSTORE PUSH1 0x14 PUSH1 0x24 DUP3 ADD MSTORE PUSH20 0x2AB734B9BBB0B82B191D102327A92124A22222A7 PUSH1 0x61 SHL PUSH1 0x44 DUP3 ADD MSTORE SWAP1 MLOAD SWAP1 DUP2 SWAP1 SUB PUSH1 0x64 ADD SWAP1 REVERT JUMPDEST PUSH1 0x6 DUP1 SLOAD PUSH1 0x1 PUSH1 0x1 PUSH1 0xA0 SHL SUB SWAP4 DUP5 AND PUSH1 0x1 PUSH1 0x1 PUSH1 0xA0 SHL SUB NOT SWAP2 DUP3 AND OR SWAP1 SWAP2 SSTORE PUSH1 0x7 DUP1 SLOAD SWAP3 SWAP1 SWAP4 AND SWAP2 AND OR SWAP1 SSTORE JUMP JUMPDEST PUSH1 0x9 SLOAD DUP2 JUMP JUMPDEST PUSH1 0xA SLOAD DUP2 JUMP JUMPDEST PUSH1 0x0 PUSH1 0xC SLOAD PUSH1 0x1 EQ PUSH2 0xCEA JUMPI PUSH1 0x40 DUP1 MLOAD PUSH3 0x461BCD PUSH1 0xE5 SHL DUP2 MSTORE PUSH1 0x20 PUSH1 0x4 DUP3 ADD MSTORE PUSH1 0x11 PUSH1 0x24 DUP3 ADD MSTORE PUSH17 0x155B9A5CDDD85C158C8E881313D0D2D151 PUSH1 0x7A SHL PUSH1 0x44 DUP3 ADD MSTORE SWAP1 MLOAD SWAP1 DUP2 SWAP1 SUB PUSH1 0x64 ADD SWAP1 REVERT JUMPDEST PUSH1 0x0 PUSH1 0xC DUP2 SWAP1 SSTORE DUP1 PUSH2 0xCFA PUSH2 0xAF4 JUMP JUMPDEST POP PUSH1 0x6 SLOAD PUSH1 0x40 DUP1 MLOAD PUSH4 0x70A08231 PUSH1 0xE0 SHL DUP2 MSTORE ADDRESS PUSH1 0x4 DUP3 ADD MSTORE SWAP1 MLOAD SWAP4 SWAP6 POP SWAP2 SWAP4 POP PUSH1 0x0 SWAP3 PUSH1 0x1 PUSH1 0x1 PUSH1 0xA0 SHL SUB SWAP1 SWAP2 AND SWAP2 PUSH4 0x70A08231 SWAP2 PUSH1 0x24 DUP1 DUP4 ADD SWAP3 PUSH1 0x20 SWAP3 SWAP2 SWAP1 DUP3 SWAP1 SUB ADD DUP2 DUP7 DUP1 EXTCODESIZE ISZERO DUP1 ISZERO PUSH2 0xD4E JUMPI PUSH1 0x0 DUP1 REVERT JUMPDEST POP GAS STATICCALL ISZERO DUP1 ISZERO PUSH2 0xD62 JUMPI RETURNDATASIZE PUSH1 0x0 DUP1 RETURNDATACOPY RETURNDATASIZE PUSH1 0x0 REVERT JUMPDEST POP POP POP POP PUSH1 0x40 MLOAD RETURNDATASIZE PUSH1 0x20 DUP2 LT ISZERO PUSH2 0xD78 JUMPI PUSH1 0x0 DUP1 REVERT JUMPDEST POP MLOAD PUSH1 0x7 SLOAD PUSH1 0x40 DUP1 MLOAD PUSH4 0x70A08231 PUSH1 0xE0 SHL DUP2 MSTORE ADDRESS PUSH1 0x4 DUP3 ADD MSTORE SWAP1 MLOAD SWAP3 SWAP4 POP PUSH1 0x0 SWAP3 PUSH1 0x1 PUSH1 0x1 PUSH1 0xA0 SHL SUB SWAP1 SWAP3 AND SWAP2 PUSH4 0x70A08231 SWAP2 PUSH1 0x24 DUP1 DUP3 ADD SWAP3 PUSH1 0x20 SWAP3 SWAP1 SWAP2 SWAP1 DUP3 SWAP1 SUB ADD DUP2 DUP7 DUP1 EXTCODESIZE ISZERO DUP1 ISZERO PUSH2 0xDCB JUMPI PUSH1 0x0 DUP1 REVERT JUMPDEST POP GAS STATICCALL ISZERO DUP1 ISZERO PUSH2 0xDDF JUMPI RETURNDATASIZE PUSH1 0x0 DUP1 RETURNDATACOPY RETURNDATASIZE PUSH1 0x0 REVERT JUMPDEST POP POP POP POP PUSH1 0x40 MLOAD RETURNDATASIZE PUSH1 0x20 DUP2 LT ISZERO PUSH2 0xDF5 JUMPI PUSH1 0x0 DUP1 REVERT JUMPDEST POP MLOAD SWAP1 POP PUSH1 0x0 PUSH2 0xE0E DUP4 PUSH1 0x1 PUSH1 0x1 PUSH1 0x70 SHL SUB DUP8 AND PUSH2 0x1A7B JUMP JUMPDEST SWAP1 POP PUSH1 0x0 PUSH2 0xE25 DUP4 PUSH1 0x1 PUSH1 0x1 PUSH1 0x70 SHL SUB DUP8 AND PUSH2 0x1A7B JUMP JUMPDEST SWAP1 POP PUSH1 0x0 PUSH2 0xE33 DUP8 DUP8 PUSH2 0x1D9A JUMP JUMPDEST PUSH1 0x0 SLOAD SWAP1 SWAP2 POP DUP1 PUSH2 0xE6A JUMPI PUSH2 0xE56 PUSH2 0x3E8 PUSH2 0x9CE PUSH2 0xE51 DUP8 DUP8 PUSH2 0x1A18 JUMP JUMPDEST PUSH2 0x1EDA JUMP JUMPDEST SWAP9 POP PUSH2 0xE65 PUSH1 0x0 PUSH2 0x3E8 PUSH2 0x1F2C JUMP JUMPDEST PUSH2 0xEAD JUMP JUMPDEST PUSH2 0xEAA PUSH1 0x1 PUSH1 0x1 PUSH1 0x70 SHL SUB DUP10 AND PUSH2 0xE81 DUP7 DUP5 PUSH2 0x1A18 JUMP JUMPDEST DUP2 PUSH2 0xE88 JUMPI INVALID JUMPDEST DIV PUSH1 0x1 PUSH1 0x1 PUSH1 0x70 SHL SUB DUP10 AND PUSH2 0xE9D DUP7 DUP6 PUSH2 0x1A18 JUMP JUMPDEST DUP2 PUSH2 0xEA4 JUMPI INVALID JUMPDEST DIV PUSH2 0x1FB6 JUMP JUMPDEST SWAP9 POP JUMPDEST PUSH1 0x0 DUP10 GT PUSH2 0xEEC JUMPI PUSH1 0x40 MLOAD PUSH3 0x461BCD PUSH1 0xE5 SHL DUP2 MSTORE PUSH1 0x4 ADD DUP1 DUP1 PUSH1 0x20 ADD DUP3 DUP2 SUB DUP3 MSTORE PUSH1 0x28 DUP2 MSTORE PUSH1 0x20 ADD DUP1 PUSH2 0x2179 PUSH1 0x28 SWAP2 CODECOPY PUSH1 0x40 ADD SWAP2 POP POP PUSH1 0x40 MLOAD DUP1 SWAP2 SUB SWAP1 REVERT JUMPDEST PUSH2 0xEF6 DUP11 DUP11 PUSH2 0x1F2C JUMP JUMPDEST PUSH2 0xF02 DUP7 DUP7 DUP11 DUP11 PUSH2 0x1ACB JUMP JUMPDEST DUP2 ISZERO PUSH2 0xF2C JUMPI PUSH1 0x8 SLOAD PUSH2 0xF28 SWAP1 PUSH1 0x1 PUSH1 0x1 PUSH1 0x70 SHL SUB DUP1 DUP3 AND SWAP2 PUSH1 0x1 PUSH1 0x70 SHL SWAP1 DIV AND PUSH2 0x1A18 JUMP JUMPDEST PUSH1 0xB SSTORE JUMPDEST PUSH1 0x40 DUP1 MLOAD DUP6 DUP2 MSTORE PUSH1 0x20 DUP2 ADD DUP6 SWAP1 MSTORE DUP2 MLOAD CALLER SWAP3 PUSH32 0x4C209B5FC8AD50758F13E2E1088BA56A560DFF690A1C6FEF26394F4C03821C4F SWAP3 DUP3 SWAP1 SUB ADD SWAP1 LOG2 POP POP PUSH1 0x1 PUSH1 0xC SSTORE POP SWAP5 SWAP7 SWAP6 POP POP POP POP POP POP JUMP JUMPDEST PUSH1 0x1 PUSH1 0x20 MSTORE PUSH1 0x0 SWAP1 DUP2 MSTORE PUSH1 0x40 SWAP1 KECCAK256 SLOAD DUP2 JUMP JUMPDEST PUSH1 0xB SLOAD DUP2 JUMP JUMPDEST PUSH1 0x4 PUSH1 0x20 MSTORE PUSH1 0x0 SWAP1 DUP2 MSTORE PUSH1 0x40 SWAP1 KECCAK256 SLOAD DUP2 JUMP JUMPDEST PUSH1 0x0 DUP1 PUSH1 0xC SLOAD PUSH1 0x1 EQ PUSH2 0xFF1 JUMPI PUSH1 0x40 DUP1 MLOAD PUSH3 0x461BCD PUSH1 0xE5 SHL DUP2 MSTORE PUSH1 0x20 PUSH1 0x4 DUP3 ADD MSTORE PUSH1 0x11 PUSH1 0x24 DUP3 ADD MSTORE PUSH17 0x155B9A5CDDD85C158C8E881313D0D2D151 PUSH1 0x7A SHL PUSH1 0x44 DUP3 ADD MSTORE SWAP1 MLOAD SWAP1 DUP2 SWAP1 SUB PUSH1 0x64 ADD SWAP1 REVERT JUMPDEST PUSH1 0x0 PUSH1 0xC DUP2 SWAP1 SSTORE DUP1 PUSH2 0x1001 PUSH2 0xAF4 JUMP JUMPDEST POP PUSH1 0x6 SLOAD PUSH1 0x7 SLOAD PUSH1 0x40 DUP1 MLOAD PUSH4 0x70A08231 PUSH1 0xE0 SHL DUP2 MSTORE ADDRESS PUSH1 0x4 DUP3 ADD MSTORE SWAP1 MLOAD SWAP5 SWAP7 POP SWAP3 SWAP5 POP PUSH1 0x1 PUSH1 0x1 PUSH1 0xA0 SHL SUB SWAP2 DUP3 AND SWAP4 SWAP2 AND SWAP2 PUSH1 0x0 SWAP2 DUP5 SWAP2 PUSH4 0x70A08231 SWAP2 PUSH1 0x24 DUP1 DUP4 ADD SWAP3 PUSH1 0x20 SWAP3 SWAP2 SWAP1 DUP3 SWAP1 SUB ADD DUP2 DUP7 DUP1 EXTCODESIZE ISZERO DUP1 ISZERO PUSH2 0x105D JUMPI PUSH1 0x0 DUP1 REVERT JUMPDEST POP GAS STATICCALL ISZERO DUP1 ISZERO PUSH2 0x1071 JUMPI RETURNDATASIZE PUSH1 0x0 DUP1 RETURNDATACOPY RETURNDATASIZE PUSH1 0x0 REVERT JUMPDEST POP POP POP POP PUSH1 0x40 MLOAD RETURNDATASIZE PUSH1 0x20 DUP2 LT ISZERO PUSH2 0x1087 JUMPI PUSH1 0x0 DUP1 REVERT JUMPDEST POP MLOAD PUSH1 0x40 DUP1 MLOAD PUSH4 0x70A08231 PUSH1 0xE0 SHL DUP2 MSTORE ADDRESS PUSH1 0x4 DUP3 ADD MSTORE SWAP1 MLOAD SWAP2 SWAP3 POP PUSH1 0x0 SWAP2 PUSH1 0x1 PUSH1 0x1 PUSH1 0xA0 SHL SUB DUP6 AND SWAP2 PUSH4 0x70A08231 SWAP2 PUSH1 0x24 DUP1 DUP4 ADD SWAP3 PUSH1 0x20 SWAP3 SWAP2 SWAP1 DUP3 SWAP1 SUB ADD DUP2 DUP7 DUP1 EXTCODESIZE ISZERO DUP1 ISZERO PUSH2 0x10D5 JUMPI PUSH1 0x0 DUP1 REVERT JUMPDEST POP GAS STATICCALL ISZERO DUP1 ISZERO PUSH2 0x10E9 JUMPI RETURNDATASIZE PUSH1 0x0 DUP1 RETURNDATACOPY RETURNDATASIZE PUSH1 0x0 REVERT JUMPDEST POP POP POP POP PUSH1 0x40 MLOAD RETURNDATASIZE PUSH1 0x20 DUP2 LT ISZERO PUSH2 0x10FF JUMPI PUSH1 0x0 DUP1 REVERT JUMPDEST POP MLOAD ADDRESS PUSH1 0x0 SWAP1 DUP2 MSTORE PUSH1 0x1 PUSH1 0x20 MSTORE PUSH1 0x40 DUP2 KECCAK256 SLOAD SWAP2 SWAP3 POP PUSH2 0x111E DUP9 DUP9 PUSH2 0x1D9A JUMP JUMPDEST PUSH1 0x0 SLOAD SWAP1 SWAP2 POP DUP1 PUSH2 0x112F DUP5 DUP8 PUSH2 0x1A18 JUMP JUMPDEST DUP2 PUSH2 0x1136 JUMPI INVALID JUMPDEST DIV SWAP11 POP DUP1 PUSH2 0x1144 DUP5 DUP7 PUSH2 0x1A18 JUMP JUMPDEST DUP2 PUSH2 0x114B JUMPI INVALID JUMPDEST DIV SWAP10 POP PUSH1 0x0 DUP12 GT DUP1 ISZERO PUSH2 0x115E JUMPI POP PUSH1 0x0 DUP11 GT JUMPDEST PUSH2 0x1199 JUMPI PUSH1 0x40 MLOAD PUSH3 0x461BCD PUSH1 0xE5 SHL DUP2 MSTORE PUSH1 0x4 ADD DUP1 DUP1 PUSH1 0x20 ADD DUP3 DUP2 SUB DUP3 MSTORE PUSH1 0x28 DUP2 MSTORE PUSH1 0x20 ADD DUP1 PUSH2 0x2151 PUSH1 0x28 SWAP2 CODECOPY PUSH1 0x40 ADD SWAP2 POP POP PUSH1 0x40 MLOAD DUP1 SWAP2 SUB SWAP1 REVERT JUMPDEST PUSH2 0x11A3 ADDRESS DUP5 PUSH2 0x1FCE JUMP JUMPDEST PUSH2 0x11AE DUP8 DUP14 DUP14 PUSH2 0x187E JUMP JUMPDEST PUSH2 0x11B9 DUP7 DUP14 DUP13 PUSH2 0x187E JUMP JUMPDEST PUSH1 0x40 DUP1 MLOAD PUSH4 0x70A08231 PUSH1 0xE0 SHL DUP2 MSTORE ADDRESS PUSH1 0x4 DUP3 ADD MSTORE SWAP1 MLOAD PUSH1 0x1 PUSH1 0x1 PUSH1 0xA0 SHL SUB DUP10 AND SWAP2 PUSH4 0x70A08231 SWAP2 PUSH1 0x24 DUP1 DUP4 ADD SWAP3 PUSH1 0x20 SWAP3 SWAP2 SWAP1 DUP3 SWAP1 SUB ADD DUP2 DUP7 DUP1 EXTCODESIZE ISZERO DUP1 ISZERO PUSH2 0x11FF JUMPI PUSH1 0x0 DUP1 REVERT JUMPDEST POP GAS STATICCALL ISZERO DUP1 ISZERO PUSH2 0x1213 JUMPI RETURNDATASIZE PUSH1 0x0 DUP1 RETURNDATACOPY RETURNDATASIZE PUSH1 0x0 REVERT JUMPDEST POP POP POP POP PUSH1 0x40 MLOAD RETURNDATASIZE PUSH1 0x20 DUP2 LT ISZERO PUSH2 0x1229 JUMPI PUSH1 0x0 DUP1 REVERT JUMPDEST POP MLOAD PUSH1 0x40 DUP1 MLOAD PUSH4 0x70A08231 PUSH1 0xE0 SHL DUP2 MSTORE ADDRESS PUSH1 0x4 DUP3 ADD MSTORE SWAP1 MLOAD SWAP2 SWAP7 POP PUSH1 0x1 PUSH1 0x1 PUSH1 0xA0 SHL SUB DUP9 AND SWAP2 PUSH4 0x70A08231 SWAP2 PUSH1 0x24 DUP1 DUP3 ADD SWAP3 PUSH1 0x20 SWAP3 SWAP1 SWAP2 SWAP1 DUP3 SWAP1 SUB ADD DUP2 DUP7 DUP1 EXTCODESIZE ISZERO DUP1 ISZERO PUSH2 0x1275 JUMPI PUSH1 0x0 DUP1 REVERT JUMPDEST POP GAS STATICCALL ISZERO DUP1 ISZERO PUSH2 0x1289 JUMPI RETURNDATASIZE PUSH1 0x0 DUP1 RETURNDATACOPY RETURNDATASIZE PUSH1 0x0 REVERT JUMPDEST POP POP POP POP PUSH1 0x40 MLOAD RETURNDATASIZE PUSH1 0x20 DUP2 LT ISZERO PUSH2 0x129F JUMPI PUSH1 0x0 DUP1 REVERT JUMPDEST POP MLOAD SWAP4 POP PUSH2 0x12AF DUP6 DUP6 DUP12 DUP12 PUSH2 0x1ACB JUMP JUMPDEST DUP2 ISZERO PUSH2 0x12D9 JUMPI PUSH1 0x8 SLOAD PUSH2 0x12D5 SWAP1 PUSH1 0x1 PUSH1 0x1 PUSH1 0x70 SHL SUB DUP1 DUP3 AND SWAP2 PUSH1 0x1 PUSH1 0x70 SHL SWAP1 DIV AND PUSH2 0x1A18 JUMP JUMPDEST PUSH1 0xB SSTORE JUMPDEST PUSH1 0x40 DUP1 MLOAD DUP13 DUP2 MSTORE PUSH1 0x20 DUP2 ADD DUP13 SWAP1 MSTORE DUP2 MLOAD PUSH1 0x1 PUSH1 0x1 PUSH1 0xA0 SHL SUB DUP16 AND SWAP3 CALLER SWAP3 PUSH32 0xDCCD412F0B1252819CB1FD330B93224CA42612892BB3F4F789976E6D81936496 SWAP3 SWAP1 DUP2 SWAP1 SUB SWAP1 SWAP2 ADD SWAP1 LOG3 POP POP POP POP POP POP POP POP POP PUSH1 0x1 PUSH1 0xC DUP2 SWAP1 SSTORE POP SWAP2 POP SWAP2 JUMP JUMPDEST PUSH1 0x40 MLOAD DUP1 PUSH1 0x40 ADD PUSH1 0x40 MSTORE DUP1 PUSH1 0x7 DUP2 MSTORE PUSH1 0x20 ADD PUSH7 0x444F4E4B2D4C5 PUSH1 0xCC SHL DUP2 MSTORE POP DUP2 JUMP JUMPDEST PUSH1 0x0 PUSH2 0xB2B CALLER DUP5 DUP5 PUSH2 0x1CEC JUMP JUMPDEST PUSH2 0x3E8 DUP2 JUMP JUMPDEST PUSH1 0xC SLOAD PUSH1 0x1 EQ PUSH2 0x13B8 JUMPI PUSH1 0x40 DUP1 MLOAD PUSH3 0x461BCD PUSH1 0xE5 SHL DUP2 MSTORE PUSH1 0x20 PUSH1 0x4 DUP3 ADD MSTORE PUSH1 0x11 PUSH1 0x24 DUP3 ADD MSTORE PUSH17 0x155B9A5CDDD85C158C8E881313D0D2D151 PUSH1 0x7A SHL PUSH1 0x44 DUP3 ADD MSTORE SWAP1 MLOAD SWAP1 DUP2 SWAP1 SUB PUSH1 0x64 ADD SWAP1 REVERT JUMPDEST PUSH1 0x0 PUSH1 0xC SSTORE PUSH1 0x6 SLOAD PUSH1 0x7 SLOAD PUSH1 0x8 SLOAD PUSH1 0x40 DUP1 MLOAD PUSH4 0x70A08231 PUSH1 0xE0 SHL DUP2 MSTORE ADDRESS PUSH1 0x4 DUP3 ADD MSTORE SWAP1 MLOAD PUSH1 0x1 PUSH1 0x1 PUSH1 0xA0 SHL SUB SWAP5 DUP6 AND SWAP5 SWAP1 SWAP4 AND SWAP3 PUSH2 0x1461 SWAP3 DUP6 SWAP3 DUP8 SWAP3 PUSH2 0x145C SWAP3 PUSH1 0x1 PUSH1 0x1 PUSH1 0x70 SHL SUB AND SWAP2 DUP6 SWAP2 PUSH4 0x70A08231 SWAP2 PUSH1 0x24 DUP1 DUP3 ADD SWAP3 PUSH1 0x20 SWAP3 SWAP1 SWAP2 SWAP1 DUP3 SWAP1 SUB ADD DUP2 DUP7 DUP1 EXTCODESIZE ISZERO DUP1 ISZERO PUSH2 0x142A JUMPI PUSH1 0x0 DUP1 REVERT JUMPDEST POP GAS STATICCALL ISZERO DUP1 ISZERO PUSH2 0x143E JUMPI RETURNDATASIZE PUSH1 0x0 DUP1 RETURNDATACOPY RETURNDATASIZE PUSH1 0x0 REVERT JUMPDEST POP POP POP POP PUSH1 0x40 MLOAD RETURNDATASIZE PUSH1 0x20 DUP2 LT ISZERO PUSH2 0x1454 JUMPI PUSH1 0x0 DUP1 REVERT JUMPDEST POP MLOAD SWAP1 PUSH2 0x1A7B JUMP JUMPDEST PUSH2 0x187E JUMP JUMPDEST PUSH2 0x14D5 DUP2 DUP5 PUSH2 0x145C PUSH1 0x8 PUSH1 0xE SWAP1 SLOAD SWAP1 PUSH2 0x100 EXP SWAP1 DIV PUSH1 0x1 PUSH1 0x1 PUSH1 0x70 SHL SUB AND PUSH1 0x1 PUSH1 0x1 PUSH1 0x70 SHL SUB AND DUP6 PUSH1 0x1 PUSH1 0x1 PUSH1 0xA0 SHL SUB AND PUSH4 0x70A08231 ADDRESS PUSH1 0x40 MLOAD DUP3 PUSH4 0xFFFFFFFF AND PUSH1 0xE0 SHL DUP2 MSTORE PUSH1 0x4 ADD DUP1 DUP3 PUSH1 0x1 PUSH1 0x1 PUSH1 0xA0 SHL SUB AND DUP2 MSTORE PUSH1 0x20 ADD SWAP2 POP POP PUSH1 0x20 PUSH1 0x40 MLOAD DUP1 DUP4 SUB DUP2 DUP7 DUP1 EXTCODESIZE ISZERO DUP1 ISZERO PUSH2 0x142A JUMPI PUSH1 0x0 DUP1 REVERT JUMPDEST POP POP PUSH1 0x1 PUSH1 0xC SSTORE POP JUMP JUMPDEST PUSH1 0x5 SLOAD PUSH1 0x1 PUSH1 0x1 PUSH1 0xA0 SHL SUB AND DUP2 JUMP JUMPDEST PUSH1 0x7 SLOAD PUSH1 0x1 PUSH1 0x1 PUSH1 0xA0 SHL SUB AND DUP2 JUMP JUMPDEST TIMESTAMP DUP5 LT ISZERO PUSH2 0x1547 JUMPI PUSH1 0x40 DUP1 MLOAD PUSH3 0x461BCD PUSH1 0xE5 SHL DUP2 MSTORE PUSH1 0x20 PUSH1 0x4 DUP3 ADD MSTORE PUSH1 0x12 PUSH1 0x24 DUP3 ADD MSTORE PUSH18 0x155B9A5CDDD85C158C8E8811561412549151 PUSH1 0x72 SHL PUSH1 0x44 DUP3 ADD MSTORE SWAP1 MLOAD SWAP1 DUP2 SWAP1 SUB PUSH1 0x64 ADD SWAP1 REVERT JUMPDEST PUSH1 0x3 SLOAD PUSH1 0x1 PUSH1 0x1 PUSH1 0xA0 SHL SUB DUP1 DUP10 AND PUSH1 0x0 DUP2 DUP2 MSTORE PUSH1 0x4 PUSH1 0x20 SWAP1 DUP2 MSTORE PUSH1 0x40 DUP1 DUP4 KECCAK256 DUP1 SLOAD PUSH1 0x1 DUP1 DUP3 ADD SWAP1 SWAP3 SSTORE DUP3 MLOAD PUSH32 0x6E71EDAE12B1B97F4D1F60370FEF10105FA2FAAE0126114A169C64845D6126C9 DUP2 DUP7 ADD MSTORE DUP1 DUP5 ADD SWAP7 SWAP1 SWAP7 MSTORE SWAP6 DUP14 AND PUSH1 0x60 DUP7 ADD MSTORE PUSH1 0x80 DUP6 ADD DUP13 SWAP1 MSTORE PUSH1 0xA0 DUP6 ADD SWAP6 SWAP1 SWAP6 MSTORE PUSH1 0xC0 DUP1 DUP6 ADD DUP12 SWAP1 MSTORE DUP2 MLOAD DUP1 DUP7 SUB SWAP1 SWAP2 ADD DUP2 MSTORE PUSH1 0xE0 DUP6 ADD DUP3 MSTORE DUP1 MLOAD SWAP1 DUP4 ADD KECCAK256 PUSH2 0x1901 PUSH1 0xF0 SHL PUSH2 0x100 DUP7 ADD MSTORE PUSH2 0x102 DUP6 ADD SWAP7 SWAP1 SWAP7 MSTORE PUSH2 0x122 DUP1 DUP6 ADD SWAP7 SWAP1 SWAP7 MSTORE DUP1 MLOAD DUP1 DUP6 SUB SWAP1 SWAP7 ADD DUP7 MSTORE PUSH2 0x142 DUP5 ADD DUP1 DUP3 MSTORE DUP7 MLOAD SWAP7 DUP4 ADD SWAP7 SWAP1 SWAP7 KECCAK256 SWAP6 DUP4 SWAP1 MSTORE PUSH2 0x162 DUP5 ADD DUP1 DUP3 MSTORE DUP7 SWAP1 MSTORE PUSH1 0xFF DUP10 AND PUSH2 0x182 DUP6 ADD MSTORE PUSH2 0x1A2 DUP5 ADD DUP9 SWAP1 MSTORE PUSH2 0x1C2 DUP5 ADD DUP8 SWAP1 MSTORE MLOAD SWAP2 SWAP4 SWAP3 PUSH2 0x1E2 DUP1 DUP3 ADD SWAP4 PUSH1 0x1F NOT DUP2 ADD SWAP3 DUP2 SWAP1 SUB SWAP1 SWAP2 ADD SWAP1 DUP6 GAS STATICCALL ISZERO DUP1 ISZERO PUSH2 0x1662 JUMPI RETURNDATASIZE PUSH1 0x0 DUP1 RETURNDATACOPY RETURNDATASIZE PUSH1 0x0 REVERT JUMPDEST POP POP PUSH1 0x40 MLOAD PUSH1 0x1F NOT ADD MLOAD SWAP2 POP POP PUSH1 0x1 PUSH1 0x1 PUSH1 0xA0 SHL SUB DUP2 AND ISZERO DUP1 ISZERO SWAP1 PUSH2 0x1698 JUMPI POP DUP9 PUSH1 0x1 PUSH1 0x1 PUSH1 0xA0 SHL SUB AND DUP2 PUSH1 0x1 PUSH1 0x1 PUSH1 0xA0 SHL SUB AND EQ JUMPDEST PUSH2 0x16E9 JUMPI PUSH1 0x40 DUP1 MLOAD PUSH3 0x461BCD PUSH1 0xE5 SHL DUP2 MSTORE PUSH1 0x20 PUSH1 0x4 DUP3 ADD MSTORE PUSH1 0x1C PUSH1 0x24 DUP3 ADD MSTORE PUSH32 0x556E697377617056323A20494E56414C49445F5349474E415455524500000000 PUSH1 0x44 DUP3 ADD MSTORE SWAP1 MLOAD SWAP1 DUP2 SWAP1 SUB PUSH1 0x64 ADD SWAP1 REVERT JUMPDEST PUSH2 0x16F4 DUP10 DUP10 DUP10 PUSH2 0x1C8A JUMP JUMPDEST POP POP POP POP POP POP POP POP POP JUMP JUMPDEST PUSH1 0x2 PUSH1 0x20 SWAP1 DUP2 MSTORE PUSH1 0x0 SWAP3 DUP4 MSTORE PUSH1 0x40 DUP1 DUP5 KECCAK256 SWAP1 SWAP2 MSTORE SWAP1 DUP3 MSTORE SWAP1 KECCAK256 SLOAD DUP2 JUMP JUMPDEST PUSH1 0xC SLOAD PUSH1 0x1 EQ PUSH2 0x1767 JUMPI PUSH1 0x40 DUP1 MLOAD PUSH3 0x461BCD PUSH1 0xE5 SHL DUP2 MSTORE PUSH1 0x20 PUSH1 0x4 DUP3 ADD MSTORE PUSH1 0x11 PUSH1 0x24 DUP3 ADD MSTORE PUSH17 0x155B9A5CDDD85C158C8E881313D0D2D151 PUSH1 0x7A SHL PUSH1 0x44 DUP3 ADD MSTORE SWAP1 MLOAD SWAP1 DUP2 SWAP1 SUB PUSH1 0x64 ADD SWAP1 REVERT JUMPDEST PUSH1 0x0 PUSH1 0xC SSTORE PUSH1 0x6 SLOAD PUSH1 0x40 DUP1 MLOAD PUSH4 0x70A08231 PUSH1 0xE0 SHL DUP2 MSTORE ADDRESS PUSH1 0x4 DUP3 ADD MSTORE SWAP1 MLOAD PUSH2 0x1877 SWAP3 PUSH1 0x1 PUSH1 0x1 PUSH1 0xA0 SHL SUB AND SWAP2 PUSH4 0x70A08231 SWAP2 PUSH1 0x24 DUP1 DUP4 ADD SWAP3 PUSH1 0x20 SWAP3 SWAP2 SWAP1 DUP3 SWAP1 SUB ADD DUP2 DUP7 DUP1 EXTCODESIZE ISZERO DUP1 ISZERO PUSH2 0x17B8 JUMPI PUSH1 0x0 DUP1 REVERT JUMPDEST POP GAS STATICCALL ISZERO DUP1 ISZERO PUSH2 0x17CC JUMPI RETURNDATASIZE PUSH1 0x0 DUP1 RETURNDATACOPY RETURNDATASIZE PUSH1 0x0 REVERT JUMPDEST POP POP POP POP PUSH1 0x40 MLOAD RETURNDATASIZE PUSH1 0x20 DUP2 LT ISZERO PUSH2 0x17E2 JUMPI PUSH1 0x0 DUP1 REVERT JUMPDEST POP MLOAD PUSH1 0x7 SLOAD PUSH1 0x40 DUP1 MLOAD PUSH4 0x70A08231 PUSH1 0xE0 SHL DUP2 MSTORE ADDRESS PUSH1 0x4 DUP3 ADD MSTORE SWAP1 MLOAD PUSH1 0x1 PUSH1 0x1 PUSH1 0xA0 SHL SUB SWAP1 SWAP3 AND SWAP2 PUSH4 0x70A08231 SWAP2 PUSH1 0x24 DUP1 DUP3 ADD SWAP3 PUSH1 0x20 SWAP3 SWAP1 SWAP2 SWAP1 DUP3 SWAP1 SUB ADD DUP2 DUP7 DUP1 EXTCODESIZE ISZERO DUP1 ISZERO PUSH2 0x182F JUMPI PUSH1 0x0 DUP1 REVERT JUMPDEST POP GAS STATICCALL ISZERO DUP1 ISZERO PUSH2 0x1843 JUMPI RETURNDATASIZE PUSH1 0x0 DUP1 RETURNDATACOPY RETURNDATASIZE PUSH1 0x0 REVERT JUMPDEST POP POP POP POP PUSH1 0x40 MLOAD RETURNDATASIZE PUSH1 0x20 DUP2 LT ISZERO PUSH2 0x1859 JUMPI PUSH1 0x0 DUP1 REVERT JUMPDEST POP MLOAD PUSH1 0x8 SLOAD PUSH1 0x1 PUSH1 0x1 PUSH1 0x70 SHL SUB DUP1 DUP3 AND SWAP2 PUSH1 0x1 PUSH1 0x70 SHL SWAP1 DIV AND PUSH2 0x1ACB JUMP JUMPDEST PUSH1 0x1 PUSH1 0xC SSTORE JUMP JUMPDEST PUSH1 0x40 DUP1 MLOAD DUP1 DUP3 ADD DUP3 MSTORE PUSH1 0x19 DUP2 MSTORE PUSH32 0x7472616E7366657228616464726573732C75696E743235362900000000000000 PUSH1 0x20 SWAP2 DUP3 ADD MSTORE DUP2 MLOAD PUSH1 0x1 PUSH1 0x1 PUSH1 0xA0 SHL SUB DUP6 DUP2 AND PUSH1 0x24 DUP4 ADD MSTORE PUSH1 0x44 DUP1 DUP4 ADD DUP7 SWAP1 MSTORE DUP5 MLOAD DUP1 DUP5 SUB SWAP1 SWAP2 ADD DUP2 MSTORE PUSH1 0x64 SWAP1 SWAP3 ADD DUP5 MSTORE SWAP2 DUP2 ADD DUP1 MLOAD PUSH1 0x1 PUSH1 0x1 PUSH1 0xE0 SHL SUB AND PUSH4 0xA9059CBB PUSH1 0xE0 SHL OR DUP2 MSTORE SWAP3 MLOAD DUP2 MLOAD PUSH1 0x0 SWAP5 PUSH1 0x60 SWAP5 DUP10 AND SWAP4 SWAP3 SWAP2 DUP3 SWAP2 SWAP1 DUP1 DUP4 DUP4 JUMPDEST PUSH1 0x20 DUP4 LT PUSH2 0x192B JUMPI DUP1 MLOAD DUP3 MSTORE PUSH1 0x1F NOT SWAP1 SWAP3 ADD SWAP2 PUSH1 0x20 SWAP2 DUP3 ADD SWAP2 ADD PUSH2 0x190C JUMP JUMPDEST PUSH1 0x1 DUP4 PUSH1 0x20 SUB PUSH2 0x100 EXP SUB DUP1 NOT DUP3 MLOAD AND DUP2 DUP5 MLOAD AND DUP1 DUP3 OR DUP6 MSTORE POP POP POP POP POP POP SWAP1 POP ADD SWAP2 POP POP PUSH1 0x0 PUSH1 0x40 MLOAD DUP1 DUP4 SUB DUP2 PUSH1 0x0 DUP7 GAS CALL SWAP2 POP POP RETURNDATASIZE DUP1 PUSH1 0x0 DUP2 EQ PUSH2 0x198D JUMPI PUSH1 0x40 MLOAD SWAP2 POP PUSH1 0x1F NOT PUSH1 0x3F RETURNDATASIZE ADD AND DUP3 ADD PUSH1 0x40 MSTORE RETURNDATASIZE DUP3 MSTORE RETURNDATASIZE PUSH1 0x0 PUSH1 0x20 DUP5 ADD RETURNDATACOPY PUSH2 0x1992 JUMP JUMPDEST PUSH1 0x60 SWAP2 POP JUMPDEST POP SWAP2 POP SWAP2 POP DUP2 DUP1 ISZERO PUSH2 0x19C0 JUMPI POP DUP1 MLOAD ISZERO DUP1 PUSH2 0x19C0 JUMPI POP DUP1 DUP1 PUSH1 0x20 ADD SWAP1 MLOAD PUSH1 0x20 DUP2 LT ISZERO PUSH2 0x19BD JUMPI PUSH1 0x0 DUP1 REVERT JUMPDEST POP MLOAD JUMPDEST PUSH2 0x1A11 JUMPI PUSH1 0x40 DUP1 MLOAD PUSH3 0x461BCD PUSH1 0xE5 SHL DUP2 MSTORE PUSH1 0x20 PUSH1 0x4 DUP3 ADD MSTORE PUSH1 0x1A PUSH1 0x24 DUP3 ADD MSTORE PUSH32 0x556E697377617056323A205452414E534645525F4641494C4544000000000000 PUSH1 0x44 DUP3 ADD MSTORE SWAP1 MLOAD SWAP1 DUP2 SWAP1 SUB PUSH1 0x64 ADD SWAP1 REVERT JUMPDEST POP POP POP POP POP JUMP JUMPDEST PUSH1 0x0 DUP2 ISZERO DUP1 PUSH2 0x1A33 JUMPI POP POP DUP1 DUP3 MUL DUP3 DUP3 DUP3 DUP2 PUSH2 0x1A30 JUMPI INVALID JUMPDEST DIV EQ JUMPDEST PUSH2 0xB2F JUMPI PUSH1 0x40 DUP1 MLOAD PUSH3 0x461BCD PUSH1 0xE5 SHL DUP2 MSTORE PUSH1 0x20 PUSH1 0x4 DUP3 ADD MSTORE PUSH1 0x14 PUSH1 0x24 DUP3 ADD MSTORE PUSH20 0x64732D6D6174682D6D756C2D6F766572666C6F77 PUSH1 0x60 SHL PUSH1 0x44 DUP3 ADD MSTORE SWAP1 MLOAD SWAP1 DUP2 SWAP1 SUB PUSH1 0x64 ADD SWAP1 REVERT JUMPDEST DUP1 DUP3 SUB DUP3 DUP2 GT ISZERO PUSH2 0xB2F JUMPI PUSH1 0x40 DUP1 MLOAD PUSH3 0x461BCD PUSH1 0xE5 SHL DUP2 MSTORE PUSH1 0x20 PUSH1 0x4 DUP3 ADD MSTORE PUSH1 0x15 PUSH1 0x24 DUP3 ADD MSTORE PUSH21 0x64732D6D6174682D7375622D756E646572666C6F77 PUSH1 0x58 SHL PUSH1 0x44 DUP3 ADD MSTORE SWAP1 MLOAD SWAP1 DUP2 SWAP1 SUB PUSH1 0x64 ADD SWAP1 REVERT JUMPDEST PUSH1 0x1 PUSH1 0x1 PUSH1 0x70 SHL SUB DUP5 GT DUP1 ISZERO SWAP1 PUSH2 0x1AE9 JUMPI POP PUSH1 0x1 PUSH1 0x1 PUSH1 0x70 SHL SUB DUP4 GT ISZERO JUMPDEST PUSH2 0x1B30 JUMPI PUSH1 0x40 DUP1 MLOAD PUSH3 0x461BCD PUSH1 0xE5 SHL DUP2 MSTORE PUSH1 0x20 PUSH1 0x4 DUP3 ADD MSTORE PUSH1 0x13 PUSH1 0x24 DUP3 ADD MSTORE PUSH19 0x556E697377617056323A204F564552464C4F57 PUSH1 0x68 SHL PUSH1 0x44 DUP3 ADD MSTORE SWAP1 MLOAD SWAP1 DUP2 SWAP1 SUB PUSH1 0x64 ADD SWAP1 REVERT JUMPDEST PUSH1 0x8 SLOAD PUSH4 0xFFFFFFFF TIMESTAMP DUP2 AND SWAP2 PUSH1 0x1 PUSH1 0xE0 SHL SWAP1 DIV DUP2 AND DUP3 SUB SWAP1 DUP2 AND ISZERO DUP1 ISZERO SWAP1 PUSH2 0x1B60 JUMPI POP PUSH1 0x1 PUSH1 0x1 PUSH1 0x70 SHL SUB DUP5 AND ISZERO ISZERO JUMPDEST DUP1 ISZERO PUSH2 0x1B74 JUMPI POP PUSH1 0x1 PUSH1 0x1 PUSH1 0x70 SHL SUB DUP4 AND ISZERO ISZERO JUMPDEST ISZERO PUSH2 0x1BDF JUMPI DUP1 PUSH4 0xFFFFFFFF AND PUSH2 0x1B9C DUP6 PUSH2 0x1B8D DUP7 PUSH2 0x2060 JUMP JUMPDEST PUSH1 0x1 PUSH1 0x1 PUSH1 0xE0 SHL SUB AND SWAP1 PUSH2 0x2072 JUMP JUMPDEST PUSH1 0x9 DUP1 SLOAD PUSH1 0x1 PUSH1 0x1 PUSH1 0xE0 SHL SUB SWAP3 SWAP1 SWAP3 AND SWAP3 SWAP1 SWAP3 MUL ADD SWAP1 SSTORE PUSH4 0xFFFFFFFF DUP2 AND PUSH2 0x1BC7 DUP5 PUSH2 0x1B8D DUP8 PUSH2 0x2060 JUMP JUMPDEST PUSH1 0xA DUP1 SLOAD PUSH1 0x1 PUSH1 0x1 PUSH1 0xE0 SHL SUB SWAP3 SWAP1 SWAP3 AND SWAP3 SWAP1 SWAP3 MUL ADD SWAP1 SSTORE JUMPDEST PUSH1 0x8 DUP1 SLOAD PUSH14 0xFFFFFFFFFFFFFFFFFFFFFFFFFFFF NOT AND PUSH1 0x1 PUSH1 0x1 PUSH1 0x70 SHL SUB DUP9 DUP2 AND SWAP2 SWAP1 SWAP2 OR PUSH14 0xFFFFFFFFFFFFFFFFFFFFFFFFFFFF PUSH1 0x70 SHL NOT AND PUSH1 0x1 PUSH1 0x70 SHL DUP9 DUP4 AND DUP2 MUL SWAP2 SWAP1 SWAP2 OR PUSH1 0x1 PUSH1 0x1 PUSH1 0xE0 SHL SUB AND PUSH1 0x1 PUSH1 0xE0 SHL PUSH4 0xFFFFFFFF DUP8 AND MUL OR SWAP3 DUP4 SWAP1 SSTORE PUSH1 0x40 DUP1 MLOAD DUP5 DUP5 AND DUP2 MSTORE SWAP2 SWAP1 SWAP4 DIV SWAP1 SWAP2 AND PUSH1 0x20 DUP3 ADD MSTORE DUP2 MLOAD PUSH32 0x1C411E9A96E071241C2F21F7726B17AE89E3CAB4C78BE50E062B03A9FFFBBAD1 SWAP3 SWAP2 DUP2 SWAP1 SUB SWAP1 SWAP2 ADD SWAP1 LOG1 POP POP POP POP POP POP JUMP JUMPDEST PUSH1 0x1 PUSH1 0x1 PUSH1 0xA0 SHL SUB DUP1 DUP5 AND PUSH1 0x0 DUP2 DUP2 MSTORE PUSH1 0x2 PUSH1 0x20 SWAP1 DUP2 MSTORE PUSH1 0x40 DUP1 DUP4 KECCAK256 SWAP5 DUP8 AND DUP1 DUP5 MSTORE SWAP5 DUP3 MSTORE SWAP2 DUP3 SWAP1 KECCAK256 DUP6 SWAP1 SSTORE DUP2 MLOAD DUP6 DUP2 MSTORE SWAP2 MLOAD PUSH32 0x8C5BE1E5EBEC7D5BD14F71427D1E84F3DD0314C0F7B2291E5B200AC8C7C3B925 SWAP3 DUP2 SWAP1 SUB SWAP1 SWAP2 ADD SWAP1 LOG3 POP POP POP JUMP JUMPDEST PUSH1 0x1 PUSH1 0x1 PUSH1 0xA0 SHL SUB DUP4 AND PUSH1 0x0 SWAP1 DUP2 MSTORE PUSH1 0x1 PUSH1 0x20 MSTORE PUSH1 0x40 SWAP1 KECCAK256 SLOAD PUSH2 0x1D0F SWAP1 DUP3 PUSH2 0x1A7B JUMP JUMPDEST PUSH1 0x1 PUSH1 0x1 PUSH1 0xA0 SHL SUB DUP1 DUP6 AND PUSH1 0x0 SWAP1 DUP2 MSTORE PUSH1 0x1 PUSH1 0x20 MSTORE PUSH1 0x40 DUP1 DUP3 KECCAK256 SWAP4 SWAP1 SWAP4 SSTORE SWAP1 DUP5 AND DUP2 MSTORE KECCAK256 SLOAD PUSH2 0x1D3E SWAP1 DUP3 PUSH2 0x2097 JUMP JUMPDEST PUSH1 0x1 PUSH1 0x1 PUSH1 0xA0 SHL SUB DUP1 DUP5 AND PUSH1 0x0 DUP2 DUP2 MSTORE PUSH1 0x1 PUSH1 0x20 SWAP1 DUP2 MSTORE PUSH1 0x40 SWAP2 DUP3 SWAP1 KECCAK256 SWAP5 SWAP1 SWAP5 SSTORE DUP1 MLOAD DUP6 DUP2 MSTORE SWAP1 MLOAD SWAP2 SWAP4 SWAP3 DUP8 AND SWAP3 PUSH32 0xDDF252AD1BE2C89B69C2B068FC378DAA952BA7F163C4A11628F55A4DF523B3EF SWAP3 SWAP2 DUP3 SWAP1 SUB ADD SWAP1 LOG3 POP POP POP JUMP JUMPDEST PUSH1 0x0 DUP1 PUSH1 0x5 PUSH1 0x0 SWAP1 SLOAD SWAP1 PUSH2 0x100 EXP SWAP1 DIV PUSH1 0x1 PUSH1 0x1 PUSH1 0xA0 SHL SUB AND PUSH1 0x1 PUSH1 0x1 PUSH1 0xA0 SHL SUB AND PUSH4 0x17E7E58 PUSH1 0x40 MLOAD DUP2 PUSH4 0xFFFFFFFF AND PUSH1 0xE0 SHL DUP2 MSTORE PUSH1 0x4 ADD PUSH1 0x20 PUSH1 0x40 MLOAD DUP1 DUP4 SUB DUP2 DUP7 DUP1 EXTCODESIZE ISZERO DUP1 ISZERO PUSH2 0x1DEB JUMPI PUSH1 0x0 DUP1 REVERT JUMPDEST POP GAS STATICCALL ISZERO DUP1 ISZERO PUSH2 0x1DFF JUMPI RETURNDATASIZE PUSH1 0x0 DUP1 RETURNDATACOPY RETURNDATASIZE PUSH1 0x0 REVERT JUMPDEST POP POP POP POP PUSH1 0x40 MLOAD RETURNDATASIZE PUSH1 0x20 DUP2 LT ISZERO PUSH2 0x1E15 JUMPI PUSH1 0x0 DUP1 REVERT JUMPDEST POP MLOAD PUSH1 0xB SLOAD PUSH1 0x1 PUSH1 0x1 PUSH1 0xA0 SHL SUB DUP3 AND ISZERO DUP1 ISZERO SWAP5 POP SWAP2 SWAP3 POP SWAP1 PUSH2 0x1EC6 JUMPI DUP1 ISZERO PUSH2 0x1EC1 JUMPI PUSH1 0x0 PUSH2 0x1E52 PUSH2 0xE51 PUSH1 0x1 PUSH1 0x1 PUSH1 0x70 SHL SUB DUP9 DUP2 AND SWAP1 DUP9 AND PUSH2 0x1A18 JUMP JUMPDEST SWAP1 POP PUSH1 0x0 PUSH2 0x1E5F DUP4 PUSH2 0x1EDA JUMP JUMPDEST SWAP1 POP DUP1 DUP3 GT ISZERO PUSH2 0x1EBE JUMPI PUSH1 0x0 PUSH2 0x1E81 PUSH2 0x1E78 DUP5 DUP5 PUSH2 0x1A7B JUMP JUMPDEST PUSH1 0x0 SLOAD SWAP1 PUSH2 0x1A18 JUMP JUMPDEST SWAP1 POP PUSH1 0x0 PUSH2 0x1E9A DUP4 PUSH2 0x1E94 DUP7 PUSH1 0x2 PUSH2 0x1A18 JUMP JUMPDEST SWAP1 PUSH2 0x2097 JUMP JUMPDEST SWAP1 POP PUSH1 0x0 DUP2 DUP4 DUP2 PUSH2 0x1EA7 JUMPI INVALID JUMPDEST DIV SWAP1 POP DUP1 ISZERO PUSH2 0x1EBA JUMPI PUSH2 0x1EBA DUP8 DUP3 PUSH2 0x1F2C JUMP JUMPDEST POP POP POP JUMPDEST POP POP JUMPDEST PUSH2 0x1ED2 JUMP JUMPDEST DUP1 ISZERO PUSH2 0x1ED2 JUMPI PUSH1 0x0 PUSH1 0xB SSTORE JUMPDEST POP POP SWAP3 SWAP2 POP POP JUMP JUMPDEST PUSH1 0x0 PUSH1 0x3 DUP3 GT ISZERO PUSH2 0x1F1D JUMPI POP DUP1 PUSH1 0x1 PUSH1 0x2 DUP3 DIV ADD JUMPDEST DUP2 DUP2 LT ISZERO PUSH2 0x1F17 JUMPI DUP1 SWAP2 POP PUSH1 0x2 DUP2 DUP3 DUP6 DUP2 PUSH2 0x1F06 JUMPI INVALID JUMPDEST DIV ADD DUP2 PUSH2 0x1F0F JUMPI INVALID JUMPDEST DIV SWAP1 POP PUSH2 0x1EEF JUMP JUMPDEST POP PUSH2 0x1F27 JUMP JUMPDEST DUP2 ISZERO PUSH2 0x1F27 JUMPI POP PUSH1 0x1 JUMPDEST SWAP2 SWAP1 POP JUMP JUMPDEST PUSH1 0x0 SLOAD PUSH2 0x1F39 SWAP1 DUP3 PUSH2 0x2097 JUMP JUMPDEST PUSH1 0x0 SWAP1 DUP2 SSTORE PUSH1 0x1 PUSH1 0x1 PUSH1 0xA0 SHL SUB DUP4 AND DUP2 MSTORE PUSH1 0x1 PUSH1 0x20 MSTORE PUSH1 0x40 SWAP1 KECCAK256 SLOAD PUSH2 0x1F5E SWAP1 DUP3 PUSH2 0x2097 JUMP JUMPDEST PUSH1 0x1 PUSH1 0x1 PUSH1 0xA0 SHL SUB DUP4 AND PUSH1 0x0 DUP2 DUP2 MSTORE PUSH1 0x1 PUSH1 0x20 SWAP1 DUP2 MSTORE PUSH1 0x40 DUP1 DUP4 KECCAK256 SWAP5 SWAP1 SWAP5 SSTORE DUP4 MLOAD DUP6 DUP2 MSTORE SWAP4 MLOAD SWAP3 SWAP4 SWAP2 SWAP3 PUSH32 0xDDF252AD1BE2C89B69C2B068FC378DAA952BA7F163C4A11628F55A4DF523B3EF SWAP3 DUP2 SWAP1 SUB SWAP1 SWAP2 ADD SWAP1 LOG3 POP POP JUMP JUMPDEST PUSH1 0x0 DUP2 DUP4 LT PUSH2 0x1FC5 JUMPI DUP2 PUSH2 0x1FC7 JUMP JUMPDEST DUP3 JUMPDEST SWAP4 SWAP3 POP POP POP JUMP JUMPDEST PUSH1 0x1 PUSH1 0x1 PUSH1 0xA0 SHL SUB DUP3 AND PUSH1 0x0 SWAP1 DUP2 MSTORE PUSH1 0x1 PUSH1 0x20 MSTORE PUSH1 0x40 SWAP1 KECCAK256 SLOAD PUSH2 0x1FF1 SWAP1 DUP3 PUSH2 0x1A7B JUMP JUMPDEST PUSH1 0x1 PUSH1 0x1 PUSH1 0xA0 SHL SUB DUP4 AND PUSH1 0x0 SWAP1 DUP2 MSTORE PUSH1 0x1 PUSH1 0x20 MSTORE PUSH1 0x40 DUP2 KECCAK256 SWAP2 SWAP1 SWAP2 SSTORE SLOAD PUSH2 0x2018 SWAP1 DUP3 PUSH2 0x1A7B JUMP JUMPDEST PUSH1 0x0 SWAP1 DUP2 SSTORE PUSH1 0x40 DUP1 MLOAD DUP4 DUP2 MSTORE SWAP1 MLOAD PUSH1 0x1 PUSH1 0x1 PUSH1 0xA0 SHL SUB DUP6 AND SWAP2 PUSH32 0xDDF252AD1BE2C89B69C2B068FC378DAA952BA7F163C4A11628F55A4DF523B3EF SWAP2 SWAP1 DUP2 SWAP1 SUB PUSH1 0x20 ADD SWAP1 LOG3 POP POP JUMP JUMPDEST PUSH1 0x1 PUSH1 0x1 PUSH1 0x70 SHL SUB AND PUSH1 0x1 PUSH1 0x70 SHL MUL SWAP1 JUMP JUMPDEST PUSH1 0x0 PUSH1 0x1 PUSH1 0x1 PUSH1 0x70 SHL SUB DUP3 AND PUSH1 0x1 PUSH1 0x1 PUSH1 0xE0 SHL SUB DUP5 AND DUP2 PUSH2 0x208F JUMPI INVALID JUMPDEST DIV SWAP4 SWAP3 POP POP POP JUMP JUMPDEST DUP1 DUP3 ADD DUP3 DUP2 LT ISZERO PUSH2 0xB2F JUMPI PUSH1 0x40 DUP1 MLOAD PUSH3 0x461BCD PUSH1 0xE5 SHL DUP2 MSTORE PUSH1 0x20 PUSH1 0x4 DUP3 ADD MSTORE PUSH1 0x14 PUSH1 0x24 DUP3 ADD MSTORE PUSH20 0x64732D6D6174682D6164642D6F766572666C6F77 PUSH1 0x60 SHL PUSH1 0x44 DUP3 ADD MSTORE SWAP1 MLOAD SWAP1 DUP2 SWAP1 SUB PUSH1 0x64 ADD SWAP1 REVERT INVALID SSTORE PUSH15 0x697377617056323A20494E53554646 0x49 NUMBER 0x49 GASLIMIT 0x4E SLOAD 0x5F 0x4F SSTORE SLOAD POP SSTORE SLOAD 0x5F COINBASE 0x4D 0x4F SSTORE 0x4E SLOAD SSTORE PUSH15 0x697377617056323A20494E53554646 0x49 NUMBER 0x49 GASLIMIT 0x4E SLOAD 0x5F 0x49 0x4E POP SSTORE SLOAD 0x5F COINBASE 0x4D 0x4F SSTORE 0x4E SLOAD SSTORE PUSH15 0x697377617056323A20494E53554646 0x49 NUMBER 0x49 GASLIMIT 0x4E SLOAD 0x5F 0x4C 0x49 MLOAD SSTORE 0x49 DIFFICULTY 0x49 SLOAD MSIZE SSTORE PUSH15 0x697377617056323A20494E53554646 0x49 NUMBER 0x49 GASLIMIT 0x4E SLOAD 0x5F 0x4C 0x49 MLOAD SSTORE 0x49 DIFFICULTY 0x49 SLOAD MSIZE 0x5F TIMESTAMP SSTORE MSTORE 0x4E GASLIMIT DIFFICULTY SSTORE PUSH15 0x697377617056323A20494E53554646 0x49 NUMBER 0x49 GASLIMIT 0x4E SLOAD 0x5F 0x4C 0x49 MLOAD SSTORE 0x49 DIFFICULTY 0x49 SLOAD MSIZE 0x5F 0x4D 0x49 0x4E SLOAD GASLIMIT DIFFICULTY LOG2 PUSH5 0x6970667358 0x22 SLT KECCAK256 0xAD ADDRESS 0x22 SUB 0x29 0x29 PUSH2 0x4901 SWAP12 0xDD SWAP15 0xC DUP2 DUP7 JUMPDEST TIMESTAMP 0x25 0xB3 0xB4 0xCB PUSH5 0x73207784AB 0xDB SHL CODESIZE 0xCE MUL PUSH5 0x736F6C6343 STOP MOD 0xC STOP CALLER "
				},
				"gasEstimates": {
					"creation": {
						"codeDepositCost": "1732400",
						"executionCost": "62986",
						"totalCost": "1795386"
					},
					"external": {
						"DOMAIN_SEPARATOR()": "1043",
						"MINIMUM_LIQUIDITY()": "243",
						"PERMIT_TYPEHASH()": "266",
						"allowance(address,address)": "1305",
						"approve(address,uint256)": "22410",
						"balanceOf(address)": "1192",
						"burn(address)": "infinite",
						"decimals()": "297",
						"factory()": "1126",
						"getReserves()": "1217",
						"initialize(address,address)": "42828",
						"kLast()": "1088",
						"mint(address)": "infinite",
						"name()": "infinite",
						"nonces(address)": "1169",
						"permit(address,address,uint256,uint256,uint8,bytes32,bytes32)": "infinite",
						"price0CumulativeLast()": "1087",
						"price1CumulativeLast()": "1109",
						"skim(address)": "infinite",
						"swap(uint256,uint256,address,bytes)": "infinite",
						"symbol()": "infinite",
						"sync()": "infinite",
						"token0()": "1149",
						"token1()": "1081",
						"totalSupply()": "1132",
						"transfer(address,uint256)": "infinite",
						"transferFrom(address,address,uint256)": "infinite"
					},
					"internal": {
						"_mintFee(uint112,uint112)": "infinite",
						"_safeTransfer(address,address,uint256)": "infinite",
						"_update(uint256,uint256,uint112,uint112)": "infinite"
					}
				},
				"methodIdentifiers": {
					"DOMAIN_SEPARATOR()": "3644e515",
					"MINIMUM_LIQUIDITY()": "ba9a7a56",
					"PERMIT_TYPEHASH()": "30adf81f",
					"allowance(address,address)": "dd62ed3e",
					"approve(address,uint256)": "095ea7b3",
					"balanceOf(address)": "70a08231",
					"burn(address)": "89afcb44",
					"decimals()": "313ce567",
					"factory()": "c45a0155",
					"getReserves()": "0902f1ac",
					"initialize(address,address)": "485cc955",
					"kLast()": "7464fc3d",
					"mint(address)": "6a627842",
					"name()": "06fdde03",
					"nonces(address)": "7ecebe00",
					"permit(address,address,uint256,uint256,uint8,bytes32,bytes32)": "d505accf",
					"price0CumulativeLast()": "5909c0d5",
					"price1CumulativeLast()": "5a3d5493",
					"skim(address)": "bc25cf77",
					"swap(uint256,uint256,address,bytes)": "022c0d9f",
					"symbol()": "95d89b41",
					"sync()": "fff6cae9",
					"token0()": "0dfe1681",
					"token1()": "d21220a7",
					"totalSupply()": "18160ddd",
					"transfer(address,uint256)": "a9059cbb",
					"transferFrom(address,address,uint256)": "23b872dd"
				}
			},
			"storageLayout": {
				"storage": [
					{
						"astId": 16,
						"contract": "UniswapV2Pair.sol:UniswapV2Pair",
						"label": "totalSupply",
						"offset": 0,
						"slot": "0",
						"type": "t_uint256"
					},
					{
						"astId": 20,
						"contract": "UniswapV2Pair.sol:UniswapV2Pair",
						"label": "balanceOf",
						"offset": 0,
						"slot": "1",
						"type": "t_mapping(t_address,t_uint256)"
					},
					{
						"astId": 26,
						"contract": "UniswapV2Pair.sol:UniswapV2Pair",
						"label": "allowance",
						"offset": 0,
						"slot": "2",
						"type": "t_mapping(t_address,t_mapping(t_address,t_uint256))"
					},
					{
						"astId": 28,
						"contract": "UniswapV2Pair.sol:UniswapV2Pair",
						"label": "DOMAIN_SEPARATOR",
						"offset": 0,
						"slot": "3",
						"type": "t_bytes32"
					},
					{
						"astId": 35,
						"contract": "UniswapV2Pair.sol:UniswapV2Pair",
						"label": "nonces",
						"offset": 0,
						"slot": "4",
						"type": "t_mapping(t_address,t_uint256)"
					},
					{
						"astId": 748,
						"contract": "UniswapV2Pair.sol:UniswapV2Pair",
						"label": "factory",
						"offset": 0,
						"slot": "5",
						"type": "t_address"
					},
					{
						"astId": 750,
						"contract": "UniswapV2Pair.sol:UniswapV2Pair",
						"label": "token0",
						"offset": 0,
						"slot": "6",
						"type": "t_address"
					},
					{
						"astId": 752,
						"contract": "UniswapV2Pair.sol:UniswapV2Pair",
						"label": "token1",
						"offset": 0,
						"slot": "7",
						"type": "t_address"
					},
					{
						"astId": 754,
						"contract": "UniswapV2Pair.sol:UniswapV2Pair",
						"label": "reserve0",
						"offset": 0,
						"slot": "8",
						"type": "t_uint112"
					},
					{
						"astId": 756,
						"contract": "UniswapV2Pair.sol:UniswapV2Pair",
						"label": "reserve1",
						"offset": 14,
						"slot": "8",
						"type": "t_uint112"
					},
					{
						"astId": 758,
						"contract": "UniswapV2Pair.sol:UniswapV2Pair",
						"label": "blockTimestampLast",
						"offset": 28,
						"slot": "8",
						"type": "t_uint32"
					},
					{
						"astId": 760,
						"contract": "UniswapV2Pair.sol:UniswapV2Pair",
						"label": "price0CumulativeLast",
						"offset": 0,
						"slot": "9",
						"type": "t_uint256"
					},
					{
						"astId": 762,
						"contract": "UniswapV2Pair.sol:UniswapV2Pair",
						"label": "price1CumulativeLast",
						"offset": 0,
						"slot": "10",
						"type": "t_uint256"
					},
					{
						"astId": 764,
						"contract": "UniswapV2Pair.sol:UniswapV2Pair",
						"label": "kLast",
						"offset": 0,
						"slot": "11",
						"type": "t_uint256"
					},
					{
						"astId": 767,
						"contract": "UniswapV2Pair.sol:UniswapV2Pair",
						"label": "unlocked",
						"offset": 0,
						"slot": "12",
						"type": "t_uint256"
					}
				],
				"types": {
					"t_address": {
						"encoding": "inplace",
						"label": "address",
						"numberOfBytes": "20"
					},
					"t_bytes32": {
						"encoding": "inplace",
						"label": "bytes32",
						"numberOfBytes": "32"
					},
					"t_mapping(t_address,t_mapping(t_address,t_uint256))": {
						"encoding": "mapping",
						"key": "t_address",
						"label": "mapping(address => mapping(address => uint256))",
						"numberOfBytes": "32",
						"value": "t_mapping(t_address,t_uint256)"
					},
					"t_mapping(t_address,t_uint256)": {
						"encoding": "mapping",
						"key": "t_address",
						"label": "mapping(address => uint256)",
						"numberOfBytes": "32",
						"value": "t_uint256"
					},
					"t_uint112": {
						"encoding": "inplace",
						"label": "uint112",
						"numberOfBytes": "14"
					},
					"t_uint256": {
						"encoding": "inplace",
						"label": "uint256",
						"numberOfBytes": "32"
					},
					"t_uint32": {
						"encoding": "inplace",
						"label": "uint32",
						"numberOfBytes": "4"
					}
				}
			},
			"userdoc": {
				"kind": "user",
				"methods": {},
				"version": 1
			}
		}
	}
}